:020000040800F2
:10000000301C0020210200082B1D0008E917000801
:10001000291D00085B0400082B23000800000000D5
:10002000000000000000000000000000890100083E
:100030005D04000800000000CD010008D91E000882
:100040003B0200083B0200083B0200083B0200089C
:100050003B0200083B0200085F0400083B02000866
:100060003B0200083B0200083B0200083B0200087C
:100070003B0200083B0200083B0200083B0200086C
:100080003B0200083B0200083B0200083B0200085C
:100090003B0200083B0200083B0200083B0200084C
:1000A0003B0200083B0200083B0200083B0200083C
:1000B000591F00083B020008651F00083B020008AA
:1000C0003B0200083B0200083B0200083B0200081C
:1000D0003B0200083B0200083B0200083B0200080C
:1000E0003B0200083B0200083B02000800F002F857
:1000F00000F03AF80AA090E8000C82448344AAF188
:100100000107DA4501D100F02FF8AFF2090EBAE885
:100110000F0013F0010F18BFFB1A43F0010318473B
:1001200088340000A8340000103A24BF78C878C191
:10013000FAD8520724BF30C830C144BF04680C60ED
:10014000704700000023002400250026103A28BF35
:1001500078C1FBD8520728BF30C148BF0B60704739
:100160001FB51FBD10B510BD00F03DF91146FFF7DA
:10017000F7FF02F0EBF800F05BF903B4FFF7F2FFD2
:1001800003BC00F063F90000224B19680868B0E86E
:10019000F00F80F30988BFF36F8F4FF0000080F3FA
:1001A00011884EF00D0E70470000000006480068F0
:1001B000006880F3088862B661B6BFF34F8FBFF363
:1001C0006F8F00DF00BF00BF08ED00E0EFF3098094
:1001D000BFF36F8F0F4B1A6820E9F00F106008B55E
:1001E0004FF0500080F31188BFF34F8FBFF36F8F34
:1001F00002F050FD4FF0000080F31188BDE8084088
:1002000019680868B0E8F00F80F30988BFF36F8FB2
:10021000704700BF28000020EFF305807047000002
:100220000948804709480047FEE7FEE7FEE7FEE78A
:10023000FEE7FEE7FEE7FEE7FEE7FEE704480549C6
:10024000054A064B70470000551F0008ED000008E6
:1002500030160020301C00203018002030180020FC
:10026000032A40F2308010F0030C00F0158011F8E2
:10027000013BBCF1020F624498BF11F801CB00F8BA
:10028000013B38BF11F8013BA2F1040298BF00F80E
:1002900001CB38BF00F8013B11F0030300F02580CB
:1002A000083AC0F0088051F8043B083A51F804CBF2
:1002B000A0E80810F5E7121D5CBF51F8043B40F8B8
:1002C000043BAFF30080D20724BF11F8013B11F8C3
:1002D00001CB48BF11F8012B24BF00F8013B00F807
:1002E00001CB48BF00F8012B704710B5203AC0F091
:1002F0000B80B1E81850203AA0E81850B1E8185027
:10030000A0E81850BFF4F5AF5FEA027C24BFB1E863
:100310001850A0E8185044BF18C918C0BDE81040D4
:100320005FEA827C24BF51F8043B40F8043B08BFDD
:100330007047D20728BF31F8023B48BF11F8012BA4
:1003400028BF20F8023B48BF00F8012B70474FF050
:1003500000020429C0F0128010F0030C00F01B8092
:10036000CCF1040CBCF1020F18BF00F8012BA8BFA0
:1003700020F8022BA1EB0C0100F00DB85FEAC17C64
:1003800024BF00F8012B00F8012B48BF00F8012B17
:1003900070474FF0000200B5134694469646203948
:1003A00022BFA0E80C50A0E80C50B1F12001BFF42E
:1003B000F7AF090728BFA0E80C5048BF0CC05DF894
:1003C00004EB890028BF40F8042B08BF704748BFE2
:1003D00020F8022B11F0804F18BF00F8012B704756
:1003E000704770477047754600F02CF8AE46050020
:1003F0006946534620F00700854618B020B5FFF740
:100400001DFFBDE820404FF000064FF000074FF001
:1004100000084FF0000B21F00701AC46ACE8C00922
:10042000ACE8C009ACE8C009ACE8C0098D4670472B
:1004300010B50446AFF300802046BDE81040FFF73A
:100440009CBE000000487047CC15002001491820D0
:10045000ABBEFEE7260002007047FEE770470120B2
:1004600000F03EB872B6FEE770B5044600F046F9FB
:100470000546601C02D004480078044400F03EF9B0
:10048000401BA042FAD370BD1400002038B5124CB6
:100490000121204600F020F918B138BD0120FFF7F6
:1004A000E3FF0121204600F017F90028F6D00B4C9D
:1004B00000226946206802F0CFFD9DF8000000236D
:1004C000401C8DF800001A466946206802F0CAFCFC
:1004D0000A20FFF7C9FF38BD0008014000000020D6
:1004E000044910B50A68024202D00860FFF7CEFF47
:1004F00010BD0000140401402DE9F84FDFF8B89159
:100500000024A9F1040B23460F2709F1040AABF1DB
:10051000040EC9E00125A5402A40AA427DD1674EBC
:10052000D1F804C0ACEB0608B44532D014DCBCF101
:10053000030F3AD009DCBCF1000F2AD0BCF1010F47
:100540001CD0BCF1020F31D11DE0BCF1110F17D04E
:10055000BCF1120F2AD119E0B8F5881F19D006DCBA
:10056000B8F5803F15D0B8F5801F1FD111E0B8F560
:10057000001F0ED0B8F5041F18D10AE0CB6815E0B3
:10058000CB681B1D12E0CB6808330FE0CB680C333F
:100590000CE08B682BB1012B4FF0080303D04561B1
:1005A00004E0042302E0056100E00023FF2A01D8F3
:1005B000064601E000F104064FEA840501D9A5F1E1
:1005C0002005D6F8008007FA05FC28EA0C0803FA93
:1005D00005F548EA0508C6F800804D68ED0062D5CB
:1005E000374DAE6946F00106AE61AD6924F00306F1
:1005F00005F001050095334D06EB050CDCF80850BD
:10060000A607360F07FA06F825EA0805DFF8B880CE
:10061000404503D14FF0000817E044E0DFF8AC801C
:10062000404502D14FF001080FE0DFF8A4804045BB
:1006300002D14FF0020808E0DFF89880404502D16F
:100640004FF0030801E04FF0040808FA06F848EA02
:100650000508CCF808804D68D9F80060ED024D46D9
:1006600001D5164300E096432E604D68DAF800602D
:10067000AD02554601D5164300E096432E604D6805
:10068000DBF80060AD035D4601D5164300E09643FC
:100690002E604D68DEF80060ED03754601D5164307
:1006A00000E096432E60641C0D682A46E5407FF406
:1006B00031AFBDE8F88F00000804014000001110C0
:1006C000001002400000014000080140000C014001
:1006D00000100140001401408068084000D0012053
:1006E0007047C26821EA02030A4043EA02410161FD
:1006F00070470AB1016170470904FBE7014880684F
:10070000704700001400002070B5040025D094F854
:100710003D00002520B984F83C50204600F04EF9F9
:10072000242084F83D002068016821F00101016067
:100730002068016841F4004101602068016821F4EB
:100740000041016000F0EAFA4D4A6168914201D827
:100750004C4900E04C49884201D2012070BD4B4910
:100760002368B0FBF1F15E6826F03F060E435E6041
:100770006368934206D94FF4967359434FF47A73E2
:10078000B1FBF3F12368491C1E6A26F03F06314392
:1007900019626168914210D84900401EB0FBF1F225
:1007A000521CC2F30B02042A01D2042022E0B0FB47
:1007B000F1F0401CC0F30B001CE0A268F2B301EBA7
:1007C000C10303EB0116431EB3FBF6F35B1C43F4BA
:1007D00080431B0549D092B301EBC10202EB01112A
:1007E000401EB0FBF1F0401CC0F30B0040F4804011
:1007F00040F400402168CA694CF6FF739A431043E5
:10080000C861D4E9071001432068026822F0C002E1
:1008100011430160D4E9030101432068826848F272
:10082000FF339A4311438160D4E9050108432168ED
:10083000CA6822F0FF021043C86001E00EE016E033
:100840002068016841F0010101602564202084F8DE
:100850003D00256384F83E50002070BD01EB410649
:10086000431EB3FBF6F35B1CB3E70120C2E701EBC9
:100870004101401EB0FBF1F0401CC0F30B00B7E794
:10088000A086010080841E0000093D0040420F0048
:100890002DE9F84F1F4690468A460446DDF8289019
:1008A000FFF72CFF054694F83D0020287FD119233F
:1008B000012240492046009501F028F8002876D111
:1008C00094F83C00012872D0012084F83C00206894
:1008D0000168C90703D1016841F001010160206886
:1008E000016821F400610160212084F83D0010209E
:1008F00084F83E0000262664C4F824806785608D55
:1009000020852D48E0622B464A465146204600F09D
:1009100083FF90B9206841698069009036E02A46DB
:100920004946204601F098F850B1206C042804D1C3
:100930002068016841F4007101600120BDE8F88F72
:10094000606A216800780861606A401C6062618D9D
:10095000491E6185218D491E89B22185226853690E
:10096000DB435B070BD451B100781061606A401C17
:100970006062608D401E6085208D401E20852A4665
:100980004946204600F096FF0028CED1208D002851
:10099000C5D154F83D0B016841F40071016020207D
:1009A00004F81E09E67766770020C7E7FFE7022014
:1009B000C4E70000020010000000FFFF10B586B081
:1009C0000021009101910291039100681049884231
:1009D0001BD1104CA06940F00800A061A0696946D5
:1009E00000F0080004904FF4406000901220019045
:1009F000032003900848FFF77FFDE06940F4800082
:100A0000E061E06900F48000049006B010BD0000D1
:100A10000058004000100240000C0140024881686C
:100A2000027811448160704714000020074810B517
:100A3000016841F010010160032000F0A7F80120D7
:100A400000F006F800F050F8002010BD0020024031
:100A500030B505461F4887B0C16941F00401C16146
:100A6000C06906A900F00400009001A800F036F962
:100A70000498B0B100F052F940001749174AB0FB92
:100A8000F1F11748491E0260416040F2E73200214F
:100A9000C0E903218160816100F04CFB040003D0B8
:100AA00015E000F03BF9E8E70D4800F099FB040081
:100AB0000DD11E2000F03CF8102D07D2002229464F
:100AC0001E2000F043F80748056000E0012407B04D
:100AD000204630BD0010024040420F000008004098
:100AE00010040020180000200F4808B5816941F06B
:100AF00001018161816901F001010091C16941F049
:100B00008051C161C069002200F0805000900F2127
:100B1000901E00F01BF80548416821F0E06141F0AB
:100B20000071416008BD000000100240000001405B
:100B3000002809DB00F01F020121914040098000DC
:100B400000F1E020C0F8001170470000F0B40E4B37
:100B50001B680C46C3F30223C3F10705042D00D91B
:100B60000425191D072901D2002300E0DB1E012600
:100B700006FA05F1491E214099409E40761E164016
:100B80003143F0BC01F0D2BB0CED00E0064900F0AF
:100B9000070208684FF6FF03184040EA0220034AA4
:100BA00010430860704700000CED00E00000FA05FB
:100BB0002DE9F0470F46050061D0434E306800F044
:100BC0000700B84209D2306820F00700384330608F
:100BD000306800F00700B84251D128683B4C8107CB
:100BE00012D5400703D5606840F4E0606060287863
:100BF000000703D5606840F4605060606068A968D1
:100C000020F0F000084360602878C00728D06868AA
:100C1000012810D02168022810D0890700292EDA77
:100C2000616821F0030101436160FFF767FD8046C1
:100C300041F288390DE021688903EFE78901EDE78A
:100C4000FFF75CFDA0EB0801494502D90320BDE890
:100C5000F0876068696800F00C00B0EB810FEFD19D
:100C6000306800F00700B8420BD9306820F0070068
:100C700038433060306800F00700B84201D00120EE
:100C8000E5E72878400705D56068E96820F4E0606A
:100C9000084360602878000706D56068296920F459
:100CA000605040EAC100606000F058F86168084A8E
:100CB000C1F30311515CC84006490860064800684A
:100CC000FFF7C6FE0020C2E70020024000100240ED
:100CD0005E35000820000020180000200F2202606E
:100CE0000C4A536803F003034360536803F0F003B6
:100CF0008360536803F4E063C36052684FF4E063B9
:100D000003EAD20202610448006800F007000860AC
:100D100070470000001002400020024004480549CE
:100D200000684968044AC1F30221515CC840704719
:100D300020000020001002406E35000804480549DC
:100D400000684968044AC1F3C221515CC840704739
:100D500020000020001002406E3500080E4A516845
:100D60000E4801F00C03042B11D0082B0FD10C48B6
:100D7000C1F38343C903C05C0AD55168084AC1F373
:100D80004041921E515C054A5043B0FBF1F0704760
:100D900004494843704700000010024000127A00E6
:100DA0004E35000800093D002DE9F84F040070D0D1
:100DB0002078C04DC00749D06868C0F38100012881
:100DC00007D06868C0F38100022809D16868C003B1
:100DD00006D52868800339D560680028E7D035E05B
:100DE0006068B0F5803F0BD010B1B0F5A02F11D0E6
:100DF000286820F480302860286820F4802002E0F1
:100E0000286840F480302860606890B1FFF776FC75
:100E100006460AE0286840F480202860F0E700BF1A
:100E2000FFF76CFC801B642873D828688003F7D513
:100E30000CE0FFF763FC064605E000BFFFF75EFC31
:100E4000801B6428F0D828688003F7D420789A4E55
:100E500080074FF001094FF0000839D5686810F09D
:100E60000C0F07D06868C0F38100022809D16868B8
:100E7000C00306D42868800714D52069012808D14A
:100E800010E02069B0B1C6F80090FFF737FC0746C4
:100E900005E00AE1FFF732FCC01B0228C4D828682D
:100EA0008007F7D52868616920F0F80040EAC100A2
:100EB00028600DE0C6F80080FFF720FC074604E03C
:100EC000FFF71CFCC01B022823D828688007F7D432
:100ED000207800072CD57948A169D9B1C0F80090D5
:100EE000FFF70CFC074604E0FFF708FCC01B0228D4
:100EF0000FD8686A8007F7D571484FF4FA51006837
:100F0000B0FBF1F0009000BF0098411E0091FAD2B2
:100F10000EE080E0C0F80080FFF7F0FB074604E039
:100F2000FFF7ECFBC01B022875D8686A8007F7D46E
:100F30002078400760D5E8690027C00008D4E86938
:100F400040F08050E861E869012700F0805000908F
:100F50005C480168C90513D40168834641F4807177
:100F60000160FFF7CBFB824606E000BFFFF7C6FB40
:100F7000A0EB0A0064284ED8DBF80000C005F5D5C8
:100F8000E06801280AD008B1052813D0286A20F0AB
:100F900001002862286A20F0040002E0286A40F07C
:100FA00001002862E06841F2883B98B1FFF7A6FB98
:100FB00082460BE0286A40F004002862EEE700BF9A
:100FC000FFF79CFBA0EB0A0159455AD8286A800715
:100FD000F6D50CE0FFF792FB824605E0FFF78EFBAB
:100FE000A0EB0A0159454CD8286A8007F6D41FB1F6
:100FF000E86920F08050E861E06988B36968C1F36E
:101000008101022944D00228C6F8608004D0FFF78D
:1010100075FB044638E034E0FFF770FB074604E058
:10102000FFF76CFBC01B02282BD828688001F7D47F
:10103000206AB0F5803F05D16868A16820F40030CF
:1010400008436860D4E908010843696821F4741111
:1010500008436860C6F86090FFF750FB044606E05E
:1010600025E000BFFFF74AFB001B022809D82868CB
:101070008001F7D51BE000BFFFF740FB001B0228F3
:1010800002D90320BDE8F88F28688001F4D40EE06F
:101090000128F7D06868226A00F48031914204D1B7
:1010A000616A00F47010884201D00120EAE7002054
:1010B000E8E7000000100240000042428004424283
:1010C00020000020007000407047704770B590F815
:1010D0003C20012A26D0012480F83C40022280F8DE
:1010E0003D2003685A689D6822F070060A68324302
:1010F0005A600D4B02689A4208D0B2F1804F05D079
:101100000A4B9A4202D00A4B9A4204D1496825F010
:1011100080031943916080F83D40002180F83C1025
:10112000084670BD022070BD002C01400004004044
:101130000008004010B5040003D094F83D0010B141
:1011400007E0012010BD002084F83C00204600F09C
:101150001FF8022084F83D00211D206800F008FFE0
:10116000012084F8460084F83E0084F83F0084F8AB
:10117000400084F8410084F8420084F8430084F879
:10118000440084F8450084F83D00002010BD0000B4
:1011900008B501681048B1F1804F0BD00F4A914259
:1011A00007D1C16941F00201C161C06900F00200CC
:1011B000009008BDC16941F00101C161C069002210
:1011C00000F00100009009211C20FFF7BFFCBDE8E2
:1011D00008401C20FFF7ACBC001002400004004097
:1011E00090F83D10012901D001207047022180F8BC
:1011F0003D100168CA6842F00102CA6000680B49EC
:10120000884208D0B0F1804F05D00949884202D009
:101210000849884204D1816801F00701062903D0FA
:10122000016841F00101016000207047002C01407D
:10123000000400400008004070B5044690F83C00EF
:101240000025012817D0012684F83C60022084F88C
:101250003D002068826822F0770222F47F4282609B
:101260000868502838D00DDC20284FD005DC90B31A
:10127000102811D14AE0022070BD302846D0402805
:101280000AD13BE060282FD070280DD0B0F5805FE8
:1012900003D0B0F5005F12D0012584F83D60002036
:1012A00084F83C00284670BDCB68D1E90121206854
:1012B00000F0A7FE2068816841F0770109E0CB6863
:1012C000D1E90121206800F09CFE2068816841F48A
:1012D00080418160E1E719E0CA684968206800F050
:1012E00045FF5021206806E0CA684968206800F080
:1012F0004EFF6021206800F08EFECEE7CA68496884
:10130000206800F033FF40212068F4E7226801469E
:101310001046F0E770472DE9F04104460068C668C2
:1013200005694FF00007A90713D5B10711D5F91EBC
:10133000016101202077206880698007204602D063
:10134000FFF7E8FF04E000F0A5F8204600F037F9C9
:101350002777680716D5700714D521686FF0040049
:101360000861022020772068806910F4407F2046C1
:1013700002D0FFF7CFFF04E000F08CF8204600F029
:101380001EF92777280715D5300713D521686FF088
:1013900008000861042020772068C0698007204683
:1013A00002D0FFF7B7FF04E000F074F8204600F029
:1013B00006F92777E80616D5F00614D521686FF0F0
:1013C00010000861082020772068C06910F4407F71
:1013D000204602D0FFF79EFF04E000F05BF82046B5
:1013E00000F0EDF82777E80708D0F00706D021686D
:1013F0006FF001000861204600F030F9280608D59A
:10140000300606D521686FF0800008612046FFF79E
:101410005BFE680608D5700606D521686FF04000AF
:101420000861204600F024F9A8060AD5B00608D5C0
:1014300021686FF0200008612046BDE8F041FFF709
:1014400044BEBDE8F081000000B585B000210091E8
:1014500001910291039100680B49884211D10B4818
:10146000816941F0040181618069694600F00400EE
:101470000490402000900220019003900448FFF760
:101480003BF805B000BD0000000400400010024021
:1014900000080140704770B5044690F83C000026F3
:1014A0000D4601280FD0012084F83C006AB1042ABF
:1014B0001DD0082A2FD00C2A3FD00126002084F806
:1014C0003C00304670BD022070BD206800F0ACFDCD
:1014D0002068816941F0080181612068816921F0FB
:1014E00004018161206881692A69114311E0206843
:1014F00000F0C2FD2068816941F4006181612068CB
:10150000816921F480618161206881692A6941EAE9
:1015100002218161D2E7206800F0DAFD2068C1690C
:1015200041F00801C1612068C16921F00401C16175
:101530002068C1692A69114311E0206800F0F4FDB8
:101540002068C16941F40061C1612068C16921F46A
:101550008061C1612068C1692A6941EA0221C161D3
:10156000ACE710B5040003D094F83D0010B107E0DB
:10157000012010BD002084F83C00204600F01EF839
:10158000022084F83D00211D206800F0F1FC0120BC
:1015900084F8460084F83E0084F83F0084F8400058
:1015A00084F8410084F8420084F8430084F8440041
:1015B00084F8450084F83D00002010BD7047704756
:1015C00010B50446022249B104290ED0082913D0CF
:1015D00094F84100012816D0012010BD94F83E0077
:1015E0000128F9D184F83E200FE094F83F0001284B
:1015F000F2D184F83F2008E094F840000128EBD1B4
:1016000084F8402001E084F841200122206800F0A5
:10161000EBFC0F492068884203D1426C42F400423F
:1016200042642068884208D0B0F1804F05D0094953
:10163000884202D00849884204D1816801F007013C
:10164000062903D0016841F001010160002010BDAE
:10165000002C0140000400400008004000680349DD
:10166000884201D1FFF7DAB9704700000008004056
:10167000704770B5040004D094F84100002510B103
:1016800006E0012070BD84F84050204600F024F8A8
:10169000242084F841002068C16821F40051C16011
:1016A000204600F0ADFD2068016921F49041016100
:1016B0002068416921F02A0141612068C16841F434
:1016C0000051C1606564202084F8410084F8420024
:1016D0006563002070BD000030B585B00024009423
:1016E00001940294039400681449884224D1144858
:1016F000816941F480418161816901F480410491F3
:10170000816941F00401816180690E4D00F004009F
:1017100004904FF400700090022001900320039089
:1017200069462846FEF7E8FE2815CDE9000469461B
:1017300028460294FEF7E0FE05B030BD00380140B7
:1017400000100240000801402DE9F843044690F8DB
:101750004100984616460D46202802D00220BDE8DA
:10176000F88385B17EB100206064212084F84100B7
:10177000FEF7C4FFA6848146E684A0682027B0F562
:10178000805F02D003E00120E9E7206910B12E4616
:1017900000250EE000260CE08021204600F08CFDA4
:1017A000A8B9C6B116F8010B21684860E08C401E4C
:1017B000E084E08C4B464FF00002CDF8008000281A
:1017C000EAD14FF04001204600F076FD40B184F8A8
:1017D00041700320C3E735F8020BC0F30800E3E7CC
:1017E00084F841700020BAE7FEE701684A69D243F5
:1017F00052050FD46FF480624A61002140F8301F17
:10180000202242738173026942F004020261017373
:101810000120704700207047F8B50446C06A1E4694
:101820000D461746082807D0012805D010F5803F3F
:1018300002D0206B122804D12068016841F4807125
:101840000160134600224FF001112046009600F07F
:101850005DF840B120680068C00502D54FF4007003
:1018600020640320F8BD2069B0F5804F0ED006201B
:10187000216800EAD51040F0F000086133463A468E
:101880000B49204600F08AF878B902E005F0FE0026
:1018900000E0E8B221680861054933463A46891FED
:1018A000204600F07BF80028DCD00120F8BD0000C5
:1018B0000800010070B516460D4604461EE020469D
:1018C000FFF793FF08B1012070BD681C16D0FEF72A
:1018D00015FF801BA84200D885B920684069C04325
:1018E00040070BD5002044F8300F20216173A0730E
:1018F000216941F0200121612073E4E720684069FB
:10190000C0434007DBD4002070BD00002DE9F04744
:10191000984617460D460446C1F30746DDF8209069
:101920002AE000BFB8F1FF3F26D0FEF7E7FEA0EBAC
:101930000901414502D8B8F1000F1DD12068012EE0
:1019400016D0806925EA00000004000C12D00020A7
:10195000B84211D1002044F8300F20216173A073E8
:10196000216941F02001216120730120BDE8F08749
:101970004069E7E70120EBE72068012E0AD0806983
:1019800025EA00000004000C06D00020B842C9D0AF
:101990000020EBE74069F3E70120F7E72DE9F04786
:1019A000984616460D4604464FF000094FF0200AAF
:1019B000C1F3074723E020684069C043400515D4C0
:1019C0002068016841F40071016021686FF4806053
:1019D0004861C4F8309084F83DA084F83E90216CB2
:1019E00041F00401216484F83C9021E0701C06D091
:1019F000FEF784FEA0EB0800B04203D816B1012F19
:101A00001FD021E02068012F15D0806925EA000051
:101A10000004000C18D000BF44F8309F84F80DA0DB
:101A200084F80E90216941F02001216184F80C9026
:101A30000120BDE8F087406925EA00000004000CA1
:101A4000EAD12068406901E02068806925EA000049
:101A50000004000CAFD1ECE770B516460D46044605
:101A60001EE02046FFF7C1FE08B1012070BD681CD2
:101A700016D0FEF743FE801BA84200D885B9206827
:101A80004069C04300060BD5002044F8300F2021E8
:101A90006173A073216941F0200121612073E4E7A3
:101AA00020684069C0430006DBD4002070BD000000
:101AB00010B59CB01C2216496846FEF716FC0021A2
:101AC000684600F081FC134C11491C2260601C31F7
:101AD00007A8FEF70AFC002107A800F075FC0C49D6
:101AE000A0601C2238310EA8FEF7FFFB00210EA8D3
:101AF00000F06AFC0649E0601C22543115A8FEF78C
:101B0000F4FB002115A800F05FFC20611CB010BDA3
:101B1000DC34000800000020F0B585B00024204827
:101B20000094019402940394816941F0040181615D
:101B3000816901F004010491816941F0080181612A
:101B40008069184E00F00800049000227821304689
:101B5000FEF7CFFD01251448144FCDE9005069462A
:101B600038460295FEF7C8FC0E208DE83100694624
:101B70003846FEF7C1FC782000901120CDE9010421
:101B80000220039069463046FEF7B6FC062100228B
:101B90000846FEF7DBFF0620FEF7CAFF05B0F0BDE2
:101BA00000100240000C014000002110000801401C
:101BB0000D4810B50B4901600C49416000214FF4FC
:101BC00080428160C0E9031241618161C1610162AB
:101BD000FEF79AFD002803D0BDE81040FEF742BC96
:101BE00010BD000000580040E4020020A086010063
:101BF00010B586B000241748009401940294039411
:101C000004944FF080410594016040F21F31C0E917
:101C100001144CF24F31C0E903148461FFF78AFAD2
:101C200008B1FEF71FFC4FF4805000906946094848
:101C3000FFF702FB08B1FEF715FC049404A9054860
:101C40000594FFF743FA002801D0FEF70BFC06B01D
:101C500010BD00003803002010B58EB0002407949A
:101C6000089409940A940B941C2168460C94FEF77E
:101C700090FB1E481C4901600721C0E9011440F295
:101C8000E731C0E903148461FFF754FA08B1FEF7A5
:101C9000E9FB4FF48050079007A91448FFF7CCFAEE
:101CA00008B1FEF7DFFB1148FFF75BFC08B1FEF758
:101CB000D9FB0B940BA90D480C94FFF707FA08B158
:101CC000FEF7D0FB6020CDE90004029400226946B3
:101CD00006480494FFF7DFFB08B1FEF7C3FB034897
:101CE000FFF7B2FB0EB010BD0004004080030020DF
:101CF0000C4810B50A4901604FF4E1314160002100
:101D000081600C22C160C0E904128161C161FFF7EA
:101D1000B0FC002803D0BDE81040FEF7A3BB10BD07
:101D200000380140C8030020FEE7FEE710B5AE20F2
:101D300000F06EF8202000F06BF8102000F068F83A
:101D4000B02000F065F8C82000F062F8002000F034
:101D50005FF8102000F05CF8402000F059F8812076
:101D600000F056F8DF2000F053F8A12000F050F802
:101D7000A62000F04DF8A82000F04AF83F2000F01F
:101D800047F8A42000F044F8D32000F041F80020E8
:101D900000F03EF8D52000F03BF8F02000F038F8D5
:101DA000D92000F035F8222000F032F8DA2000F0D7
:101DB0002FF8122000F02CF8DB2000F029F820206A
:101DC00000F026F88D2000F023F8142000F020F811
:101DD00000F008F800F024F8BDE81040AF2000F053
:101DE00017B800004FF480610148FEF7B0BA000058
:101DF000D904002008B54FF0FF3200920B4602468E
:101E000078210248FEF744FD08BD0000E4020020EE
:101E10000249487002210148FFF7ECBF260000206C
:101E200070B5104D40200024287005F1810600BFD8
:101E300004F1B000C0B2FFF7EBFF0020FFF7E8FFAE
:101E40001020FFF7E5FF06EBC4118022681CFEF7A7
:101E500007FA81210348FFF7CDFF641CE4B2082C88
:101E6000E6D370BD58040020012000F0A1FAFBE782
:101E700001F0E0F9FEE7000008B50B4E0B4D4FF402
:101E80007A7408213046FEF72CFC00226946286847
:101E900001F048F82346012269460548FFF754FC43
:101EA000204600F06DFEECE7000C01400000002031
:101EB000C8030020074D4FF47A7600242868446355
:101EC000042000F05DFE6434B442F7DB642000F0CF
:101ED00057FEF2E78003002010B5502080F31188F0
:101EE000BFF34F8FBFF36F8F01F0AAF918B1044908
:101EF0004FF080500860002080F3118810BD000072
:101F000004ED00E010B590B028216846FEF741FAD4
:101F100014210AA8FEF73DFA022000900120049047
:101F200010200024059007946846FEF73DFF08B195
:101F300072B6FEE70F20CDE90A040C940D9400213F
:101F40000AA80E94FEF734FE002801D072B6FEE710
:101F500010B010BD704700000148FFF7DCB9000069
:101F6000380300200148FFF7D6B900001004002014
:101F7000F0B50268194B1A4C1A4D4FF08047984241
:101F800005D0B84203D0A04201D0A84203D122F02C
:101F900070064A683243984205D0B84203D0A04246
:101FA00001D0A84203D122F44074CA6822434C698C
:101FB00022F08002224302608A68C2620A6882625A
:101FC000984201D109690163012141610169C90791
:101FD00003D0016921F001010161F0BD002C014035
:101FE000000400400008004010B501F01F0301216B
:101FF000046A99408C430462016A9A401143016269
:1020000010BD10B5846842EA032224F47F440A43D9
:102010002243826010BD826822F070020A4342F0BF
:10202000070181607047000030B5036A026A22F040
:10203000010202624268846924F073050C682C4333
:1020400023F002058B682B430A4DA8420BD123F0E5
:102050000805CB6822F440722B434D6923F004033A
:1020600015438A692A434260846149684163036277
:1020700030BD0000002C014030B5026A036A23F035
:1020800010030362436884690D6824F4E64444EA5B
:1020900005248D6822F0200242EA05120B4DA84269
:1020A0000ED1CD6822F0800242EA05124D6923F478
:1020B000406343EA85038D6922F0400243EA8503C9
:1020C0004360846149688163026230BD002C014035
:1020D00030B5036A026A22F4807202624268C469FF
:1020E00023F4007324F073050C682C438D6843EAD5
:1020F00005230C4DA8420ED1CD6823F4006343EABA
:1021000005234D6922F4405242EA05128D6923F4F9
:10211000806342EA05124260C4614968C163036298
:1021200030BD0000002C014030B5046A026A22F480
:10213000805202624268C3690D6823F4E64343EAB1
:1021400005238D6824F4005444EA0534064DA84262
:1021500004D14D6922F4804242EA85124260C36193
:1021600049680164046230BD002C014010B5036A67
:10217000046A24F001040462846924F0F00444EA4F
:10218000021423F00A020A438461026210BD10B5F2
:10219000036A046A24F010040462846923F0A00333
:1021A00024F4704444EA023243EA0111826101627C
:1021B00010BD01680C3151E8002F22F4907241E803
:1021C0000023002BF5D10168143151E8002F22F0D3
:1021D000010241E80023002BF5D1016B012909D14F
:1021E00001680C3151E8002F22F0100241E8002371
:1021F000002BF5D1202180F84210002101637047A7
:1022000070B5044600680169E26821F44051114349
:1022100001612169A0680843616908432168CA68AF
:1022200041F20C639A430243CA6020684169A26983
:1022300021F44071114341611E492068884202D156
:10224000FEF77CFD01E0FEF769FD00EBC00101EB4C
:102250000012606864218000B2FBF0F3B3FBF1F37D
:102260006FF018067343B2FBF0F5B2FBF0F605EB26
:102270008305322303EB0515B5FBF1F5B6FBF1F64B
:1022800005F0F00505EB0615B2FBF0F6B2FBF0F039
:10229000B0FBF1F06FF01802504306EB800003EB47
:1022A0000010B0FBF1F0216800F00F0028448860B6
:1022B00070BD0000003801402DE9F84398461746EC
:1022C0000D460446089E24E0701C22D0FEF716FA44
:1022D000A0EB0800B0421AD8CEB12068C168490707
:1022E00017D5802D15D0402D13D00168C94309079B
:1022F0000FD401680025406800902046FFF759FF81
:102300000820606484F840500120BDE8F883032071
:10231000FBE72068006835EA000004D00020B842DE
:10232000D2D00020F1E70120F9E7FEE70907090E06
:10233000002804DB00F1E02080F80014704700F072
:102340000F0000F1E02080F8141D7047FEF76EFBCF
:10235000FFF7D8FDFFF7E0FBFFF72AFCFFF748FC8B
:10236000FFF77AFCFFF7C4FC3220FEF77DF8FFF799
:10237000DDFC0948FEF734FF00210848FFF720F98B
:1023800001210022084600F007FD05490860FFF71B
:102390008FFB00F014F8FEE73803002080030020D4
:1023A0000000002001460020842900D0C81C70478E
:1023B00010B500B9012000F0E3FB002010BD10B5FE
:1023C00000F02AFC002010BD7FB50D46044641698F
:1023D000B0F9080081B1A16971B1FFF7E3FFD4E959
:1023E00005128DE80700D4E900102B46226900F0A1
:1023F000E8FE039004B070BDFFF7D4FF03A9CDE958
:102400000001208A2B4682B2D4E9001000F0ACFE15
:10241000012801D00020EDE70398EBE72DE9F0411A
:10242000184C0F460546E6682068001D00F0B6FA15
:1024300038B9206890F82C10012088402169814328
:102440002161681C07D137B12168BDE8F0410E4811
:10245000091D00F0E7BA20683544B542456021689F
:1024600005D2A06BBDE8F041091D00F0C3BA606B56
:10247000091D00F0BFFAA06A854200D2A562BDE83E
:10248000F081000028000020B80900202DE9F0416B
:10249000054600F0D3FA2E4CA068401CA0602068CE
:1024A0002C4F10B1606940B32DE02560A068012871
:1024B00029D1002606EB860007EB800000F08CFA9D
:1024C000761C072EF6D323488C3000F085FA21487D
:1024D000A03000F081FA1F48B43000F07DFA1D48AA
:1024E000C83000F079FA1B48DC3000F075FA194862
:1024F0008C3060631430A06305E02068E96AC06A2C
:10250000884200D82560606A401C6062E96A012048
:10251000226988401043206101EB810007EB8000B5
:10252000291D00F07FFA00F0A9FA606900280CD09C
:102530002068E96AC06A884207D207494FF0805094
:102540000860BFF34F8FBFF36F8FBDE8F0810000CD
:1025500028000020DC08002004ED00E030B4026C0C
:102560000B46002A0BD0C1681144C1608468A142A7
:1025700001D30168C16030BC1846FDF771BE30BCA4
:1025800070472DE9F041856B174604460026026C22
:1025900082B1C7B1E068FDF763FEE168206C091AFB
:1025A000E1602268914202D2A168081AE060022F1D
:1025B00016D017E02068A8B9A06800F0A7FE06466C
:1025C0000020A0600EE06068FDF74AFE216C6068A4
:1025D00008446060A168884204D32068606001E01C
:1025E00005B16D1E6D1CA5633046BDE8F08110B5C8
:1025F000044690F8510058B101280CD002280FD0A1
:10260000502080F31188BFF34F8FBFF36F8FFEE729
:10261000206B00F047FA2046BDE8104000F042BAB7
:1026200010BD000010484FF44061420706D0C01DA5
:102630000D4920F00700411AC1F540610B4A002303
:102640000144C2E900030839183A21F0070111607A
:102650004B600B600B1AC0E9001393604FF0004011
:102660005360506170470000CC0900207C000020BE
:10267000144E154CA6F1C8074FF08058DFF84C9067
:1026800012E000BF00F0DAF9F068C568281D00F01C
:1026900085F9A068401EA0606068401E606000F080
:1026A000EDF92846FFF7A3FF60680028EAD13868F3
:1026B0000128F9D9C9F80080BFF34F8FBFF36F8F9E
:1026C000F2E70000A40900202800002004ED00E04B
:1026D0000346009829B10260C0E90F31012100F0E2
:1026E0007DBB0060F8E72DE9F0479A46DDE90984F3
:1026F00081466FF00303206B03EB82021044089EB7
:1027000020F00707780707D0502080F31188BFF327
:102710004F8FBFF36F8FFEE7002561B100202318B4
:102720000A5C83F834200A5C12B1401C1028F6D3EE
:1027300084F8435001E084F83450072E00D3062675
:10274000E662C4E91165201D00F051F904F118009A
:1027500000F04DF92461C6F107006462A061E564F0
:1027600084F8505052464946384600F005F920603A
:10277000B8F1000F01D0C8F80040BDE8F0870000B4
:1027800030B5114900E011460A688242FBD34B681C
:102790005C18844203D14068184448600846436886
:1027A0001C18944209D1084C183C2468A24209D054
:1027B00052681A4442600A6812680260814200D07E
:1027C000086030BD0460F9E77C00002010B50446C5
:1027D00000F034F9A06B28B15FF0000400F04EF96E
:1027E000204610BD0124F9E70648416B096829B16C
:1027F000416BC968C9684968816270474FF0FF3111
:10280000FAE700002800002008484068401C4FF00C
:10281000500080F3118804D0BFF34F8FBFF36F8F48
:10282000FEE7BFF34F8FBFF36F8FFEE784000020FA
:102830002DE9F041044600F001F994F9455004F106
:10284000240609E0606A48B1304600F0ABFD08B1EB
:1028500000F0C4F96D1E6DB2002DF3DC4FF0FF36B1
:1028600084F8456000F00AF900F0E8F894F9445063
:1028700004F1100709E0206948B1384600F092FDE4
:1028800008B100F0ABF96D1E6DB2002DF3DC84F8D9
:102890004460BDE8F04100F0F1B800002DE9F041DE
:1028A0000546002700F0EEF9324E306808B9FFF710
:1028B000B9FE706905424ED1C5B3083568070ED020
:1028C00005F00700C0F108000544680707D0502054
:1028D00080F31188BFF34F8FBFF36F8FFEE72DB3E7
:1028E0007068854237D82348183001460C6801E0EB
:1028F00020460C466168A94202D221680029F7D11E
:1029000031688C4227D00768216801606068083709
:10291000411B10290FD96019420708D0502080F3BD
:102920001188BFF34F8FBFF36F8FFEE713E0416055
:102930006560FFF725FF61687068401A7060B268D3
:10294000904200D2B060706901430020C4E90001E8
:10295000F068401CF06000F05FFD780707D0502061
:1029600080F31188BFF34F8FBFF36F8FFEE73846B8
:10297000BDE8F0816400002010B5031F4FF08074A3
:102980001C601B1F21F001011960191F024B0B6015
:10299000143940380A6010BD09280008D0E9013216
:1029A00001699A60D0E901235A604A68824201D1E4
:1029B00082684A60002202610868401E0860086858
:1029C00070470000034B036003F15400086080204F
:1029D000106070479000002000F108014FF0FF32B6
:1029E000C0E90112C160016100210160704700214E
:1029F0000161704730B50B685A1C02D000F1080223
:102A000002E0026904E02246546825689D42FAD932
:102A100053684B6099608A60516008610168491C85
:102A2000016030BD42684A6093688B60936859606A
:102A3000916008610168491C01607047502080F373
:102A40001188BFF34F8FBFF36F8F0A494868401C4E
:102A5000486001280CD10848006810F0FF0F07D02B
:102A6000502080F31188BFF34F8FBFF36F8FFEE7C5
:102A7000704700008400002004ED00E00849486829
:102A800028B1401E486001D180F311887047502062
:102A900080F31188BFF34F8FBFF36F8FFEE7000005
:102AA0008400002070B500282AD0164DA0F108043B
:102AB00060686969084207D1502080F31188BFF32C
:102AC0004F8FBFF36F8FFEE722683AB1502080F33B
:102AD0001188BFF34F8FBFF36F8FFEE788436060AD
:102AE00000F0D0F860686968084468602046FFF725
:102AF00047FE2869401C2861BDE8704000F08CBC8E
:102B000070BD0000640000204FF0E0200021016152
:102B1000816105494FF47A720968B1FBF2F1491EEF
:102B200041610721016170472000002010B5FDF7C9
:102B300073FB114910280ED300F1E02090F8F00348
:102B40000A78904207D2502080F31188BFF34F8F4C
:102B5000BFF36F8FFEE709480068896800F4E06002
:102B6000884207D9502080F31188BFF34F8FBFF3FD
:102B70006F8FFEE710BD0000840000200CED00E028
:102B800010B5020014D00F48006B38B1502080F30C
:102B90001188BFF34F8FBFF36F8FFEE700F072F81D
:102BA00000211046FFF73AFC00F036FC002807D160
:102BB00005494FF080500860BFF34F8FBFF36F8F10
:102BC00010BD00002800002004ED00E002490A6A60
:102BD0000260C96841607047280000200149012057
:102BE000C86170472800002010B50C4650B1094953
:102BF00009681831FFF7FEFE2046BDE810400121AC
:102C0000FFF70CBC502080F31188BFF34F8FBFF348
:102C10006F8FFEE72800002010B586B000240394D3
:102C200005AA04A903A80494FFF7CCFEDDE903017B
:102C30000094CDE9011000230EA11048059A00F080
:102C4000C0FA0F490028C86211D0502080F31188C3
:102C5000BFF34F8FBFF36F8F4FF0FF3088620120BB
:102C60004861CC6006B0BDE8104000F041B806B045
:102C700010BD000049444C450000000071260008CA
:102C8000280000200248016B491C016370470000C6
:102C9000280000201448016B11B10121C161704767
:102CA0000021C1610169B1FA81F1C1F11F0101EB9C
:102CB00081020E4951F822306BB101EB820101F122
:102CC00008034A6852684A609A4201D152684A60D1
:102CD000D16801607047502080F31188BFF34F8F97
:102CE000BFF36F8FFEE7000028000020DC08002003
:102CF0001CB5264908780190FF20087008788DF8E7
:102D000000009DF800009DF8002000F0F0009042C7
:102D100007D0502080F31188BFF34F8FBFF36F8F20
:102D2000FEE79DF800001A4C00F0500020700720CC
:102D3000A06005E09DF8002052008DF80020401EA4
:102D40009DF800201206F5D4A060032807D050207B
:102D500080F31188BFF34F8FBFF36F8FFEE74FF4FF
:102D60004070A060019808700A48016841F4700141
:102D70000160016841F070410160FFF7C5FE00206D
:102D80006060FDF713FA00201CBD000000E400E0C5
:102D90008400002020ED00E0F8B517460E4605003F
:102DA00013D005FB06F04830FFF778FD04000AD089
:102DB000002084F8460004F148023B46314628468C
:102DC0000094FFF785FC2046F8BD502080F3118861
:102DD000BFF34F8FBFF36F8FFEE7000070B50D4656
:102DE000040025D0FFF72AFED4E90F20216802FB5A
:102DF0000011A1600021A163216861600A46D4E945
:102E00000F01401E00FB0121E16021464FF0FF3021
:102E100001F8440F487004F110008DB1FFF7DCFD9C
:102E200004F12400FFF7D8FDFFF728FE012070BD54
:102E3000502080F31188BFF34F8FBFF36F8FFEE7F1
:102E400021690029F0D000F0ADFA0028ECD0044947
:102E50004FF080500860BFF34F8FBFF36F8FE3E7F1
:102E600004ED00E02DE9F0471F4690468946040036
:102E700003D0B9F1000F08D011E0502080F3118881
:102E8000BFF34F8FBFF36F8FFEE7206C38B1502038
:102E900080F31188BFF34F8FBFF36F8FFEE7022FD0
:102EA0000AD1E06B012807D0502080F31188BFF3CE
:102EB0004F8FBFF36F8FFEE7FFF738FE5020EFF321
:102EC000118680F31188BFF34F8FBFF36F8FA06B14
:102ED000E16B884206D3022F04D0002086F31188CC
:102EE000BDE8F08794F94550A06B3A464946204624
:102EF000FFF747FB681C04D06D1C84F84550012087
:102F0000ECE7606A0028FAD004F1240000F04AFAE5
:102F10000028F4D0B8F1000FF1D00121C8F800105A
:102F2000EDE700002DE9F743002582B08946040053
:102F300003D0B9F1000F08D011E0502080F31188C0
:102F4000BFF34F8FBFF36F8FFEE7206C38B1502077
:102F500080F31188BFF34F8FBFF36F8FFEE700F050
:102F60005BF93C4F4FF000084FF0805648B9049889
:102F700038B1502080F31188BFF34F8FBFF36F8FAC
:102F8000FEE7FFF75BFDA06BB8B149462046E56858
:102F9000FFF7E4FAE560606A48B104F1240000F04C
:102FA00001FA20B13E60BFF34F8FBFF36F8FFFF781
:102FB00065FD012005B0BDE8F083049808B11DB19E
:102FC00006E0FFF75BFD27E06846FFF7FFFD012500
:102FD000FFF754FDFFF756FEFFF730FD94F944006C
:102FE000401C01D184F8448094F94500401C01D173
:102FF00084F84580FFF742FD04A9684600F07AF89E
:10300000002820460AD0FFF713FC00F005FA2046FE
:10301000FFF7DCFB0028B4D00020CBE7FFF7D6FB9E
:1030200088B104F124000499FFF7DEFD2046FFF784
:10303000FFFB00F0F1F90028A3D13E60BFF34F8FF2
:10304000BFF36F8F9DE72046FFF7F2FB00F0E4F936
:1030500097E7000004ED00E02DE9F047904689462F
:10306000040003D0B9F1000F08D011E0502080F324
:103070001188BFF34F8FBFF36F8FFEE7206C38B11D
:10308000502080F31188BFF34F8FBFF36F8FFEE79F
:10309000FFF74CFD5020EFF3118680F31188BFF34A
:1030A0004F8FBFF36F8FA76BF7B194F94450494628
:1030B0002046FFF753FA7F1EA763681C04D06D1CDF
:1030C00084F84450012010E020690028FAD004F16F
:1030D000100000F067F90028F4D0B8F1000FF1D02B
:1030E0000121C8F80010EDE7002086F31188BDE843
:1030F000F08700002DE9F0410C46050011D0C4B165
:10310000FFF79CFC174BDA686E682068911B471C20
:1031100017D02F681B6A9F4219D0964217D80124F6
:1031200010E0502080F31188BFF34F8FBFF36F8FF3
:10313000FEE7502080F31188BFF34F8FBFF36F8FEE
:10314000FEE70024FFF79AFC2046BDE8F0818842A4
:1031500005D9401A20602846FFF738FDF1E7002026
:103160002060DCE7280000202DE9FF5F8346DDE9D1
:103170000E87994616468A469000FFF78FFB05009A
:103180001CD05420FFF78AFB040014D000202563D4
:1031900084F85100CDE90240CDE900874B46324624
:1031A00051465846FFF79FFA2046FFF76FF9012076
:1031B00004B0BDE8F09F2846FFF774FC4FF0FF30E5
:1031C000F6E7F0B585B0DDE90B640A9DA6B1DCB188
:1031D000542700972663022684F85160002604AF26
:1031E000CDE90246CDE90057FFF77DFA2046FFF70B
:1031F0004DF9049805B0F0BD502080F31188BFF35D
:103200004F8FBFF36F8FFEE7502080F31188BFF31D
:103210004F8FBFF36F8FFEE70548416919B1006B0F
:1032200018B100207047012070470220704700004D
:10323000280000200148C0687047000028000020D6
:103240002DE9F0412F4C0026206B28B1A069401CCD
:10325000A0613046BDE8F081E5686D1CE56013D1E2
:10326000606B006838B1502080F31188BFF34F8F36
:10327000BFF36F8FFEE7606BA16B6163A063206A91
:10328000401C2062FFF7B0FAA06ADFF87C8085421C
:1032900009D3606B0068A0B1606BC068C7687868CC
:1032A000854211D2A0622068C06A00EB800158F804
:1032B0002100012800D90126E0690028C9D0012693
:1032C000C7E74FF0FF30EDE7381DFFF767FBB86A3F
:1032D00018B107F11800FFF761FBF96A01202269B4
:1032E00088401043206101EB810108EB8100391D0A
:1032F000FFF798FBF86A2168C96A8842C9D301269A
:10330000C7E7000028000020DC08002070B504009A
:103310004FF0000140D0214D2868844207D0502052
:1033200080F31188BFF34F8FBFF36F8FFEE7A06C60
:1033300038B1401EA064636CE26A9A422CD040B15E
:103340002AE0502080F31188BFF34F8FBFF36F8FB7
:10335000FEE7201DFFF722FB114A012150B9E06A68
:1033600000EB800352F8233023B92B6901FA00F0F7
:1033700083432B61606CE062C0F10700A061E06AEA
:103380002B6981401943296100EB800002EB80002A
:10339000211DFFF747FB0121084670BD28000020D2
:1033A000DC0800202DE9F041C068C468ACB104F12C
:1033B00018000746FFF7F2FA154D286B0126A0B159
:1033C00039461448FFF72EFBE06A2968C96A88422B
:1033D0001CD90120EE61BDE8F081502080F31188F6
:1033E000BFF34F8FBFF36F8FFEE7201DFFF7D6FAB5
:1033F000E16A2A6906FA01F01043286101EB8100B5
:103400000449B43901EB8000211DDBE70020E2E72D
:1034100028000020900900202DE9F0472C4D0024C1
:103420002746286B38B1FFF709FB286B401E28633D
:10343000286B40B146E0502080F31188BFF34F8FD6
:10344000BFF36F8FFEE7A968224E0120D1B3A6F12A
:10345000B40980463068E8B1F068C46804F1180027
:10346000FFF79CFA201DFFF799FAE06A2A6908FA2B
:1034700000F11143296100EB800109EB8100211D5E
:10348000FFF7D0FAE06A2968C96A8842E2D3C5F832
:103490001C80DFE70CB1FFF7A7F9AC6944B14646E1
:1034A000FFF7CEFE00B1EE61641EF9D10020A861E5
:1034B000E86938B10849012738070860BFF34F8F22
:1034C000BFF36F8FFFF7DAFA3846BDE8F0870000E8
:1034D000280000209009002004ED00E09C35000841
:1034E000691E0008000000000000000080000000CD
:1034F000000000000000000078350008711E000880
:10350000FDFF00000000000080000000000000003F
:103510000000000084350008791E0008FDFF00004F
:10352000000000008000000000000000000000001B
:1035300090350008B51E0008FDFF000000000000E7
:1035400080000000000000000000000001020203F3
:103550000405060708090A0B0C0D0E0F10100000D9
:103560000000000000000102030406070809000033
:1035700000000102030400006D795461736B303266
:10358000000000006D795461736B3033000000005F
:103590006D795461736B30340000000064656661BE
:1035A000756C745461736B00C8350008000000200E
:1035B0009000000028010008583600089000002004
:1035C000A01B0000440100080000000000000000F3
:1035D00000000000000000000000000001000000EA
:1035E000100000000000000000127A00000000003F
:1035F00000000000000000000000000000000000CB
:1036000000000000000000000000000000000000BA
:1036100000000000000000000000000000000000AA
:10362000000000000000000000000000000000009A
:10363000000000000000000000000000000000008A
:10364000000000000000000000000000000000007A
:08365000AAAAAAAA00000000CA
:04000005080000ED02
:00000001FF
