:020000040800F2
:10000000981B002021020008D11F00084B1A00088D
:10001000CD1F0008770400089727000800000000A3
:10002000000000000000000000000000890100083E
:100030007B04000800000000CD010008C92400086E
:100040003B0200083B0200083B0200083B0200089C
:100050003B0200083B0200083B0200083B0200088C
:100060003B0200083B0200083B0200083B0200087C
:100070003B0200083B0200083B0200083B0200086C
:100080003B0200083B0200083B0200083B0200085C
:100090003B0200083B0200083B0200083B0200084C
:1000A0003B020008652500083B0200083B020008EF
:1000B0003B0200083B020008752500083B020008CF
:1000C0003B0200083B0200083B0200083B0200081C
:1000D0003B0200083B0200083B0200083B0200080C
:1000E0003B0200083B0200083B02000800F002F857
:1000F00000F03AF80AA090E8000C82448344AAF188
:100100000107DA4501D100F02FF8AFF2090EBAE885
:100110000F0013F0010F18BFFB1A43F0010318473B
:10012000A0480000C0480000103A24BF78C878C139
:10013000FAD8520724BF30C830C144BF04680C60ED
:10014000704700000023002400250026103A28BF35
:1001500078C1FBD8520728BF30C148BF0B60704739
:100160001FB51FBD10B510BD00F050F91146FFF7C7
:10017000F7FF02F0B1FE00F06EF903B4FFF7F2FFF3
:1001800003BC00F071F90000224B19680868B0E860
:10019000F00F80F30988BFF36F8F4FF0000080F3FA
:1001A00011884EF00D0E70470000000006480068F0
:1001B000006880F3088862B661B6BFF34F8FBFF363
:1001C0006F8F00DF00BF00BF08ED00E0EFF3098094
:1001D000BFF36F8F0F4B1A6820E9F00F106008B55E
:1001E0004FF0500080F31188BFF34F8FBFF36F8F34
:1001F00003F0A8FB4FF0000080F31188BDE8084031
:1002000019680868B0E8F00F80F30988BFF36F8FB2
:10021000704700BF20000020EFF30580704700000A
:100220000948804709480047FEE7FEE7FEE7FEE78A
:10023000FEE7FEE7FEE7FEE7FEE7FEE704480549C6
:10024000054A064B7047000063250008ED000008D2
:1002500098150020981B0020981700209817002060
:10026000032A40F2308010F0030C00F0158011F8E2
:10027000013BBCF1020F624498BF11F801CB00F8BA
:10028000013B38BF11F8013BA2F1040298BF00F80E
:1002900001CB38BF00F8013B11F0030300F02580CB
:1002A000083AC0F0088051F8043B083A51F804CBF2
:1002B000A0E80810F5E7121D5CBF51F8043B40F8B8
:1002C000043BAFF30080D20724BF11F8013B11F8C3
:1002D00001CB48BF11F8012B24BF00F8013B00F807
:1002E00001CB48BF00F8012B704710B5203AC0F091
:1002F0000B80B1E81850203AA0E81850B1E8185027
:10030000A0E81850BFF4F5AF5FEA027C24BFB1E863
:100310001850A0E8185044BF18C918C0BDE81040D4
:100320005FEA827C24BF51F8043B40F8043B08BFDD
:100330007047D20728BF31F8023B48BF11F8012BA4
:1003400028BF20F8023B48BF00F8012B70474FF050
:1003500000020429C0F0128010F0030C00F01B8092
:10036000CCF1040CBCF1020F18BF00F8012BA8BFA0
:1003700020F8022BA1EB0C0100F00DB85FEAC17C64
:1003800024BF00F8012B00F8012B48BF00F8012B17
:1003900070474FF0000200B5134694469646203948
:1003A00022BFA0E80C50A0E80C50B1F12001BFF42E
:1003B000F7AF090728BFA0E80C5048BF0CC05DF894
:1003C00004EB890028BF40F8042B08BF704748BFE2
:1003D00020F8022B11F0804F18BF00F8012B704756
:1003E00070477047704710B500F008F8006810BDFE
:1003F00010B5044600F002F8046010BD00487047D4
:100400003815002000487047381500207546FFF762
:10041000F9FFAE4605006946534620F007008546C1
:1004200018B020B5FFF70AFFBDE820404FF00006E6
:100430004FF000074FF000084FF0000B21F00701CC
:10044000AC46ACE8C009ACE8C009ACE8C009ACE80F
:10045000C0098D46704710B50446AFF300802046B2
:10046000BDE81040FFF789BE01491820ABBEFEE78A
:1004700026000200704700BFFEE7704772B600BF5B
:10048000FEE7000070B5044600F0A6F906462546D2
:10049000681C10B104480078054400BF00F09CF9C6
:1004A000801BA842FAD370BD180000202DE9F84740
:1004B0000346002294466EE14FF0010808FA02F468
:1004C000D1F8008008EA0400A0427DD1DFF8DCA268
:1004D000D1F80480A8EB0A09D0453AD014DCB8F171
:1004E000030F50D009DCB8F1000F31D0B8F1010F83
:1004F0001CD0B8F1020F49D120E0B8F1110F18D08B
:10050000B8F1120F42D11EE0B9F5881F25D006DCE4
:10051000B9F5803F20D0B9F5801F37D11AE0B9F581
:10052000001F18D0B9F5041F30D117E0D1F80CC066
:100530002DE0D1F80C8008F1040C28E0D1F80C80F3
:1005400008F1080C23E0D1F80C8008F10C0C1EE037
:1005500000BF00BF00BF00BF00BF00BFD1F80880D0
:10056000B8F1000F02D14FF0040C0BE0D1F8088075
:10057000B8F1010F03D14FF0080C1C6102E04FF0FD
:10058000080C5C6103E04FF0000C00E000BF00BF0E
:10059000FF2801D8984601E003F104084646FF28E9
:1005A00002D84FEA820803E0A2F108084FEA88085F
:1005B0004746D6F800804FF00F0909FA07F928EAF4
:1005C00009080CFA07F900E088E048EA0908C6F8CB
:1005D0000080D1F8048008F08058B8F1805F7DD1A8
:1005E00000BFDFF8CC81D8F8188048F00108DFF8A8
:1005F000C091C9F81880C846D8F8188008F00108DA
:10060000CDF8008000BF00BF4FEAB9384FEA920929
:1006100058F829504FEA82784FEA18794FF00F08BE
:1006200008FA09F825EA0805DFF88881434502D170
:100630004FF0000816E0DFF88081434502D14FF00B
:1006400001080FE0DFF87481434502D14FF0020842
:1006500008E0DFF86C81434502D14FF0030801E068
:100660004FF004084FEA82794FEA197908FA09F83D
:1006700048EA0505DFF84C814FEA920948F829500D
:10068000D1F8048008F48018B8F5801F0AD1DFF88B
:100690003881D8F8008048EA0008DFF82C91C9F8C2
:1006A000008009E0DFF82081D8F8008028EA0008FF
:1006B000DFF81491C9F80080D1F8048008F400181C
:1006C000B8F5001F10D1DFF8008108F10408D8F850
:1006D000008048EA0008DFF8F09000E05AE009F1F5
:1006E0000409C9F800800DE0DFF8DC8008F1040897
:1006F000D8F8008028EA0008DFF8CC9009F1040956
:10070000C9F80080D1F8048008F40038B8F5003F3B
:100710000ED1DFF8B480A8F10408D8F8008048EAC8
:100720000008DFF8A490A9F10409C9F800800DE0E1
:10073000DFF89480A8F10408D8F8008028EA0008BF
:10074000DFF88490A9F10409C9F80080D1F8048089
:1007500008F48038B8F5803F0ED1DFF86C80A8F13E
:100760000808D8F8008048EA0008DFF85C90A9F192
:100770000809C9F800800DE0DFF84C80A8F10808EE
:10078000D8F8008028EA0008DFF83C90A9F10809B1
:10079000C9F80080521CD1F8008028FA02F8B8F19C
:1007A000000F7FF489AEBDE8F8870000000011104B
:1007B0000010024000080140000C01400010014000
:1007C0000014014008000140080401400AB1016121
:1007D00001E00B04036170470148006870470000A6
:1007E0001000002070B504460CB9012070BD94F8CB
:1007F0003D0028B9002084F83C00204600F092F922
:10080000242084F83D002068006820F00100216861
:1008100008602068006840F4004021680860206893
:10082000006820F400402168086000F0B1FB054634
:100830005C496068884206D85B48854201D2012045
:1008400007E0002005E05948854201D2012000E080
:100850000020012800D1C9E75548B5FBF0F6206813
:10086000406820F03F003043216848604D4960688F
:10087000884201D8701C07E04FF4967070434FF423
:100880007A71B0FBF1F0401C2168096A21F03F0148
:1008900008432168086243496068884214D8681E8A
:1008A00061684900B0FBF1F0401CC0F30B00042864
:1008B00001D204203DE0681E61684900B0FBF1F000
:1008C000401CC0F30B0034E0A06838B9681E6168B2
:1008D00001EB4101B0FBF1F0401C0AE0681E6168C9
:1008E00001EBC10202EB0111B0FBF1F0401C40F43E
:1008F0008040C0F30B0008B901201AE0A06848B995
:10090000681E616801EB4101B0FBF1F0401CC0F3CF
:100910000B000CE0681E616801EBC10202EB0111E3
:10092000B0FBF1F0401CC0F30B0040F4804040F4F9
:1009300000402168C9694CF6FF7291430843216861
:10094000C861D4E9070108432168096821F0C001A2
:10095000084321680860D4E90310084321688968C6
:1009600048F2FF329143084321688860D4E90501C9
:1009700008432168C96821F0FF0108432168C86065
:100980002068006840F001002168086000202064B1
:10099000202084F83D000020206384F83E0000BF42
:1009A00024E70000A086010080841E0000093D00AD
:1009B00040420F002DE9F8430446894616461F467B
:1009C000DDF82080FFF708FF054694F83D00202859
:1009D0007ED11923012251492046009501F0E9F802
:1009E00010B10220BDE8F88300BF94F83C00012854
:1009F00001D10220F6E7012084F83C0000BF206806
:100A0000006800F0010028B92068006840F001008B
:100A1000216808602068006820F400602168086090
:100A2000212084F83D00102084F83E00002020643E
:100A300066626785608D20853948E0622B464246B4
:100A40004946204601F022F808B10120CAE700BF5C
:100A50000020009020684069009020688069009024
:100A600000BF00BF44E02A464146204601F07DF920
:100A700050B1206C042805D12068006840F4007053
:100A8000216808600120ADE7606A0078216808618C
:100A9000606A401C6062608D401E6085208D401E33
:100AA000208520684069C0F3800070B1208D60B15E
:100AB000606A007821680861606A401C6062608D2D
:100AC000401E6085208D401E20852A46414600E05C
:100AD00022E0204601F03AF850B1206C042805D1FC
:100AE0002068006840F4007021680860012079E700
:100AF000208D0028B7D12068006840F4007021687C
:100B00000860202084F83D00002084F83E0000BFEB
:100B100084F83C0000BF65E7022063E70200100094
:100B20000000FFFF10B586B004460020029003903D
:100B30000490059016492068884226D100BF1548C8
:100B4000806940F00800134988610846806900F018
:100B50000800019000BF00BF4FF4406002901220D7
:100B600003900320059002A90B48FFF79FFC00BFEC
:100B70000848C06940F480000649C8610846C06959
:100B800000F48000019000BF00BF06B010BD00005F
:100B90000058004000100240000C0140034800686B
:100BA0000349097808440149086070471000002093
:100BB0001800002010B50848006840F010000649F1
:100BC0000860032000F0E2F8012000F007F800F0D0
:100BD0005FF8002010BD0000002002402DE9F04128
:100BE00088B004460027B846002600BF2348C069E5
:100BF00040F004002149C8610846C06900F00400C3
:100C0000019000BF00BF02A903A800F099F9069F58
:100C10001FB900F0BDF9054602E000F0B9F9450042
:100C20001748B5FBF0F0A0F1010816481649086016
:100C300040F2E7311448C160C0F80480002101612E
:100C40008160816100F062FC064696B90E4800F0B2
:100C5000D1FC06466EB91E2000F04AF8102C07D2CF
:100C6000002221461E2000F053F80848046000E0EE
:100C70000126304608B0BDE8F081000000100240B7
:100C800040420F00000800407C03002014000020B8
:100C900008B500BF1448806940F00100124988611E
:100CA0000846806900F00100009000BF00BF00BF4F
:100CB0000846C06940F08050C8610846C06900F02D
:100CC0008050009000BF00BF00220F21901E00F056
:100CD0001FF800BF0549486820F0E06040F0007050
:100CE000486000BF08BD0000001002400000014045
:100CF00001460846002809DB00F01F0301229A4044
:100D000043099B0003F1E023C3F8002100BF7047B3
:100D10002DE9F05F80460D461646002701F052FD92
:100D2000074639462A46334601F00700C0F1070A54
:100D3000BAF1040F02D94FF0040A01E0C0F1070A2A
:100D4000D14600F1040ABAF1070F02D24FF0000AAF
:100D500001E0A0F1030AD4464FF0010A0AFA09FAA9
:100D6000AAF1010A0AEA020A0AFA0CFA4FF0010B88
:100D70000BFA0CFBABF1010B0BEA030B4AEA0B0479
:100D80002146404601F026FDBDE8F09F00BF00F07F
:100D90000702064B19684FF6FF031940044B0B433B
:100DA00043EA0221014B196000BF70470CED00E0DF
:100DB0000000FA0570B504460D460CB9012070BD5F
:100DC0005A48006800F00700A8420ED25748006851
:100DD00020F007002843554908600846006800F0E5
:100DE0000700A84201D00120E9E7207800F00200C6
:100DF00002281DD1207800F00400042805D14C48B9
:100E0000406840F4E0604A494860207800F00800FB
:100E1000082805D14648406840F46050444948607D
:100E20004348406820F0F000A1680843404948600A
:100E3000207800F0010078B36068012806D13C48B2
:100E4000006800F4003090B90120B8E7606802281B
:100E500006D13748006800F0007040B90120AEE7C5
:100E60003348006800F0020008B90120A7E73048C5
:100E7000406820F00300616808432D494860FFF78F
:100E8000ABFC064609E0FFF7A7FC801B41F2883166
:100E9000884202D9032092E707E02548406800F025
:100EA0000C006168B0EB810FEDD12048006800F0C4
:100EB0000700A8420ED91D48006820F0070028430B
:100EC0001A4908600846006800F00700A84201D0EF
:100ED000012074E7207800F00400042807D11448AA
:100EE000406820F4E060E1680843114948602078D8
:100EF00000F00800082808D10D48406820F4605030
:100F0000216940EAC1000A49486000F051F80849E7
:100F10004968C1F30311074A515CC840064908609B
:100F200006480068FFF75AFE002048E7002002400C
:100F300000100240524800081C000020140000204D
:100F40000F2202600D4A526802F0030242600B4A0F
:100F5000526802F0F0028260084A526802F4E062CD
:100F6000C260064A526802F46052D2080261044A22
:100F7000126802F007020A60704700000010024089
:100F80000020024001480068704700001C0000205B
:100F900000B5FFF7F7FF04494968C1F30221034A8E
:100FA000515CC84000BD00000010024062480008CB
:100FB00070B500210022002400230020134D696831
:100FC00001F00C05F5B1042D02D0082D19D101E076
:100FD0000F4819E00F4DC1F38346AB5D01F4803536
:100FE00055B10A4D6D68C5F340450B4E725D084D15
:100FF0005D43B5FBF2F402E0084D03FB05F4204627
:1010000002E000BF024800BF00BF70BD00100240F8
:1010100000127A00404800085048000800093D00CE
:10102000F8B504460CB90120F8BD207800F00100A5
:10103000002878D0F848406800F00C0004280CD054
:10104000F548406800F00C00082811D1F2484068CB
:1010500000F48030B0F5803F0AD1EF48006800F41A
:10106000003000285FD0606800285CD10120DBE7F9
:1010700000BF6068B0F5803F06D1E748006840F4E3
:101080008030E549086028E0606858B9E2480068A7
:1010900020F48030E04908600846006820F4802091
:1010A00008601AE06068B0F5A02F0BD1DA4800683C
:1010B00040F48020D84908600846006840F4803039
:1010C00008600AE0D448006820F48030D249086003
:1010D0000846006820F48020086000BF606888B17E
:1010E000FFF77AFB054606E0FFF776FB401B642816
:1010F00001D9032098E7C848006800F400300028B0
:10110000F2D010E0FFF768FB054606E0FFF764FB4E
:10111000401B642801D9032086E7BF48006800F41B
:1011200000300028F2D1207800F00200022857D1C8
:10113000B948406800F00C0050B1B748406800F072
:101140000C00082818D1B448406800F4803098B9E1
:10115000B148006800F0020020B12069012801D0E8
:10116000012061E7AC48006820F0F800616940EABE
:10117000C100A949086033E02069E8B10120A7490E
:101180000860FFF729FB054606E0FFF725FB401B3B
:10119000022801D9032047E79F48006800F00200B9
:1011A0000028F2D09C48006820F0F800616940EA0D
:1011B000C1009949086013E0002098490860FFF7D2
:1011C0000BFB054606E0FFF707FB401B022801D991
:1011D000032029E79048006800F002000028F2D1BF
:1011E000207800F0080008282DD1A069B8B10120AE
:1011F0008B490860FFF7F0FA054606E0FFF7ECFAC6
:10120000401B022801D903200EE78348406A00F002
:1012100002000028F2D0012001F06AF813E000205B
:101220007F490860FFF7D8FA054606E0FFF7D4FAD1
:10123000401B022801D90320F6E67748406A00F0F7
:1012400002000028F2D1207800F00400042873D1B5
:1012500000277148C06900F0805070B900BF6E4827
:10126000C06940F080506C49C8610846C06900F010
:101270008050009000BF00BF01276A48006800F45A
:101280008070B0B96748006840F4807065490860B4
:10129000FFF7A2FA054606E0FFF79EFA401B642816
:1012A00001D90320C0E65F48006800F48070002880
:1012B000F2D000BFE068012806D15748006A40F02C
:1012C00001005549086227E0E06858B95248006AB1
:1012D00020F00100504908620846006A20F004002E
:1012E000086219E0E06805280BD14B48006A40F01D
:1012F0000400494908620846006A40F0010008629B
:101300000AE04548006A20F00100434908620846A7
:10131000006A20F00400086200BFE068A0B1FFF797
:101320005BFA054609E0FFF757FA401B41F28831A6
:10133000884202D9032077E622E03748006A00F0AD
:1013400002000028EFD012E0FFF746FA054608E059
:10135000FFF742FA401B41F28831884201D903204D
:1013600062E62D48006A00F002000028F0D1012F4B
:1013700005D12948C06920F080502749C86100BFC5
:10138000E069C8B32448406800F00C00082860D029
:10139000E069022848D1002020490866FFF71CFABE
:1013A000054606E0FFF718FA401B022801D9032082
:1013B0003AE61948006800F000700028F2D1206A6F
:1013C000B0F5803F07D11448406820F40030A16890
:1013D000084311494860D4E9080108430E494968A7
:1013E00021F4741108430C49486001200B49086638
:1013F000FFF7F2F9054607E03DE0FFF7EDF9401B86
:10140000022801D903200FE60348006800F00070AD
:101410000028F2D02FE000000010024000004242FD
:101420008004424200700040002014490866FFF723
:10143000D3F9054606E0FFF7CFF9401B022801D992
:101440000320F1E50E48006800F000700028F2D19A
:1014500011E0E069012800D1E6E50948466806F494
:101460008031206A814204D106F47011606A8142A1
:1014700001D00120D8E50020D6E50000000042425E
:10148000001002407047704730B502460B4600BF5F
:1014900092F83C00012801D1022030BD012082F8E1
:1014A0003C0000BF022082F83D00106844681068CC
:1014B000816824F070041868044310684460104D7B
:1014C0001068A8420BD01068B0F1804F07D00D4DC6
:1014D0001068A84203D00C4D1068A84205D121F035
:1014E00080015868014310688160012082F83D0046
:1014F00000BF002082F83C0000BF00BFCDE7000025
:10150000002C0140000400400008004010B50446D3
:101510000CB9012010BD94F83D0028B9002084F8D2
:101520003C00204600F026F8022084F83D00211DF2
:10153000206801F027F8012084F8460000BF84F8F5
:101540003E0001213F200155402001554120015519
:1015500000BF00BF012084F8420043200155442011
:1015600001554520015500BF012084F83D000020B1
:10157000D0E7000010B586B004460020029003902A
:10158000049005901849206888422BD100BF174865
:10159000806940F40060154988610846806900F45C
:1015A0000060019000BF00BF00BF0846806940F0A6
:1015B000040088610846806900F00400019000BFC3
:1015C00000BF8815029000200390049002A90848EB
:1015D000FEF76CFF002206211920FFF799FB192066
:1015E000FFF786FB06B010BD002C01400010024042
:1015F00000080140014691F83D00012801D001207A
:101600007047022081F83D000868C06840F0010082
:101610000B68D860124B086898420BD00868B0F18C
:10162000804F07D00F4B0868984203D00E4B0868D4
:1016300098420CD10868806800F00702062A0CD096
:101640000868006840F001000B68186005E0086851
:10165000006840F001000B6818600020D0E700002F
:10166000002C014000040040000800402DE9F0413A
:1016700004460D46002700BF94F83C00012802D123
:101680000220BDE8F081012084F83C0000BF022068
:1016900084F83D002068866826F0770626F47F46A9
:1016A000206886602868502833D00CDC202850D071
:1016B00004DC00284BD0102851D149E0302849D013
:1016C00040284CD139E060282DD0702807D0B0F5E3
:1016D000805F03D0B0F5005F41D10DE041E0D5E976
:1016E00002136A68206800F08FFF2068866846F061
:1016F00077062068866034E0D5E902136A682068BE
:1017000000F082FF2068806840F480402168886093
:1017100027E0EA686968206800F08AFF50212068A5
:1017200000F07DFF1DE0EA686968206800F0C8FFEE
:101730006021206800F073FF13E0EA6869682068A0
:1017400000F076FF4021206800F069FF09E000BF4B
:1017500000BF00BF2968206800F061FF01E0012799
:1017600000BF00BF012084F83D0000BF002084F8C6
:101770003C0000BF384684E770472DE9F04104463D
:101780000D461646002700BF94F83C00012802D100
:101790000220BDE8F081012084F83C0000BF96B92A
:1017A000EB68D5E90012206800F056FF20688069D8
:1017B00020F00C002168886120688069A9680843CE
:1017C0002168886141E0042E13D1EB68D5E900124D
:1017D000206800F089FF2068806920F4406021685B
:1017E000886120688069A96840EA012021688861D1
:1017F0002BE0082E12D1EB68D5E90012206800F02A
:1018000090FF2068C06920F00C002168C861206842
:10181000C069A96808432168C86116E00C2E13D17D
:10182000EB68D5E90012206800F097FF2068C069D6
:1018300020F440602168C8612068C069A96840EA56
:1018400001202168C86100E0012700BF002084F862
:101850003C0000BF38469CE710B504460CB9012097
:1018600010BD94F83D0028B9002084F83C002046C3
:1018700000F025F8022084F83D00211D206800F0CA
:1018800081FE012084F8460000BF84F83E0001215B
:101890003F200155402001554120015500BF00BFA8
:1018A000012084F842004320015544200155452081
:1018B000015500BF012084F83D000020D0E77047AB
:1018C00070B504462068C5682068066906F0020005
:1018D000022819D105F00200022815D1401F216805
:1018E0000861012020772068806900F0030018B1AA
:1018F0002046FFF741FF05E0204600F097F820461C
:1019000000F095F80020207706F00400042819D193
:1019100005F00400042815D1C043216808610220A5
:1019200020772068806900F4407018B12046FFF7E6
:1019300023FF05E0204600F079F8204600F077F814
:101940000020207706F00800082819D105F00800CB
:10195000082815D1C0432168086104202077206839
:10196000C06900F0030018B12046FFF705FF05E04D
:10197000204600F05BF8204600F059F80020207760
:1019800006F01000102819D105F01000102815D10C
:10199000C04321680861082020772068C06900F4EE
:1019A000407018B12046FFF7E7FE05E0204600F042
:1019B0003DF8204600F03BF80020207706F00100BB
:1019C00048B105F0010030B16FF0010021680861F5
:1019D000204600F02DF806F08000802809D105F09F
:1019E0008000802805D1C043216808612046FFF7A8
:1019F00049FD06F04000402809D105F0400040288C
:101A000005D1C04321680861204600F01DF806F0AA
:101A10002000202809D105F02000202805D1C0434E
:101A2000216808612046FFF72EFD70BD70477047A2
:101A300010B5044603492068884201D1FFF7AEF88B
:101A400010BD000000080040704700BFFEE70146DF
:101A500008684069C0F38020B0B16FF480600A6804
:101A6000506100200863202081F83D00002081F8AB
:101A70003E00086C40F00400086400BF002081F8BC
:101A80003C0000BF012070470020FCE72DE9F8432F
:101A900004460D4617469846E66A082E04D0012EE5
:101AA00002D016F5803F06D12068006840F48070AF
:101AB0002168086008E0206B122805D120680068C2
:101AC00040F48070216808603B4600224FF001110D
:101AD0002046CDF8008000F06CF860B12068006806
:101AE00000F48070B0F5807F02D14FF40070206464
:101AF0000320BDE8F8832069B0F5804F04D105F0DC
:101B0000FE002168086112E005F44070F02141EA0E
:101B1000E0102168086143463A460B49204600F030
:101B2000A7F808B10120E4E7E8B22168086143465C
:101B30003A460549891F204600F09AF808B101206D
:101B4000D7E70020D5E700000800010070B5044683
:101B50000D46164625E02046FFF779FF08B1012023
:101B600070BD681CE8B1FEF737FE801BA84200D8A4
:101B7000BDB920684069C0F3800090B9002020639F
:101B8000202084F83D00002084F83E00206C40F0C6
:101B90002000206400BF002084F83C0000BF01202A
:101BA000DEE720684069C0F380000028D3D0002021
:101BB000D6E72DE9F04104460D4617461E46DDF8EE
:101BC000188038E0701CA8B3FEF706FEA0EB0800F2
:101BD000B04200D876BBC5F3074001280AD120687F
:101BE0004069A9B20840A9B2884201D101200BE0A6
:101BF000002009E020688069A9B20840A9B28842A3
:101C000001D1012000E00020B84214D1002020635F
:101C1000202084F83D00002084F83E00206C40F035
:101C20002000206400BF002084F83C0000BF012099
:101C3000BDE8F081FFE7C5F3074001280AD120681D
:101C40004069A9B20840A9B2884201D101200BE045
:101C5000002009E020688069A9B20840A9B2884242
:101C600001D1012000E00020B842ABD00020DFE726
:101C70002DE9F04104460D4616461F4658E02068FF
:101C80004069C0F38020E8B12068006840F400702B
:101C9000216808606FF4806021684861002020633B
:101CA000202084F83D00002084F83E00206C40F0A5
:101CB0000400206400BF002084F83C0000BF012025
:101CC000BDE8F081701C90B3FEF786FDC01BB042EA
:101CD00000D866BBC5F3074001280AD120684069D7
:101CE000A9B20840A9B2884201D101200BE000202E
:101CF00009E020688069A9B20840A9B2884201D1F0
:101D0000012000E0002090B900202063202084F80A
:101D10003D00002084F83E00206C40F0200020644C
:101D200000BF002084F83C0000BF0120C8E7FFE7A7
:101D3000C5F3074001280AD120684069A9B20840CC
:101D4000A9B2884201D101200BE0002009E02068FF
:101D50008069A9B20840A9B2884201D1012000E0FF
:101D6000002000288BD00020AAE770B504460D465D
:101D7000164625E02046FFF76AFE08B1012070BD37
:101D8000681CE8B1FEF728FD801BA84200D8BDB949
:101D900020684069C0F3C01090B900202063202063
:101DA00084F83D00002084F83E00206C40F02000C4
:101DB000206400BF002084F83C0000BF0120DEE763
:101DC00020684069C0F3C0100028D3D00020D6E7B7
:101DD00000B59DB01C22184916A8FEF786FA00210E
:101DE00016A801F0A6F8154908601C2212491C31FA
:101DF0000FA8FEF77AFA00210FA801F09AF810490F
:101E000008601C220C49383108A8FEF76EFA002140
:101E100008A801F08EF80B4908601C2206495431CD
:101E200001A8FEF762FA002101A801F082F8064934
:101E300008601DB000BD0000D04700080000002071
:101E400004000020080000200C00002000B585B030
:101E50000020019002900390049000BF1C4880690C
:101E600040F020001A4988610846806900F020008F
:101E7000009000BF00BF00BF0846806940F0080026
:101E800088610846806900F00800009000BF00BF2C
:101E900000BF0846806940F00400886108468069F8
:101EA00000F00400009000BF00BF0022012109489B
:101EB000FEF78CFC0120019002900020039002208C
:101EC000049001A90348FEF7F1FA05B000BD000037
:101ED00000100240000C014010B50B480B4908608F
:101EE0000B484860002109488160C1604FF480417F
:101EF0000161002141618161C1610162FEF772FCF3
:101F000008B1FEF7BBFA10BD00580040E002002007
:101F1000A086010000B58BB00020079008900990C2
:101F20000A90059006900190029003900490254835
:101F3000254908604720486000212348816042F21B
:101F40000F71C1600021016141618161FFF7DEFA1B
:101F500008B1FEF793FA4FF48050079007A91A488A
:101F6000FFF784FB08B1FEF789FA1748FFF774FC06
:101F700008B1FEF783FA00200590069005A91248E3
:101F8000FFF782FA08B1FEF779FA002001900120EC
:101F90000290002003900490002201A90A48FFF754
:101FA000ECFB08B1FEF76AFA0220019002900422CD
:101FB00001A90548FFF7E1FB08B1FEF75FFA0BB096
:101FC00000BD0000002C01403403002000BFFEE7EC
:101FD00000BFFEE72DE9FE4F04460D4616461F469C
:101FE000B44213D1BD4203DD4C4805703D4607782D
:101FF000A84608E0414620460C9A00F00FF908F187
:10200000010000F0FF08B845F4DD84E0BD4213D1C3
:10201000B44203DD4148047034460678A04608E027
:10202000294640460C9A00F0F9F808F1010000F04A
:10203000FF08B045F4DD6EE0A6EB0408A7EB050948
:10204000B8F1000F01DD012000E000200121C1EB0B
:1020500040000290B9F1000F01DD012000E00020F6
:102060000121C1EB40000190A34600954FF0000A0A
:10207000B8F1000001DB014600E041420FFA81F8AF
:10208000B9F1000001DB014600E041420FFA81F99D
:10209000C8451FDDA3461AE0009AD1B20BF0FF003D
:1020A0000C9A00F0BBF80AEB09000FFA80FAB8EBC3
:1020B0004A0F08DCDDE90001084400B20090AAEBF9
:1020C00008000FFA80FA029858440FFA80FBB345D3
:1020D000E2D11FE000951AE0009AD1B20BF0FF00A8
:1020E0000C9A00F09BF80AEB08000FFA80FAB9EBA3
:1020F0004A0F07DC029858440FFA80FBAAEB09004C
:102100000FFA80FADDE90001084400B2009000985F
:10211000B842E1D100BFBDE8FE8F00008B00002077
:1021200010B5AE2000F070F8202000F06DF81020FF
:1021300000F06AF8B02000F067F8C82000F064F8FA
:10214000002000F061F8102000F05EF8402000F060
:102150005BF8812000F058F8DF2000F055F8A1204E
:1021600000F052F8A62000F04FF8A82000F04CF83C
:102170003F2000F049F8A42000F046F8D32000F0FA
:1021800043F8002000F040F8D52000F03DF8F020A2
:1021900000F03AF8D92000F037F8222000F034F8A7
:1021A000DA2000F031F8122000F02EF8DB2000F0E9
:1021B0002BF8202000F028F88D2000F025F81420BE
:1021C00000F022F800F006F800F06CF8AF2000F004
:1021D0001BF810BD10B54FF480610248FEF7B7F848
:1021E00010BD0000B410002038B504460D464FF075
:1021F000FF302B462246782100900248FEF7DAFB9A
:1022000038BD0000E002002010B5044602484470CA
:102210000221FFF7E9FF10BD88000020F0B503465A
:102220001446802B01DA402900DBF0BDDCB9CD1764
:1022300001EB5575ED101A4E06EBC515ED5C0A461F
:10224000CE1701EB5676F610A1EBC6070126BE406D
:1022500035430846CE1701EB5676F610104F07EBC4
:10226000C616F5541AE0CD1701EB5575ED100C4E5E
:1022700006EBC515ED5C0A46CE1701EB5676F61057
:10228000A1EBC6070126BE40B5430846CE1701EBB9
:102290005676F610024F07EBC616F55400BFC4E79A
:1022A000B410002010B540200F490870002418E039
:1022B00004F1B001C8B2FFF7A7FF0020FFF7A4FFA9
:1022C0001020FFF7A1FF094800EBC4118022064847
:1022D000401CFDF7C5FF81210348FFF785FF601C07
:1022E000C4B2082CE4DB10BDB4140020B4100020EC
:1022F00008B508490968C9084FF47A72B1FBF2F1D0
:102300004143009100BF00BF00994A1E009200297E
:10231000F9D108BD1C00002000BF012000F0F8FD2D
:10232000FBE7000088B000BF4FF0000A54E0FFF761
:1023300051FF504601F0B5FF594A5A4BCDE9000113
:1023400001F0DAFF80460022574B01F023FE0646DB
:1023500001F016F904460022544B01F0CDFF002293
:10236000524BCDE9020102F0C5F8CDE9040101F0BC
:1023700069FF00F0FF0B504601F093FF0646484A04
:10238000484B01F0B9FF0022474BCDE9000101F0B5
:1023900001FE804600F052FD04460022434B01F04E
:1023A000ABFF0022424BCDE9020102F0A3F8CDE9D8
:1023B000040101F047FFC0B2069000203E234022F6
:1023C000594600900698FFF705FEFFF76BFF0A20BD
:1023D00001F02AFA0AF1010ABAF15A0FA7DB4FF00D
:1023E0005A0A54E0FFF7F6FE504601F05AFF06463F
:1023F0002B4A2C4B01F080FF00222B4BCDE9000132
:1024000001F0C8FD044601F0BBF80022274BCDE9DE
:10241000020101F071FF80460022244B02F06AF8AD
:10242000CDE9040101F00EFF00F0FF0B504601F072
:1024300038FF80461A4A1B4B01F05EFF00221A4B00
:10244000CDE9000101F0A6FDCDE9020100F0F6FCA6
:1024500006460022154B01F04FFF04460022144BA4
:1024600002F048F8CDE9040101F0ECFEC0B206909C
:1024700000203E234022594600900698FFF7AAFD0F
:10248000FFF710FF0A2001F0CFF9AAF1010ABAF113
:10249000000FA7DA4FF47A7001F0C6F944E70000A4
:1024A0001F85EB51B81E09400080564000004F4088
:1024B0000000504000BF012000F02AFDFBE700BFF4
:1024C000012000F025FDFBE710B500BF502080F390
:1024D0001188BFF34F8FBFF36F8F00BF01F084FBF4
:1024E00018B14FF080500449086000BF002080F30D
:1024F000118800BF10BD000004ED00E000B58FB0F2
:10250000282105A8FDF745FF14216846FDF741FF86
:1025100001200590000406900020079001200990FA
:1025200002200C90C1030D914FF4E0110E9105A80B
:10253000FEF776FD08B1FDF7A1FF0F200090022005
:102540000190002002904FF48060039000200490DE
:1025500002216846FEF72EFC08B1FDF78FFF0FB091
:1025600000BD704710B50248FFF7AAF910BD000082
:102570003403002010B50248FFF7A2F910BD000097
:102580007C03002010B502681C4B984208D0B0F1C3
:10259000804F05D01A4B984202D01A4B984203D173
:1025A00022F070024B681A43144B984208D0B0F1E5
:1025B000804F05D0124B984202D0124B984203D163
:1025C00022F44072CB681A4322F080034C6943EA3C
:1025D000040202608B68C3620B688362074B9842F7
:1025E00001D10B69036301234361036903F0010314
:1025F0001BB1036923F00103036110BD002C0140EE
:10260000000400400008004030B50C46816821F409
:102610007F4142EA032525432943816030BD0A46B4
:10262000816821F0700142F007031943816070470F
:1026300030B50B461446026A056A25F001050562AD
:10264000816921F0F00141EA041122F00A021A43E3
:102650008161026230BD000070B50C461546026A09
:10266000066A26F0010606628169124EB04208D061
:10267000B0F1804F05D0104EB04202D00F4EB042A4
:1026800001D1012600E000261EB121F003012943FB
:1026900001E041F0010121F0F001F02606EA031605
:1026A000314322F00A0204F00A06324381610262D9
:1026B00070BD0000002C01400004004000080040F4
:1026C00030B50B461446026A056A25F0100505620E
:1026D000816921F4704141EA043122F0A00242EA0A
:1026E00003128161026230BD70B50C461546026A64
:1026F000066A26F010060662816921F4407141EAFB
:10270000052121F470414FF4704606EA0336314347
:1027100022F0A002A02606EA04163243816102627A
:1027200070BD70B50C461546026A066A26F48076BE
:102730000662C16921F00301294321F0F001F0266E
:1027400006EA0316314322F400724FF4007606EADB
:1027500004263243C161026270BD70B50C46154655
:10276000026A066A26F480560662C16921F4407145
:1027700041EA052121F470414FF4704606EA033620
:10278000314322F400524FF4005606EA0436324335
:10279000C161026270BD00BFFEE7490050EAC1207E
:1027A00018BF04204A0D18BF40F0010040F2FF722C
:1027B000B2EB515F08BF40F00200012808BF0520BE
:1027C0007047000002480068C0F302207047000014
:1027D0000CED00E010B5002804DB0A07130E054AD3
:1027E000135406E00A07140E034A00F00F031B1FE0
:1027F000D45410BD00E400E018ED00E02DE9F74FDF
:10280000144694B00021C4E902111599079121F0F2
:102810000045C9498D4206DC1599C4E9000117B08D
:102820000020BDE8F08FC549DFF814A3A9423CDDC4
:102830000799C44E0029C44FC44A1599534619DD5F
:1028400001F064FE554506D0C14AC24B01F05EFE60
:10285000C4E900010AE04FF0D352BE4B01F056FE2E
:1028600032463B4601F052FEC4E9000117B0012098
:10287000BDE8F08F01F0DEFA554506D0B44AB54BFD
:1028800001F0D8FAC4E900010AE04FF0D352B14B8D
:1028900001F0D0FA32463B4601F0CCFAC4E900011F
:1028A00017B04FF0FF30BDE8F08FAB49A942159942
:1028B00078DB21F0004183468846A84AA84B01F006
:1028C0001BFD0022A74B01F0B5FA01F0BBFC0990FB
:1028D00001F0E7FC06460F469C4A534601F00CFD0A
:1028E00043465A4601F006FE80468A46984A994B6E
:1028F0003046394601F000FD2A0D01250B92424673
:10290000534601F0F7FD032DC4E9000139D00B98BF
:10291000C1F30A51401A05EB45111139814230DAF1
:102920009148C346784400EB0510CDF80CA00C90FC
:10293000D0E900233046394601F0DEFC02460B4662
:10294000049106905846039901F0E0FD80468A46BE
:1029500002460B465846039901F0D8FD049B069A9F
:1029600001F0D4FD83460C9803913946D0E9022347
:10297000304601F0C1FC5A46039B01F0C7FD6D1CB7
:10298000BDE707980028A2BF099817B0BDE8F08FEF
:10299000616881F000416160099817B04042BDE86C
:1029A000F08FFFE784461598C1F31301C0F30A5076
:1029B000A0F2F5304FEA601800F01F06C6F12000C3
:1029C000139000200690079041F4801E05206D466C
:1029D00076B1664A08EB00017A4452F8213002EBE6
:1029E0008101B3404A68139922FA01F1194305E0C5
:1029F0005F4908EB0002794451F82210A1FB0E2731
:102A0000A1FB0C131A449A4234BF0123002303EBA9
:102A1000070A05EB8003D3E901B70F448F4234BFA7
:102A20000121002193448B4411B1934502D903E065
:102A3000934501D2012100E00021C3E901B75144CF
:102A400045F82010011EA0F10100C1DC0298059F8D
:102A500000F10050800F12900298DDE903568000CB
:102A600001F01FFC834628460D9101F031FC6FF008
:102A70001D0201F067FECDE90E01304601F028FC91
:102A80006FF03D0201F05EFE80468A46384601F056
:102A90001FFC6FF05D0201F055FE074642465346AB
:102AA000119101F0C7F9DDE90E2301F0C3F95A468F
:102AB0000D9B01F0BFF900250E465A4628460D9B96
:102AC00001F024FDDDE90E2301F020FD42465346CE
:102AD00001F01CFD3A46119B01F00CFDDFF898A0B7
:102AE000244A534601F008FC07468846234A244BF3
:102AF0003146284601F000FC3A46434601F09AF977
:102B0000074688464FF0A84253463146284601F012
:102B1000F3FB3A46434601F08DF9159A12F0004F47
:102B200004D0129A81F0004152421292C4E900018D
:102B3000129817B0BDE8F08FFB21E93F7CD9024025
:102B4000FB21F93F7370032E8A19A33B0000405408
:102B50003163621A61B4D03DFB21394183C8C96D2C
:102B6000305FE43F0000E03F781F0000F41E0000EB
:102B7000D61E0000182D4454FB21F93D3326A61122
:102B8000460B113C2DE9FF4D21F0004807460C464D
:102B9000B8F1795F08DA01F055FB002801BF002089
:102BA000324904B0BDE8F08D3A4623461046194636
:102BB00001F0A2FB054602462D480E460B460621B3
:102BC000784400F05DF82A46334601F095FBDDE9D4
:102BD000022382468B463846214601F08DFB04468F
:102BE0000F4652465B462846314601F085FB224699
:102BF0003B4601F08BFC07468A464FF0FF322846E1
:102C0000314601F09FFD1B4A90450ADA3A46534689
:102C100001F07CFC04B00022BDE8F04D134B01F044
:102C200069BC154A4245A8BFA8F500154FF000043D
:102C3000B8BF124D22462B4601F068FC0646884676
:102C400022462B460020094901F060FC04460D464F
:102C50003A4653463046414601F058FC04B02246FD
:102C60002B46BDE8F04D01F045BC00000000F03FF0
:102C7000AC1C00003333D33F0000E93F0000D23FDB
:102C80002DE9F0414F1E00EBC7010446D1E90001D8
:102C900015461E4637F006020DD02A46334601F08F
:102CA0002BFB7F1E04EBC703D3E9002301F0C2F81E
:102CB00037F00602F1D1022F25D0042F13D0062FB2
:102CC00018BFBDE8F0812A46334601F015FBD4E970
:102CD0000A2301F0AFF82A46334601F00DFBD4E990
:102CE000082301F0A7F82A46334601F005FBD4E992
:102CF000062301F09FF82A46334601F0FDFAD4E995
:102D0000042301F097F82A46334601F0F5FAD4E996
:102D1000022301F08FF82A46334601F0EDFAD4E998
:102D20000023BDE8F04101F085B800002DE9FF4D1A
:102D3000054621F0004084B00C46B0F1795F0BDA13
:102D40002846FFF72AFD042808BF00F06FF8284640
:102D500008B02146BDE8F08D2A460B46104601F02A
:102D6000CBFA06460F462A46234601F0C5FA8046AE
:102D700026488A4632463B4605217844FFF780FFC5
:102D800083461098029160B3214A224B4046514637
:102D900001F0B2FACDE900015A4640465146029B85
:102DA00001F0AAFA82468846DDE906014FF0FF32BB
:102DB00001F0C8FC5246434601F0A8FB32463B46B0
:102DC00001F09AFADDE9062301F0A0FBDDE900231A
:102DD00001F09CFB08B02A462346BDE8F04D01F007
:102DE00089BB0B465A463046394601F085FA084AF7
:102DF000084B01F01FF84246534601F07DFA08B037
:102E00002A462346BDE8F04D01F014B8EA1B000045
:102E1000495555555555C5BF012201F093BC0022B7
:102E200013461046114601F0B5B80000024A0020D2
:102E3000110701F087BC000001FDFFFF00B5244B26
:102E400021F0004287B09A42DCBF0022134629DD00
:102E5000204B9A4208D140B94FF00100FDF7C8FA63
:102E6000FFF7DDFF07B000BD03DBFFF7D5FF07B0BD
:102E700000BD02AAFFF7C2FC10F0030104BF0DF170
:102E8000080C9CE80F000DD0012001290ED002296A
:102E900014D00DF1080C00909CE80F00FFF746FFDE
:102EA00007B000BDFFF76EFE07B000BD0DF1080CC6
:102EB00000909CE80F00FFF739FF05E00DF1080CCA
:102EC0009CE80F00FFF75EFE07B081F0004100BDF7
:102ED000FB21E93F0000F07FFDF76CFEFFF70EFBE2
:102EE000FEF7B4FFFEF7F8FFFFF714F83220FDF706
:102EF000C9FAFFF715F9FEF76BFF00F015F800BFF0
:102F0000FEE701460020842901D0CA1C1044704706
:102F100070B5044625460DB1294600E0012108465A
:102F200000F082FC002070BD10B500F0ABFC00206A
:102F300010BD7FB504460D46606998B1A06988B19F
:102F4000B4F90800FFF7DDFF0646D4E90510CDE926
:102F5000006102902B462269D4E9001000F0E6FDE2
:102F6000039013E0B4F90800FFF7CBFF064603A86F
:102F7000CDE90060238A9AB22B46D4E9001000F014
:102F8000A3FD012802D0002004B070BD0398FBE728
:102F90002DE9F04105460E461C4807681C480068AC
:102FA000001D00F03DFB50B91948006890F82C1046
:102FB0000120884017490968814316480160681C50
:102FC00038B936B112480168091D134800F072FB88
:102FD0001AE07C190E4800684460BC4207D20C48D5
:102FE0000168091D0D48006800F04AFB0CE0084824
:102FF0000168091D0A48006800F042FB09480068A2
:10300000844201D207480460BDE8F081340000200A
:103010002000002038000020A0040020280000200C
:10302000240000205000002010B5044600F04EFBA4
:1030300023480068401C224908602248006840B9C3
:10304000204804600846006801280DD100F03EF9D0
:103050000AE01D48006838B91A480068C06AE16A89
:10306000884201D81748046018480068401C174976
:10307000086094F82C10012088401549096808431D
:1030800013490860E16A01EB8101124A02EB8100F9
:10309000211D00F00FFB00F043FB0B48006868B1F6
:1030A00008480068C06AE16A884207D24FF0805041
:1030B00009490860BFF34F8FBFF36F8F10BD000049
:1030C00030000020200000203C0000204C000020A8
:1030D00038000020C403002004ED00E010B516E025
:1030E00000F0F4FA0C48C068C468201D00F098FA9B
:1030F0000A480068401E0949086009480068401EE7
:103100000749086000F00CFB204600F00BF804486B
:1031100000680028E4D110BD8C040020300000209D
:103120002C00002010B5044694F8510030B9206BF3
:1031300000F014FB204600F011FB1AE094F8510057
:10314000012803D1204600F009FB12E094F8510059
:10315000022801D1012000E0002050B900BF50201A
:1031600080F31188BFF34F8FBFF36F8F00BF00BF95
:10317000FEE710BD30B54FF44063174800F0070478
:103180002CB1C01D20F00700134C041B1B1B024672
:10319000124C22600024114D6C60D018083820F0C9
:1031A00007000F4C206000240D4D2D686C600C4D05
:1031B0002D682C601146441A4C60094C24680C6040
:1031C000084D4C682C60084D4C682C604FF0004452
:1031D000064D2C6030BD0000B40400205C000020CF
:1031E000640000206C0000206800002078000020AF
:1031F00000BFFFF773FF064800680128F9D94FF0B8
:10320000805004490860BFF34F8FBFF36F8FF0E722
:10321000C403002004ED00E02DE9FF5F81460E4667
:103220009246DDE90E7B109CAAF10100216B01EBB7
:10323000800828F0070808F0070008B9012000E01E
:10324000002050B900BF502080F31188BFF34F8F8A
:10325000BFF36F8F00BF00BFFEE786B1002507E018
:10326000715D04F134004155705D00B902E06D1CE0
:10327000102DF5D300BF00214320015502E00020AE
:1032800084F83400072F00D30627E7626764002024
:10329000A064201D00F0F1F904F1180000F0EDF930
:1032A0002461C7F10700A06164620020E06484F833
:1032B000500049464046039A00F050F92060BBF1A7
:1032C000000F01D0CBF80040BDE8FF9F10B50024EF
:1032D00007E004EB84010F4A02EB810000F0C0F923
:1032E000641C072CF5D30C4800F0BAF90B4800F029
:1032F000B7F90B4800F0B4F90A4800F0B1F90A48F0
:1033000000F0AEF90448094908600448084908601B
:1033100010BD0000C40300205004002064040020FD
:10332000780400208C040020A00400202400002049
:103330002800002010B50146164800E00068036828
:103340008B42FBD30246436813448B4204D143684B
:103350004C682344436001460A464B6813440468A2
:10336000A34211D10C4C03682468A34208D04B68D7
:103370000468646823444B6003681B680B6005E0C5
:10338000054B1B680B6001E003680B60884200D0AE
:10339000016010BD5C000020640000200A4909683B
:1033A000096809B9012100E0002121B14FF0FF3186
:1033B000064A116006E004490968C968C868034AFA
:1033C0004168116070470000240000205000002078
:1033D0000E480068401C08B9012000E0002050B9E8
:1033E00000BF502080F31188BFF34F8FBFF36F8F62
:1033F00000BF00BFFEE700BF502080F31188BFF37D
:103400004F8FBFF36F8F00BF00BFFEE77C0000202F
:103410002DE9F04104464FF0000800F08BFA4948CE
:10342000006808B9FFF7A6FE47480068204000285A
:1034300070D1D4B1083404F00700B0B104F0070033
:10344000C0F10800044404F0070008B9012000E0BE
:10345000002050B900BF502080F31188BFF34F8F78
:10346000BFF36F8F00BF00BFFEE7002C52D037487C
:10347000006884424ED8364E3046056801E02E463C
:103480002D686868A04202D228680028F7D12D482C
:10349000006885423ED0306800F108082868306036
:1034A0006868001B102819D92F1907F0070008B900
:1034B000012000E0002050B900BF502080F31188A7
:1034C000BFF34F8FBFF36F8F00BF00BFFEE7686889
:1034D000001B78606C603846FFF72CFF1B4968685A
:1034E0000968081A194908600846006819490968F6
:1034F000884203D215480068164908601249686876
:103500000968084368600020286013480068401C70
:103510001149086000F00CFC08F0070008B9012010
:1035200000E0002050B900BF502080F31188BFF3A5
:103530004F8FBFF36F8F00BF00BFFEE74046BDE86F
:10354000F081000064000020780000206800002066
:103550005C0000206C00002070000020001F4FF075
:1035600080730360001F21F001030360001F034B01
:10357000036014380260203870470000D13300081F
:1035800000B5254B21F0004287B09A4203DC0022AF
:10359000134600922BE0214B9A4208D140B94FF0DC
:1035A0000100FCF725FFFFF73AFC07B000BD03DB85
:1035B000FFF732FC07B000BD02AAFFF71FF910F0B9
:1035C00003014FF001000DD0012914D002291AD0B7
:1035D0000DF1080C9CE80F00FFF7D4FA07B081F05A
:1035E000004100BD0DF1080C00909CE80F00FFF7B2
:1035F0009DFB07B000BD0DF1080C9CE80F00FFF724
:10360000C1FA07B000BD0DF1080C00909CE80F0056
:10361000FFF78CFBE2E70000FB21E93F0000F07FB1
:1036200001460A69D1E901309860D1E90103586087
:103630005068884201D18868506000200861106895
:10364000401E106010687047034B0360034B0B6013
:1036500080231360704700008C000020E0000020F1
:1036600000F1080141604FF0FF31816000F1080175
:10367000C160016100210160704700210161704754
:1036800010B502460B685C1C0CB9106907E002F12A
:10369000080000E04068446824689C42FAD9446805
:1036A0004C604C68A160886041600A611468641CC9
:1036B000146010BD42684A6093688B6093685960DB
:1036C0009160086103685B1C0360704700BF502075
:1036D00080F31188BFF34F8FBFF36F8F00BF0E4889
:1036E0000068401C0C49086008460068012812D197
:1036F0000A480068C0B208B9012000E0002050B9B3
:1037000000BF502080F31188BFF34F8FBFF36F8F3E
:1037100000BF00BFFEE770477C00002004ED00E022
:103720000D48006850B900BF502080F31188BFF3E6
:103730004F8FBFF36F8F00BF00BFFEE706480068E2
:10374000401E054908600846006820B9002080F343
:10375000118800BF00BF70477C00002070B506468E
:103760003546002E44D0083D2C4622496068096841
:10377000084008B1012000E0002050B900BF5020EF
:1037800080F31188BFF34F8FBFF36F8F00BF00BF6F
:10379000FEE7206808B9012000E0002050B900BF12
:1037A000502080F31188BFF34F8FBFF36F8F00BF9E
:1037B00000BFFEE70F49606809680840C0B1206893
:1037C000B0B90C49606809688843606000F0B2F8DD
:1037D0000949606809680844074908602046FFF7FE
:1037E000A9FD06480068401C0449086000F0A0FAE2
:1037F00070BD0000780000206800002074000020E8
:1038000000204FF0E02108618861064800684FF40D
:103810007A71B0FBF1F0401E4FF0E02148610720C3
:10382000086170471C00002070B504460025D4B123
:103830001248006808B9012000E0002050B900BF1C
:10384000502080F31188BFF34F8FBFF36F8F00BFFD
:1038500000BFFEE700F06EF800212046FFF798FB5E
:1038600000F066FA05463DB94FF080500449086003
:10387000BFF34F8FBFF36F8F70BD00005800002063
:1038800004ED00E010B586B000200590049003AA76
:1038900004A905A8FFF7D8FE0022DDE904101346AD
:1038A000CDE9002102901CA11D48039A00F03EF9C9
:1038B0001C4908600846006808B1012400E00024A3
:1038C000012C15D100BF502080F31188BFF34F8F1A
:1038D000BFF36F8F00BF4FF0FF3013490860012026
:1038E0001249086000201249086000F071F810E0E9
:1038F000601C08B1012000E0002050B900BF50203A
:1039000080F31188BFF34F8FBFF36F8F00BF00BFED
:10391000FEE706B010BD000049444C450000000021
:10392000F131000854000020500000203C0000202D
:103930003400002002480068401C014908607047BC
:10394000580000201D48006818B101201C4908607B
:1039500032E000201A4908601A480068B0FA80F086
:10396000C0F11F0101EB8100174A52F8200008B195
:10397000012000E0002050B900BF502080F31188E2
:10398000BFF34F8FBFF36F8F00BF00BFFEE701EBA8
:1039900081020D4B03EB820042685268426000F1E5
:1039A00008024368934202D142685268426042680A
:1039B000D268064B1A6000BF704700005800002014
:1039C0004400002038000020C40300202000002014
:1039D0001CB53849084600780190FF200A4610704F
:1039E0000846007800909DF8000000F0F0009DF877
:1039F0000020904201D1012000E0002050B900BF1A
:103A0000502080F31188BFF34F8FBFF36F8F00BF3B
:103A100000BFFEE79DF8000000F05000264A10703D
:103A20000720264A106009E024480068401E234A07
:103A300010609DF800004006000E00909DF8000008
:103A400000F080008028EFD01C480068C0F107001B
:103A5000042801D1012000E0002050B900BF50200F
:103A600080F31188BFF34F8FBFF36F8F00BF00BF8C
:103A7000FEE7124800680002104A106010460088F5
:103A800000F4E06010600B4A019810700C48006868
:103A900040F470000A4908600846006840F0704031
:103AA0000860FFF7ADFE002006490860FCF77EFBCA
:103AB00000201CBD00E400E0800000208400002005
:103AC00020ED00E07C0000202DE9FF4F85B080460E
:103AD00089461746DDE912ABB800FFF799FC0646A8
:103AE00056B15420FFF794FC04460CB1266304E061
:103AF0003046FFF733FE00E000248CB1002084F84C
:103B00005100CDE900ABCDE902403A464946404676
:103B1000089BFFF781FB2046FFF786FA012501E0AD
:103B20004FF0FF35284609B0BDE8F08F2DE9F04F82
:103B300085B00746884691469A46DDE90EB6109C48
:103B40000EB1012000E0002050B900BF502080F3EA
:103B50001188BFF34F8FBFF36F8F00BF00BFFEE729
:103B60000CB1012000E0002050B900BF502080F3CC
:103B70001188BFF34F8FBFF36F8F00BF00BFFEE709
:103B8000542003900398542801D1012000E0002024
:103B900050B900BF502080F31188BFF34F8FBFF39F
:103BA0006F8F00BF00BFFEE700BFB4B1AEB12546C6
:103BB0002C462E63022085F85100002004A95346AC
:103BC0004A46CDE900B1CDE9025041463846FFF7FB
:103BD00023FB2846FFF728FA01E000200490049810
:103BE00005B0BDE8F08F00002DE9F0414FF000086E
:103BF0004448006800287CD143480068451C42487E
:103C0000056015BB41480068006808B9012000E064
:103C1000002050B900BF502080F31188BFF34F8FB0
:103C2000BFF36F8F00BF00BFFEE738480768384812
:103C30000068364908603648076036480068401C0E
:103C400034490860FFF7AAFB00BF3348006885428B
:103C50003CD300BF2D480068006808B9012000E08F
:103C6000002020B14FF0FF302B4908602DE027489D
:103C70000068C068C4686668B54202D2264806601B
:103C800023E0201DFFF7CCFCA06A18B104F1180056
:103C9000FFF7C6FC94F82C10012088401F490968E2
:103CA00008431E490860E16A01EB81011C4A02EBEE
:103CB0008100211DFFF7FEFC1A49E06A0968C96A04
:103CC0008842C7D34FF00108C4E700BF1548006819
:103CD000C06A00EB8000124951F82000012801D988
:103CE0004FF001081048006808B14FF0010805E0E6
:103CF000FFE70E480068401C0C4908604046BDE8DC
:103D0000F081000058000020340000202400002032
:103D1000280000204800002050000020380000202B
:103D2000C4030020200000204400002040000020A8
:103D300070B5002400263648006850B900BF5020F6
:103D400080F31188BFF34F8FBFF36F8F00BF00BFA9
:103D5000FEE7FFF7BBFC2E480068401E2C490860B8
:103D60000846006800284FD12A48006800284BD038
:103D700024E02948C068C46804F11800FFF750FC2B
:103D8000201DFFF74DFC94F82C100120884023499A
:103D90000968084321490860E16A01EB8101204A72
:103DA00002EB8100211DFFF785FC1E49E06A0968CE
:103DB000C96A884202D301201B490860164800687E
:103DC00008B9012000E000200028D2D00CB1FFF794
:103DD000E5FA1648056865B100BFFFF705FF10B1A9
:103DE0000120114908606D1E002DF6D100200F49F9
:103DF00008600D48006838B1012630070C4908609A
:103E0000BFF34F8FBFF36F8FFFF78AFC304670BD53
:103E100058000020300000207804002038000020E6
:103E2000C4030020200000204400002040000020A7
:103E300004ED00E010B591EA030F48BF83F00043A2
:103E400000F16C83841A71EB030C05D2121943EB59
:103E50000C03001B61EB0C01DFF824E14FEA115465
:103E6000A4EB135C1EEA430F18BF9EEA445F73D0B5
:103E700023EA0E03DCF1200E21EA045143F48013FF
:103E800032D322FA0CFE10EB0E0023FA0CFE41EBAB
:103E90000E01CCF1200E03FA0EFE10EB0E0051F1D4
:103EA0000001B1F5801FCCF1200E32D201EB04519C
:103EB00012FA0EF2BDE8104058BF7047401C38BFE0
:103EC0005FEA420218BF7047002814BF20F00100CB
:103ED00041F100014FEA410313F5001F38BF70475D
:103EE000A1F1C04100F000BB012A43EB0302ACF199
:103EF000200CDCF11F0E32BF4FF0000E23FA0CF342
:103F000010EB030041EB0451B4EB115FD0D0A1EBF7
:103F1000045101F5801149085FEA300001EB0451BA
:103F20000ED350F1000038BF12FA0EFE08D1BDE8E2
:103F30001040C9E7401C38BF5FEA4202CAD1C3E75C
:103F4000BDE810404FEA410313F5001F38BF70472A
:103F5000A1F1C04100F0C8BA9EEA445F08D011EA5E
:103F60005E0FBDE8104004BF01F000410020704723
:103F7000BDE8104070B500F069FA00BF64FBBE3EBA
:103F80000000E0FF02494FF0000000F0A9BB00BFB5
:103F90000000F87F2DE9C04130B4DFF8A0C23CEA50
:103FA000111418BF3CEA131400F0EC8081EA0305F9
:103FB0001CEA111444EAD57418BF1CEA131500F06A
:103FC000C780A4EB05044FF0004545EAC12145EA4E
:103FD000C32341EA505143EA525304F17F7499429A
:103FE00004F500344FEAC0204FEAC22208BF9042D5
:103FF00000F09C804FEA13650FF24016765D4FEAA1
:10400000134506FB05F7C7F1807706FB07F74FEA74
:10401000D737A7FB03687642C8F58038A7FB06CEE2
:1040200038BFA8F1010807FB08E64FF0000EA6FB19
:10403000028CE6FB03CEDCF1000CCEF1004E38BF63
:10404000AEF1010EA6FB0C584FF000074FF0000533
:10405000E6FB0E87A1FB08C6A0FB07CE16EB0E06FB
:1040600045F10005E1FB076515F1E04E7EBFA4F5C3
:1040700080345FEA46066D4116F1800745F1000580
:104080004FEA17274FEA066647EA0567A6F1DE46BC
:10409000B6F1805F4FEA15251FD9384624F0010C90
:1040A00005EBC471BCF1FE6F01EB0C1102D8F0BC42
:1040B000BDE8008124425CBF01F5801E9EEAC47FFA
:1040C00002D4F0BCBDE80081244238D4F0BCA1F198
:1040D000C041BDE8004100F007BA4FEAD22242EAEF
:1040E00043524FEAD323A7FB02864FEAD02040EA8F
:1040F000415007FB03661EEA0E0F4FEAD12105FB74
:10410000026658BFA6EB0056B6EB00564FEA520EB9
:104110004EEAC37E18EB0E0E56EB530EBDD518EBD0
:1041200002085E417F1C55F10005B6E74FF480158B
:104130004FF000074FF000064FF00008ADE7F0BC6D
:104140004FF0000001F1C04101F00041BDE80081E5
:1041500011EA0C1F0CEA131500D00CE013EA0C1F37
:1041600000F025804FF00000F0BC81EA030101F06F
:104170000041BDE80081F0BCBDE8004181EA0301D7
:1041800000F0B2B9F0BCBDE8004170B500F05EF9D6
:10419000097EFC3E00F007B881EA03014FF0000001
:1041A00001F00041704781EA030100F09DB9F0BCC5
:1041B000BDE800414FF0000021497047FFFDFBF9C9
:1041C000F7F5F4F2F0EEEDEBE9E8E6E4E3E1E0DE4A
:1041D000DDDBDAD8D7D5D4D3D1D0CFCDCCCBCAC8BC
:1041E000C7C6C5C4C2C1C0BFBEBDBCBBBAB9B8B7E3
:1041F000B6B5B4B3B2B1B0AFAEADACABAAA9A8A8D6
:10420000A7A6A5A4A3A3A2A1A09F9F9E9D9C9C9BA3
:104210009A9999989797969595949393929191904E
:104220008F8F8E8E8D8C8C8B8B8A898988888787DF
:104230008685858484838382828181800000FF0754
:104240000000F87F4FEA41034FEA5353A3F5806320
:10425000D3F11E03C8BFD3F1210C0CDD4FF0004297
:1042600042EAC12242EA505232FA03FC8CEAE17C73
:10427000ACEBE1707047102BC4BF0020704703F512
:10428000787CBCF1FF3F04D06FF0004282EA21004D
:10429000704770B500F0DAF849922480002070472A
:1042A000F2E710F0004248BF4042B0FA80F310FA43
:1042B00003F10AD0C3F11D0303F580634FEA4150B7
:1042C00002EB035202EBD12170474FF00000704720
:1042D000B0FA80F310FA03F10AD0C3F11D0303F51D
:1042E00080634FEA41504FEA035202EBD1217047FD
:1042F0004FF0000070470000DFF848C170B51CEABD
:10430000111E1EBF1CEA13159EEA0C0F95EA0C0F36
:1043100000F06F8081EA030423EA4C134EEAD47E56
:1043200021EA4C1141F4801143F48013AE44A1FB07
:10433000024CA0FB0365AEF17F7E361955EB0C05F0
:10434000A1FB034C4CF10003A0FB021C16EB0C0676
:10435000654153F10003094218BF46F0010613F40A
:10436000007F0BD14FEA03314FEA0530340341EAB5
:10437000155140EA16506FF003020AE04FEAC321DC
:104380004FEAC520F40241EA555140EA56506FF019
:10439000020202EB2E4201EB025585EACE710AD0F1
:1043A0005FEA440C18BF24F0004450F1000041F1D2
:1043B000000120EAD47040F2FE7C624500D270BD5C
:1043C000A84214BF4FF080444FF04044002E08BF75
:1043D0000024BEF1806FA8BFA1F1C041BDE87040CC
:1043E00080F282804FF0000001F1C04101F00041F5
:1043F00070479EEA0C0F0CEA131518BF95EA0C0FD4
:1044000006D04FF0000081EA030E0EF0004170BDAF
:1044100000F01CF88900013E00F007B800F009B870
:104420004FEA430C5FEA5C5C08D081EA030100F0CC
:104430005BB84FEA410C5FEA5C5CF6D14FF00000DC
:10444000014970470000FF070000F87F0EF1020EDF
:104450002EF0030E5EF8046B364205D4012A43EBBE
:10446000030515F5001F12D8012841EB010C1CF5BE
:10447000001F0CD80ED14FEAD17C15F5001F0CEBB4
:104480004C0C0CF1020C08BF4CEBD37C04E04FF059
:10449000080C01E04FEAD37C0CEB4C0526FA05F63C
:1044A00006F00706B6F1040C06D20EEB860CBDE84A
:1044B00070404CF0010C6047DFE80CF0090B020281
:1044C0004FF000414FF00000A1F5002170BD1946EA
:1044D0001046012851EB010418BFD4F5001484BF25
:1044E000002001F0004170BD0808A0F500114FEA5E
:1044F0003101704791EA030F10B581F000413FF59B
:10450000A1AC83F0004300F009B8000010B591EAB7
:10451000030F48BF83F000433FF594AC841A71EB5E
:10452000030C07D212198CF0004C43EB0C03001B58
:1045300061EB0C01DFF8A4E14FEA1154A4EB135C2A
:104540001EEA430F18BF9EEA445F00F0B08023EAE2
:104550006E03524221EA0451C3EB6E0338BF5B1E67
:10456000DCF1200E25D322FA0CFE10EB0E0043FAEC
:104570000CFE41EB0E01CCF1200E03FA0EFE10EB07
:104580000E0051F10001CCF1200E29D412FA0EF2E6
:1045900001EB0451BDE8104058BF7047401C1CBFE0
:1045A000B2F1004F704700280CBF491C20F00100F9
:1045B000704712EB020E43EB030218BF4FF0010EDF
:1045C0004EEA4202ACF1200CDCF11E0E54D943FA43
:1045D0000CFE10EB0E0051F1FF31CCF11E0ED5D5C3
:1045E0000EF1010E12FA0EFE404141EB010101EB0A
:1045F000445C5FEA5C5C10D910EBDE7001EB0451A7
:1046000038BFBEF1004FBDE8104018BF704700280A
:104610000CBF491C20F00100704730D24FEAD42C67
:1046200011F5001124F400641BD0B1FA81F20B3AA9
:10463000A41AA41ED2F12003914030FA03F31943C7
:10464000904001EBCC71002C01EB0451BDE810400F
:10465000A8BF704701F1C0414FF0000001F00041D8
:104660007047B0FA80F310FA03F100D110BDE41ADC
:10467000173C4805C90AE4E701EB045110BD491095
:1046800001EB0451BDE810404FEA300002E04FF06A
:10469000000170474A0008BF0042F8D0B2F5001F81
:1046A00028BF704701F000414FF0000070479EEABC
:1046B000445F07D011EA5E0FBDE8104004BF00213F
:1046C00000207047BDE8104070B5FFF7BFFE00BF87
:1046D00040DFF63E83F00041104670470000E0FFE7
:1046E0000CF00F03092B08BF082000F059800A2B9B
:1046F0000BD0082B18BF704708BF1CF0400F0AD022
:104700004FF000004FF0000170471CF0400F18BF41
:104710004FF0004070471CF0100F08D020F070439D
:1047200000F07F4242EAD3014FEA4370704700F045
:10473000604021F07F4242EA000201F07F4040EAFF
:10474000727070474FF0FF0C4CF4E06C1CEA115390
:104750001CBF9CEA030C9445C2BFDA4201EB025134
:104760007047002B0DD0BCF1000F0FD0002A01F0D4
:104770000041A4BF41F0E04141F07F614FF00000F3
:10478000704701F000414FF00000704750EA0133DC
:104790004FF09B0C18BF4CF0806C7FF4F3AB70476C
:1047A0001CF4801F11D01CF4E02F03D06FEACC3131
:1047B000490070474FF04050EFF3008222F0704202
:1047C00042EA000282F3008870474FF00000704711
:1047D000B449000819230008000000000000000090
:1047E0008000000000000000000000009049000868
:1047F00025230008FDFF00000000000080000000ED
:1048000000000000000000009C490008B5240008DA
:10481000FDFF00000000000080000000000000001C
:1048200000000000A8490008BF240008FDFF0000A8
:1048300000000000800000000000000000000000F8
:1048400002030405060708090A0B0C0D0E0F1010D1
:10485000010200000000000000000102030406073E
:10486000080900000000010203040000000000002D
:104870004C5555555555A53F7751C1166CC156BF7E
:104880009015CB19A001FA3EAD529C804F7E92BE8E
:10489000C4B1B4BD9EEE213ED43888BEE9FAA8BDAD
:1048A00000004054FB21F93F3163621A61B4D03DEE
:1048B0000000601A61B4D03D7370032E8A19A33BC7
:1048C0000000002E8A19A33BC14920259A837B3919
:1048D00000000000000000006E83F9A22915444E7C
:1048E000D15727FCC0DD34F5999562DB4190433CFC
:1048F000AB6351FE61C5BBDE3A6E24B7E0D24D42D8
:10490000EA2E49061C92D1091CEB1DFE3EA729B1D7
:10491000F53582E88444BB2E26709CE9417E5FB465
:1049200039D69139F43953838B5F849C3B28F9BD88
:10493000FF97F81F0F9805DE8B112FEF1F6D0A5A96
:10494000CF7E366DB709CB27663F464F2DEA5F9E77
:10495000C7BA27757BF1E5EBF739073DEA92528A32
:10496000B15FFB6B085D8D1FA6F810111111813F1F
:10497000D561C119A0012ABF7DFEB157E31DC73E15
:10498000EB9C2B8AE6E55ABE7CD5CF5A3AD9E53D59
:104990006D795461736B3032000000006D795461A1
:1049A000736B3033000000006D795461736B3034E9
:1049B0000000000064656661756C745461736B007F
:1049C000E0490008000000208C00000028010008D9
:1049D0006C4A00088C0000200C1B000044010008F9
:1049E00000000000000000000000000000000000C7
:1049F00000000000100000000100000000127A001A
:104A000000000000000000000000000000000000A6
:104A10000000000000000000000000000000000096
:104A20000000000000000000000000000000000086
:104A30000000000000000000000000000000000076
:104A40000000000000000000000000000000000066
:104A5000000000000000000000000000AAAAAAAAAE
:0C4A60000000000000000000000000004A
:04000005080000ED02
:00000001FF
