:020000040800F2
:10000000A04C0024010400086B320008992D000860
:100010006932000827090008DF42000800000000DC
:100020000000000000000000000000004103000884
:1000300029090008000000009D0300086D38000831
:100040001F0400081F0400081F0400081F04000804
:100050001F0400081F0400082B09000831090008CC
:10006000370900081F0400081F0400081F040008C7
:100070001F0400081F0400081F0400081F040008D4
:100080001F0400081F0400081F0400081F040008C4
:100090001F0400081F0400081F0400081F040008B4
:1000A0001F0400081F0400081F0400081F040008A4
:1000B0001F0400081F0400081F0400081F04000894
:1000C0001F0400081F0400081F0400081F04000884
:1000D0001F0400081F0400081F0400081F04000874
:1000E0001F0400081F040008000000001F0400088F
:1000F0001F0400081F0400081F0400081F04000854
:100100001F0400081F0400081F0400081F04000843
:100110001F0400081F0400081F040008393A0008E3
:100120001F0400081F0400081F0400081F04000823
:100130001F0400081F0400081F0400081F04000813
:1001400000000000000000000000000000000000AF
:100150001F0400081F0400081F0400081F040008F3
:100160001F0400081F0400081F0400081F040008E3
:100170001F0400081F0400081F04000800000000FE
:100180001F0400081F0400081F0400081F040008C3
:100190001F0400081F0400081F0400081F040008B3
:1001A0001F0400081F0400081F0400081F040008A3
:1001B0001F0400081F0400081F0400081F04000893
:1001C0001F0400081F0400081F0400081F04000883
:1001D0001F0400081F0400081F0400081F04000873
:1001E0001F0400081F0400081F0400081F04000863
:1001F0001F0400081F0400081F0400081F04000853
:100200001F0400081F0400081F0400081F04000842
:100210001F0400081F0400081F0400081F04000832
:100220001F0400081F0400081F040008000000004D
:100230001F0400081F040008000000001F0400083D
:100240001F0400081F0400081F0400081F04000802
:100250001F0400081F0400081F0400081F040008F2
:100260001F0400081F0400081F0400081F040008E2
:100270001F0400081F0400081F04000800000000FD
:100280001F0400081F0400081F04000800000000ED
:10029000000000001F04000800F002F800F041F820
:1002A0000AA090E8000C82448344AAF10107DA45D1
:1002B00001D100F036F8AFF2090EBAE80F0013F0E2
:1002C000010F18BFFB1A43F001031847B05100009B
:1002D000D0510000103A24BF78C878C1FAD852072C
:1002E00024BF30C830C144BF04680C6070470000B0
:1002F0000023002400250026103A28BF78C1FBD82F
:10030000520728BF30C148BF0B607047642900F016
:100310005B81002070471FB504F03CFE1FBD10B587
:1003200010BD00F0C6FA1146FFF7F5FF04F03BF8E8
:1003300000F0E4FA03B4FFF7F2FF03BC00F0ECFABC
:100340002C4B19680868B0E8F04F80F30988BFF3B8
:100350006F8F4FF0000080F311887047000000009D
:1003600008480068006880F308884FF0000080F3B8
:10037000148862B661B6BFF34F8FBFF36F8F00DF93
:1003800000BF00BF08ED00E0DFF80C00016841F499
:1003900070010160704700BF88ED00E0EFF3098055
:1003A000BFF36F8F134B1A681EF0100F08BF20EDBC
:1003B000108A20E9F04F106009B44FF0500080F32C
:1003C0001188BFF34F8FBFF36F8F04F01BFC4FF00A
:1003D000000080F3118809BC19680868B0E8F04F84
:1003E0001EF0100F08BFB0EC108A80F30988BFF32D
:1003F0006F8F70472C000024EFF3058070470000DA
:100400000A4880470A4880470A480047FEE7FEE757
:10041000FEE7FEE7FEE7FEE7FEE7FEE7FEE7FEE7B4
:1004200005480649064A074B704700004109000885
:100430004139000899020008A0460024A04C00247D
:10044000A0480024A048002453EA020C00F0698070
:100450002DE9F04B4FF00006002B1FBFB3FA83F5D8
:1004600003FA05F424FA05F65E4012BF1643B2FA09
:1004700082F502FA05F4C5F120051EBF22FA05FC3B
:1004800044EA0C04203556EA044C4FEA144418BFE1
:10049000641C4FF000084FF00009904271EB030C10
:1004A00039D3002919BFB1FA81F701FA07F6B0FA7A
:1004B00080F700FA07F6C7F120071EBF20FA07FCF5
:1004C00046EA0C062037B6FBF4FCA7EB0507103F05
:1004D00007F01F0BCBF120060CFA0BFB2CFA06F6EB
:1004E00044BFB3460026202FA4BF5E464FF0000B4A
:1004F0005BEA060C08BF4FF0010B19EB0B09ABFBD5
:10050000027C48EB0608C01B06FB02CC0BFB03CCAD
:1005100071EB0C01C1E70B46024641464846BDE877
:10052000F08B13B54FF000004FF00001AFF30080E7
:10053000BDE81C40704700000FB41CB5074B06AA6D
:100540007B4469460090059800F09BF900206946BD
:1005500000F0AAF91CBC5DF814FB00006503000064
:100560002DE9F0410E460446002020622046E16855
:10057000884730B3252805D0D4E901219047206A67
:10058000401CF2E7E168204600278847050018D0A4
:10059000A5F14100192802D820354FF400673246F2
:1005A000294620462760FFF7B1FE40B1012804D05C
:1005B000F61D26F007060836D8E7361DD6E728468A
:1005C000DAE7206ABDE8F0812DE9F0410646002413
:1005D00010687529314616A510D0AFF300800028A9
:1005E00002DA404213A507E031688A0701D512A557
:1005F00002E0490704D511A5012401E0AFF3008012
:1006000000210A2206F1240709E0B0FBF2FCB0FB4E
:10061000F2F302FB1C00303078541846491C0028C5
:10062000F3D123462A463046BDE8F04100F0CBB86E
:10063000000000002D0000002B0000002000000042
:10064000032A40F2308010F0030C00F0158011F8FE
:10065000013BBCF1020F624498BF11F801CB00F8D6
:10066000013B38BF11F8013BA2F1040298BF00F82A
:1006700001CB38BF00F8013B11F0030300F02580E7
:10068000083AC0F0088051F8043B083A51F804CB0E
:10069000A0E80810F5E7121D5CBF51F8043B40F8D4
:1006A000043BAFF30080D20724BF11F8013B11F8DF
:1006B00001CB48BF11F8012B24BF00F8013B00F823
:1006C00001CB48BF00F8012B704710B5203AC0F0AD
:1006D0000B80B1E81850203AA0E81850B1E8185043
:1006E000A0E81850BFF4F5AF5FEA027C24BFB1E880
:1006F0001850A0E8185044BF18C918C0BDE81040F1
:100700005FEA827C24BF51F8043B40F8043B08BFF9
:100710007047D20728BF31F8023B48BF11F8012BC0
:1007200028BF20F8023B48BF00F8012B70474FF06C
:1007300000020429C0F0128010F0030C00F01B80AE
:10074000CCF1040CBCF1020F18BF00F8012BA8BFBC
:1007500020F8022BA1EB0C0100F00DB85FEAC17C80
:1007600024BF00F8012B00F8012B48BF00F8012B33
:1007700070474FF0000200B5134694469646203964
:1007800022BFA0E80C50A0E80C50B1F12001BFF44A
:10079000F7AF090728BFA0E80C5048BF0CC05DF8B0
:1007A00004EB890028BF40F8042B08BF704748BFFE
:1007B00020F8022B11F0804F18BF00F8012B704772
:1007C0007047704770472DE9F0470D4699469246AD
:1007D000044600F124080168880604D5E06921F088
:1007E0001001216000E00120A84201DD471B00E06C
:1007F0000027A1697A1902EB0900081AA061207884
:10080000C00602D42046AFF30080002608E0D4E9F9
:1008100001211AF806009047206A401C761C2062CD
:100820004E45F4DB2078C0060AD52046AFF30080A1
:1008300006E0D4E9012130209047206A401C206264
:10084000381EA7F10107F4DC07E0D4E9012118F80C
:1008500005009047206A401C2062281EA5F1010572
:10086000F3DC2046AFF300802078000602D502209A
:10087000BDE8F0870120FBE701694A1C02610878A6
:10088000704700B58FB0CDE90131002105910549D0
:100890007944CDE9031011466846FFF761FE0FB0B9
:1008A00000BD0000E5FFFFFF0A6802F8010B0A60C7
:1008B0007047754600F02CF8AE4605006946534671
:1008C00020F00700854618B020B5FFF7A9FDBDE868
:1008D00020404FF000064FF000074FF000084FF0A7
:1008E000000B21F00701AC46ACE8C009ACE8C00938
:1008F000ACE8C009ACE8C0098D46704710B50446A5
:10090000AFF300802046BDE81040FFF713BD0000A4
:10091000004870474046002401491820ABBEFEE75E
:10092000260002007047FEE77047012000F068B81B
:10093000022000F065B8042000F062B872B6FEE74D
:10094000054805490839026842F002020260086859
:100950008004FCD5704700000C48025870B504466E
:1009600000F07CF90546601C02D00448007804447D
:1009700000F074F9401BA042FAD370BD10000024AF
:1009800070B51D4D0121284600F05CF91B4C18B1D3
:100990000BE00120FFF7E2FF0121284600F052F9A9
:1009A0000028F6D020880A3020800221284600F056
:1009B00049F918B10DE00120FFF7D0FF02212846C8
:1009C00000F040F90028F6D020880A2801D30A3820
:1009D00020800421284600F035F918B170BD0120AF
:1009E000FFF7BCFF0421284600F02CF90028F6D0C0
:1009F0000020208070BD0000000802580200002482
:100A00004FF0B04110B5D1F88820024203D0C1F8B0
:100A10008800FFF7B5FF10BD2DE9F84F03247D4D89
:100A200000234FF001094FF0B04B4FF00F0AE9E0FF
:100A300009FA03F73A4076D00E7906F00306012E44
:100A400001D0022E18D1D0F808C04FEA430ECE686C
:100A500004FA0EF82CEA080C06FA0EF646EA0C0622
:100A60008660D0F804C00E792CEA070CC6F3001695
:100A70009E4046EA0C0646600E79F643B6070BD058
:100A8000C6684FEA43088F6804FA08FC26EA0C0699
:100A900007FA08F73743C7600E7906F00306022EFF
:100AA00012D1DE080F694FEA437C00EB8606B6469A
:100AB000366A4FEADC6C0AFA0CF807FA0CF726EAF9
:100AC00008063743CEF820700F7906684FEA4308CE
:100AD00007F0030704FA08FC07FA08F726EA0C06F1
:100AE000374307604E6816F4403F1CD04A4E3768C3
:100AF00047F00207376036689F0706F00206009647
:100B000023F0030606F1B046B6463F0FD6F8086458
:100B1000DFF808810AFA07FC404526EA0C0603D1F3
:100B20004FF0000C41E06CE0DFF8F4C0604502D10A
:100B30004FF0010C39E0DFF8ECC0604502D14FF016
:100B4000020C32E0DFF8E0C0604502D14FF0030C48
:100B50002BE0DFF8D8C0604502D14FF0040C24E050
:100B6000DFF8CCC0604502D14FF0050C1DE0DFF886
:100B7000C4C0604502D14FF0060C16E0DFF8B8C0E3
:100B8000604502D14FF0070C0FE0DFF8B0C06045C0
:100B900002D14FF0080C08E0DFF8A4C0604502D194
:100BA0004FF0090C01E04FF00A0C0CFA07FC4CEA7C
:100BB000060CCEF808C44F68DBF80060FF0226EA96
:100BC000020600D516435F46CBF80060D1F804C09A
:100BD000DBF804605FEA8C2C26EA020600D5164397
:100BE0007E606E684F6826EA0206BF0300D5164392
:100BF0006E602E684F6826EA0206FF0300D5164392
:100C00002E605B1C0A6832FA03F67FF411AFBDE870
:100C1000F88F000080000058F44402580000025889
:100C20000004025800080258000C02580010025834
:100C30000014025800180258001C025800200258E4
:100C4000002402580069084000D0012070470000CD
:100C500001480068000C70470010005C0148806883
:100C6000704700001000002430B590F84120202A81
:100C700024D190F84020012A20D0012380F8403070
:100C8000242280F84120202300240268156825F0E2
:100C9000010515600268156825F480551560026825
:100CA00015680D43156001680A6842F001020A6088
:100CB00080F8413080F84040002030BD022030BD37
:100CC00030B590F84120202A22D190F84020012A06
:100CD0001ED0012380F84030242280F841202024B7
:100CE00000250268136823F001031360026813688B
:100CF00023F4706343EA0121116001680A6842F03D
:100D000001020A6080F8414080F84050002030BD68
:100D1000022030BD70B5040004D094F841000025D5
:100D200010B106E0012070BD204684F8405000F06C
:100D3000F7F8242084F841002068016821F00101BF
:100D40000160D4E9001020F07060086120688168BB
:100D500021F400418160E06821680128A06830D05A
:100D600040F404408860E0680228206841682BD085
:100D700021F40061416020682021154A4368134333
:100D800043602068C26822F40042C26054F8106BCD
:100D90000DCC104340EA0320F06054F81C3CD4E929
:100DA00000021043186054F81C0D026842F0010262
:100DB0000260656484F84110256384F84250002085
:100DC00070BD40F40040CDE741F40061D2E700007F
:100DD000008000022DE9FF4F81B0044690F84100E9
:100DE00099469046DDF838B020287BD194F8400031
:100DF000012877D0012084F84000FFF72FFF01225F
:100E0000064619230090D103204602F077F8002807
:100E100053D1414921220025C4F82480102084F8B0
:100E20004120FF2784F842006564A4F82A90608D71
:100E30004FF080794FF0007A6563FF2802D94B4666
:100E4000278505E0608D534620850004000C10D0F6
:100E5000226898F800009062606A401C6062608DB1
:100E6000401E6085208D401E2085401C0091C2B22E
:100E700001E0002200910299204602F027F813E0D9
:100E800002F0A6F8C8B9606A216800788862606AD2
:100E9000401C6062608D401E6085208D401E80B2C7
:100EA0002085618D01B160B1608D324659460028C0
:100EB0002046E5D102F060F8E0B1012005B0BDE8C0
:100EC000F08F00225B4680212046009602F016F843
:100ED0000028F2D1608DFF2805D927853A464B4678
:100EE0000095C8E716E0608D53462085009594F87C
:100EF0002820C0E721682020084AC86121684B6883
:100F000013404B6084F8410084F84250002084F87C
:100F10004050D3E70220D1E70020008000E800FE27
:100F200010B5B6B00446142130A8FFF722FCC0214A
:100F30006846FFF71EFC1949206888422BD1002023
:100F4000219008210446CDE90010684600F0C8FA57
:100F500008B1FFF7F3FC1248016841F0020101609B
:100F6000006830AB122100F0020035904FF4407061
:100F7000042283E813000B4830A9CDE93342FFF780
:100F80004BFD07480830016841F40011016000681A
:100F900000F40010359036B010BD00000054004041
:100FA000E044025800040258024881680278114463
:100FB0008160704710000024032010B500F0FEF897
:100FC00001F006F90F4A104914681368C4F30322AC
:100FD00003F00F038A5CC95C02F01F0201F01F01DD
:100FE000D0400A4A20FA01F1116009490860012045
:100FF00000F010F808B1012010BD00F09FF80020AB
:1010000010BD000018440258E44F000820000024DE
:101010001C00002410B5102804468AB02CD20022EF
:101020000146372000F0AAF8372000F099F8174859
:1010300004601748016841F020010160006809A9B7
:1010400000F020000890684601F04EF80598B0B115
:1010500001F09AF840000F4900220F4CB0FBF1F16B
:101060000E4840F2E7330460C0E90332491EC0E98C
:10107000011201F00DFC28B101200AB010BD01F0F1
:1010800083F8E8E7054801F035FCF6E71400002492
:10109000E844025840420F00001400406404002459
:1010A000154BF0B5083B427813491A600B680A1FCC
:1010B00023F001030B6043681360057BC67A827AD4
:1010C000437B2D07847B45EA0665C77B90F809C002
:1010D000067A90F800E045EAC24040EA834040EAE0
:1010E000444040EA074040EA0C2040EA460040EA1B
:1010F0000E000860F0BD0000A0ED00E0BFF35F8FC0
:10110000044800210368034A23F4803303607032EB
:101110001160704724ED00E0074A40F001000649E5
:1011200070321060086840F480300860BFF34F8F61
:10113000BFF36F8F7047000024ED00E0074882B0D6
:10114000016841F002010160006800220F2100F0F7
:1011500002000090901E02B000F010B8F444025853
:10116000002809DB410900F01F028900012001F17C
:10117000E0219040C1F80001704700000E4BF0B430
:101180001B680D46C3F30223C3F10706042E00D9E2
:101190000426191D072901D2002300E0DB1E0124CB
:1011A00004FA06F19C40491E2940641E99401440EF
:1011B0002143F0BC03F0E6B80CED00E0064900F076
:1011C000070210B54FF6FF040868044B204040EAC0
:1011D00002201843086010BD0CED00E00000FA0585
:1011E000134970B50A68D243520705D5096801F062
:1011F0000701814213D118E00A6822F00702024376
:101200000A60FFF72BFD0A4D4FF47A760446083D3D
:1012100007E000BFFFF722FD001BB04201D901200B
:1012200070BD2868C0438004F4D4002070BD000065
:101230000C48025810B500F085FF05490968054AB9
:10124000C1F30211515C01F01F01C84010BD000044
:1012500020440258E44F0008494930B5484C0B1D62
:101260000A68143409681D68246802F00303C5F392
:101270000012C1F30531C4F3CC04002914FB02F2BF
:1012800000EE102AF8EE400A75D03F4A9FED3D1A55
:10129000B7EE000A6BB1DFED3D1A012B01D0022B36
:1012A00064D002EE101A1168F8EE422A81EEA22AEA
:1012B00021E0334C283C23689B0612D5344B24682C
:1012C00001EE901A1168C4F3C104F8EE612AE340FC
:1012D00001EE903AC1F30801F8EE611A81EEA22AFC
:1012E0000BE001EE901ADFED2B2A00BFF8EE611A39
:1012F000116882EEA12AC1F3080101EE901A11686B
:10130000F8EE611A40EE811A71EE800A62EE200A50
:10131000C1F3462101EE101AB8EE411A31EE001A5F
:10132000C0EE811ABCEEE11A80ED001A1168C1F31B
:10133000064101EE101AB8EE411A31EE001AC0EE65
:10134000811ABCEEE11A80ED011A1168C1F3066141
:1013500001EE101AB8EE411A31EE000A80EE801A42
:10136000BCEEC10A80ED020A30BD04E001EE901A25
:10137000DFED092ABAE70021016041608160F3E7EF
:101380002844025800000039384402580024744AA6
:101390000090D0030024744C20BCBE4B494930B5AA
:1013A000484C0B1D0A681C3409681D68246802F04B
:1013B0000303C5F30022C1F30551C4F3CC04002993
:1013C00014FB02F200EE102AF8EE400A75D03F4AF4
:1013D0009FED3D1AB7EE000A6BB1DFED3D1A012B10
:1013E00001D0022B64D002EE101A1168F8EE422AE6
:1013F00081EEA22A21E0334C283C23689B0612D5BB
:10140000344B246801EE901A1168C4F3C104F8EE5D
:10141000612AE34001EE903AC1F30801F8EE611A47
:1014200081EEA22A0BE001EE901ADFED2B2A00BF1D
:10143000F8EE611A116882EEA12AC1F3080101EEEB
:10144000901A1168F8EE611A40EE811A71EE800A66
:1014500062EE200AC1F3462101EE101AB8EE411ADD
:1014600031EE001AC0EE811ABCEEE11A80ED001ACE
:101470001168C1F3064101EE101AB8EE411A31EEBF
:10148000001AC0EE811ABCEEE11A80ED011A116853
:10149000C1F3066101EE101AB8EE411A31EE000AEE
:1014A00080EE801ABCEEC10A80ED020A30BD04E075
:1014B00001EE901ADFED092ABAE7002101604160D0
:1014C0008160F3E728440258000000394044025884
:1014D0000024744A0090D0030024744C20BCBE4BFE
:1014E0002DE9FE4F0546DFF8E48350F8081B002481
:1014F000F64FC943019005F12800264608F124085B
:10150000009008011DD4A86E50B1B0F5801F0CD01A
:10151000B0F5001F0ED0B0F5401F1ED001240FE023
:10152000386840F40030386017E00198022102F07A
:101530004DF803E00098022102F0D8F804000CD026
:1015400026462888C043C00523D4A86D05281ED28E
:10155000DFE800F00C11161B1B00AA6ED8F8001073
:1015600021F440111143C8F80010EAE7386840F44C
:101570000030386009E00198002102F027F803E00C
:101580000098002102F0B2F8044674B100E0012492
:1015900026462888C043800528D4E86D80281ED0C0
:1015A0000CDC90B140280ED114E0AA6DD8F80010E0
:1015B00021F007011143C8F80010EAE7C02813D052
:1015C000B0F5807F10D001240FE0386840F400307F
:1015D000386009E00198002101F0F8FF03E000986D
:1015E000002102F083F804469CB126462888DFF8E3
:1015F000DC92C04309F12C0940052CD4D5F8A80091
:10160000B0F5800F20D00DDCA0B1B0F5001F0FD1D8
:1016100015E0EA6DD8F8001021F4E0711143C8F824
:101620000010E3E7B0F5C00F13D0B0F5000F10D0F5
:1016300001240FE0386840F40030386009E0019878
:10164000002101F0C3FF03E00098002102F04EF8F2
:1016500004467CB126462888C04300052DD4D5F821
:10166000AC00B0F1007F21D00EDCA8B1B0F1807FDA
:1016700010D116E0D5F8A820D9F8001021F46001A7
:101680001143C9F80010E6E7B0F1407F13D0B0F184
:10169000806F10D001240FE0386840F400303860CB
:1016A00009E00198002101F091FF03E0009800217A
:1016B00002F01CF8044674B126462868C043800135
:1016C0001FD4E86CD8B110280FD0202812D03028B1
:1016D00015D0012414E0D5F8AC20D9F8001021F081
:1016E000E0611143C9F80010E7E7386840F40030C2
:1016F000386004E00198022101F068FF044674B1EB
:1017000026462888C043C0042BD4286EB0F5005F5D
:1017100020D00DDCA0B1B0F5805F0FD115E06B4893
:10172000EA6C2030016821F0300111430160E8E7E4
:10173000B0F5405F13D0B0F5804F10D001240FE01A
:10174000386840F40030386009E00198002101F069
:101750003DFF03E00098002101F0C8FF04468CB172
:1017600026462888C043800429D4686EB0F5403FDF
:1017700023D010DC08B3B0F5803F14D0B0F5003FA3
:101780000FD115E02A6ED8F8001021F4E041114382
:10179000C8F80010E5E7B0F5802F0ED0B0F5A02F07
:1017A0000BD001240AE00198012101F00FFF03E0B2
:1017B0000098012101F09AFF044694B1264628883A
:1017C000C04340042AD4D5F8B000B0F1405F23D024
:1017D00010DC08B3B0F1805F14D0B0F1005F0FD11E
:1017E00015E06A6ED8F8001021F4E0211143C8F822
:1017F0000010E4E7B0F1804F0ED0B0F1A04F0BD055
:1018000001240AE00198012101F0E0FE03E00098C4
:10181000012101F06BFF044674B126462888C043BD
:1018200000041FD4286FD8B1B0F1805F0ED0B0F1A2
:10183000005F10D0012414E0D5F8B020D9F80010D2
:1018400021F0E0411143C9F80010E7E7386840F49F
:101850000030386004E00198012101F0B7FE044631
:1018600074B126462868C043C0011ED4A86CD0B10C
:1018700001280ED0022811D0032814D0012413E02F
:101880002A6FD8F8001021F040511143C8F8001019
:10189000E8E7386840F40030386004E0019802213D
:1018A00001F094FE0446ACB126462868DFF81CB06F
:1018B000C043ABF11C0B400252D40548016841F40F
:1018C00080710160FFF7CAF9824611E02C4402588A
:1018D00000480258FA48AA6C016821F0030111433C
:1018E0000160E2E7FFF7BAF9A0EB0A00642835D8F7
:1018F000F4480068C005F5D58CBBDFF8C4A3B5F883
:10190000B4100AF1240ADAF8000001F4407100F47E
:101910004070884211D0DAF80010DAF8002021F483
:10192000407142F48032CAF80020DAF8002022F434
:101930008032CAF80020CAF80010D5F8B400B0F51B
:10194000807F1AD1FFF78AF9029012E0FFF786F93B
:101950000299411A41F2883081420AD9032426466D
:101960002878DFF85CA3C0430AF1080AC00721D039
:101970003CE0DAF800008007E8D5D5F8B410C1F3F0
:101980000120032858460DD0016821F47C510160E4
:10199000B5F8B420DAF80010C2F30B021143CAF80C
:1019A0000010DDE7C84A036802EA111223F47C51F3
:1019B0001143ECE7E86F182816D005DCA0B1082821
:1019C00008D0102804D10AE020280DD028280BD0F8
:1019D00001240AE00198012101F0F8FD03E00098DC
:1019E000012101F083FE044664B126462878C043F5
:1019F00080071ED4A86F062819D2DFE800F0160C65
:101A000011161616EA6FDAF8001021F038011143AA
:101A1000CAF80010EAE70198012101F0D7FD03E0C0
:101A20000098012101F062FE04467CB100E001242F
:101A300026462878C04340071FD4D5F894000628CE
:101A400019D2DFE800F0160C11161616AA6FDAF894
:101A5000001021F007011143CAF80010E9E70198CE
:101A6000012101F0B3FD03E00098012101F03EFEE9
:101A70000446A4B100E0012426462878C04380062D
:101A80002BD4D5F89000B0F1405F24D011DC10B316
:101A9000B0F1805F15D0B0F1005F10D116E0D5F83D
:101AA0009420D9F8001021F007011143C9F8001063
:101AB000E3E7B0F1804F0ED0B0F1A04F0BD001247E
:101AC0000AE00198002101F081FD03E00098022165
:101AD00001F00CFE044694B126462878C043400627
:101AE0002BD4D5F89C00B0F5406F24D011DC10B396
:101AF000B0F5806F15D0B0F5006F10D116E0D5F8B5
:101B00009020DAF8001021F0E0411143CAF80010EB
:101B1000E3E7B0F5805F0ED0B0F5A05F0BD00124F5
:101B20000AE00198002101F051FD03E00098022134
:101B300001F0DCFD044694B126462878C043000637
:101B40002BD4D5F8A000B0F5C04F24D011DC10B3D1
:101B5000B0F5005F15D0B0F5804F10D116E0D5F884
:101B60009C20D9F8001021F4E0511143C9F800106D
:101B7000E3E7B0F5004F0ED0B0F5204F0BD00124B5
:101B80000AE00198002101F021FD03E00098022104
:101B900001F0ACFD044654B126462878C043000746
:101BA0001ED4D5F88400B0F5805F0AD00FE0D5F8D8
:101BB000A020D9F8001021F460411143C9F80010A9
:101BC000EBE70098022101F091FD00B10126D5F864
:101BD0008420DAF8001021F440511143CAF80010B3
:101BE0002878C043C00613D4D5F89800B0F5807F9C
:101BF00005D10098022101F079FD00B10126D5F848
:101C00009820D9F8001021F440711143C9F8001050
:101C10002868C043000316D4D5F8A40038B1B0F545
:101C2000803F09D0B0F5003F0BD001240AE00198B5
:101C3000002101F0CBFC03E00098022101F056FDE9
:101C400004468CB126462868C043400322D4D5F808
:101C50008800B0F5801F11D0B0F5001F13D0B0F58B
:101C6000401F15D0012414E0D5F8A420D9F80010A5
:101C700021F440311143C9F80010E4E7386840F41A
:101C80000030386004E00098012101F02FFD044687
:101C90005CB126462868C043C00323D4286DA8B190
:101CA000B0F5803F17D001241BE0D5F88820DAF882
:101CB000001021F440111143CAF80010EAE70000B7
:101CC0004C44025800480258CFFFFF00386840F4E7
:101CD0000030386004E00198022101F077FC0446EE
:101CE000E4B126462868C043800005D4009802214C
:101CF00001F0FCFC00B101262868C04380031BD41E
:101D0000D5F88000B0B1B0F5807F0FD0B0F5007F7E
:101D100010D0B0F5407F0DD001240CE05A482A6D58
:101D2000016821F4803111430160DBE7386840F439
:101D300000303860ECB326462868C043C00207D4A0
:101D40006A6FD8F8001021F000411143C8F8001064
:101D50002868C043C00008D4D5F8B820DBF80010CC
:101D600021F480411143CBF800102868C043800261
:101D700007D4EA6ED8F8001021F080711143C8F83A
:101D800000102868C04340000CD4DBF8001021F498
:101D90000041CBF80010DBF80010D5F8BC2011434F
:101DA000CBF800102868C04308D437486A6D016832
:101DB00000E018E021F04051114301602868C04361
:101DC000000208D4D5F88C20DAF8001021F4400184
:101DD0001143CAF8001028790024C04300F0010024
:101DE00020430AD00FE0D5F88020DAF8001021F463
:101DF00040711143CAF800109EE70198002101F0DC
:101E0000E5FB00B106462879C04300F002002043FC
:101E100005D10198012101F0D9FB00B106462879CE
:101E2000C04300F00400204305D10198022101F0D5
:101E3000CDFB00B106462879C04300F008002043DE
:101E400005D10098002101F051FC00B10646287927
:101E5000C04300F01000204305D10098012101F09B
:101E600045FC00B106462879C04300F02000044339
:101E700004D10098022101F039FC00B916B101200B
:101E8000BDE8FE8F0020FBE74C4402582DE9F05FCF
:101E900004000F467ED0DFF83882D8F8000000F04A
:101EA0000F00B8420CD2D8F8001021F00F013943CE
:101EB000C8F80010D8F8000000F00F00B84269D14F
:101EC0002078844D40070AD52069296801F0700107
:101ED000884204D9296821F07001014329602078E3
:101EE0007C4E361D00070AD56069316801F070012B
:101EF000884204D9316821F07001014331602078B3
:101F0000C0060AD5A069316801F4E061884204D9AD
:101F1000316821F4E061014331602078DFF8B4B129
:101F200080060BF1080B0CD5E1695846DBF8002060
:101F300002F07002914204D9026822F070020A4352
:101F40000260207880070AD5E068296801F00F0157
:101F5000884204D9296821F00F01014329602078C3
:101F6000C0073ED05B49A2682868183920F4706029
:101F7000104328606068022818D0032819D0096827
:101F8000012819D0490700294ADADFF848A1AAF147
:101F9000080A00E044E0DAF8002022F007020243D9
:101FA000CAF80020FEF75AFE814612E0096889034C
:101FB000E9E709688901E6E7C905E4E7FEF74EFEAF
:101FC000A0EB090141F28830814202D90320BDE82B
:101FD000F09F6168DAF8000000F03800B0EBC10F44
:101FE000ECD1207880070AD5E068296801F00F015C
:101FF000884204D2296821F00F0101432960D8F8F2
:102000000010404601F00F01B9420BD9016821F0E0
:102010000F0139430160006800F00F00B84201D0A1
:102020000120D4E7207840070AD52069296801F00B
:102030007001884204D2296821F0700101432960AF
:10204000207800070AD56069316801F07001884284
:1020500004D2316821F07001014331602078C0065C
:102060000AD5A069316801F4E061884204D2316880
:1020700021F4E06101433160207880060CD5E169EC
:102080005846DBF8002002F07002914204D2026848
:1020900022F070020A43026000F09AF80E492A68A2
:1020A0002B68C2F3032203F00F038A5CC95C02F0C1
:1020B0001F0201F01F01D040084A20FA01F111600F
:1020C0000749086007480068BDE8F05FFEF7A2BF57
:1020D0000020005218440258E44F00082000002459
:1020E0001C0000241400002470B5144C3F22026030
:1020F000124A24680832131D114D04F0070444608D
:1021000016681C1D06F470668660166806F00F06D9
:10211000C660126802F0700202611A6802F0700272
:1021200042611A6802F4E0628261226802F0700281
:10213000C261286800F00F00086070BD10440258AA
:102140000020005230B500F043F80B4A0B490C4B0D
:1021500015681468C5F3032204F00F048A5C095D56
:1021600002F01F0201F01F01D040064A20FA01F1DF
:1021700019601060084630BD18440258E44F00084A
:10218000200000241C00002400B5FFF7DBFF0549F8
:102190000968054AC1F30211515C01F01F01C840F2
:1021A00000BD00001C440258E44F000800B5FFF7D2
:1021B000C9FF05490968054AC1F30221515C01F0D4
:1021C0001F01C84000BD00001C440258E44F000835
:1021D000454970B545480968434B103B11F038023A
:1021E00008D00111082A03D0102A0BD0182A0BD0CE
:1021F000084670BD19688906FBD51968C1F3C1018D
:10220000C84070BD3A4870BD3749374D18310C1D74
:1022100024350A68096826682D6802F0030406F070
:102220000102C1F30511C5F3CC0515FB02F200EE66
:10223000102AB8EE400AE9B32F4ADFED2E0AB7EEB6
:10224000001A6CB1DFED2D1A012C01D0022C43D005
:1022500002EE101A1068F8EE422A81EEA22A1EE061
:102260001C68A40611D51B6801EE901A1168C3F30F
:10227000C103F8EE612AD84001EE900AC1F30800CC
:10228000F8EE611A81EEA22A0BE001EE901ADFED62
:102290001C2A00BFF8EE611A106882EEA12AC0F372
:1022A000080001EE900AF8EE611A40EE201A31EEB5
:1022B000810A00E015E022EE000A1068C0F3462013
:1022C000401C00EE900AF8EE600A80EE201ABCEE88
:1022D000C10A10EE100A70BD01EE901ADFED092A56
:1022E000D8E7002070BD0000104402580090D003D1
:1022F00040787D0100000039304402580024744ABF
:102300000024744C20BCBE4B2DE9F05F04007DD04E
:10231000FF4F2078FE4D1837DFF8F493103DC007CB
:1023200048D0D9F80000396800F03800102815D0DE
:10233000182803D101F0030002280FD06068B0F51F
:10234000803F12D010B1B0F5A02F18D0286820F42B
:1023500080302860286820F4802009E02868800305
:1023600028D560680028D2D024E0286840F4803066
:102370002860606888B1FEF771FC064609E02868AD
:1023800040F480202860F0E7FEF768FC801B64289A
:102390006FD828688003F7D50CE0FEF75FFC06468F
:1023A00005E000BFFEF75AFC801B6428F0D82868BF
:1023B0008003F7D4207841F20308D54E0C3E800705
:1023C00069D5D9F80000396810F038000ED0182807
:1023D00001D188070AD0E06890B3296821F019017B
:1023E00001432960FEF73AFC824631E02868400745
:1023F00002D5E06800288AD0E168286820F019003A
:1024000008432860FEF72AFC824607E0DFE000BFB1
:10241000FEF724FCA0EB0A000228B9D82868400780
:10242000F6D500BFFEF714FC40451BD820694028B4
:1024300012D0316821F47C3141EA003030602AE06A
:1024400018E000BFFEF70AFCA0EB0A0002289FD8A4
:1024500028684007F6D5E5E7306820F47C3040F482
:102460000030EBE7207C316821F0FE4141EA00605A
:10247000E4E70DE1286820F001002860FEF7EEFB9C
:10248000824605E0FEF7EAFBA0EB0A0002288DD8A1
:1024900028684007F6D42078C0065DD5D9F800003A
:1024A000DFF86CB2396800F03800ABF1040B082893
:1024B00010D0182803D101F0030001280AD0E069E8
:1024C0000028286838D040F080002860FEF7C6FB5E
:1024D000824623E02868C00523D5E069802876D1AC
:1024E0001FE0206A202821D0316821F0F84141EA1C
:1024F0008060306030E000BF94F82010DBF80020EE
:1025000022F07C5242EA0161CBF8001024E000BFC7
:10251000FEF7A4FBA0EB0A00022898D82868C005A3
:10252000F6D5FEF795FB4045E6D8DAE7306820F0AF
:10253000F84040F08040DCE720F080002860FEF7A3
:102540008DFB064605E000BFFEF788FB801B0228D6
:102550009DD82868C005F7D42078000729D56C4895
:102560006169643000298046016811D041F00101A1
:102570000160FEF773FB064605E000BFFEF76EFB49
:10258000801B0228C9D8D8F800008007F6D510E0D3
:1025900021F001010160FEF761FB064605E000BF86
:1025A000FEF75CFB801B022872D8D8F80000800779
:1025B000F6D42078800623D5A0690028286810D09A
:1025C00040F480502860FEF749FB064605E036E1FE
:1025D000FEF744FB801B02285AD828688004F7D5F0
:1025E0000EE020F480502860FEF738FB064604E039
:1025F000FEF734FB801B02284AD828688004F7D4F1
:10260000207840074FD5DFF80C81D8F8001041F44E
:102610008071C8F80010FEF721FB064605E000BFF8
:10262000FEF71CFB801B642832D8D8F80000C005D8
:10263000F6D5374EA068603601280AD008B10528C3
:1026400013D0306820F001003060306820F00400C2
:1026500002E0306840F001003060A06841F2883A42
:1026600090B1FEF7FBFA80460AE0306840F00400C3
:102670003060EEE7FEF7F2FAA0EB0801514507D80B
:1026800030688007F6D50EE0FEF7E8FA804607E0EE
:1026900084E000BFFEF7E2FAA0EB080151457DD8C7
:1026A00030688007F6D4606AB0B3DFF86480D9F888
:1026B000001008F120084FF6F87B08F10409C1F377
:1026C000C2010329A8F1040A69D00228286820F071
:1026D0008070286003D0FEF7C1FA044684E0FEF75C
:1026E000BDFA064605E000BFFEF7B8FA801B0228D7
:1026F00077D828688001F7D4E26A40F2F33138686D
:1027000054F8283F884340EA02101843386004E038
:102710001044025800480258B5E0217B4346228904
:102720004FF4FE0C208A4FF0FE474902267D521ED0
:10273000401EA1F50071C2F308088AB2761E0CEAA9
:10274000004042EA08020243504607EA06610A4393
:102750001A60DAF8002022F00102CAF80020D9F845
:102760000020266A22EA0B0242EAC602C9F80020CB
:10277000DAF80010A26921F00C011143CAF8001028
:102780000168E26921F0020111430160016841F42E
:1027900080310160016841F4003101E021E027E06F
:1027A0000160016841F480210160016841F001018C
:1027B0000160286840F080702860FEF74FFA0446F8
:1027C00005E000BFFEF74AFA001B022809D8286876
:1027D0008001F7D557E000BFFEF740FA001B022842
:1027E00002D90320BDE8F09F28688001F4D44AE0B4
:1027F00039680128D8F8000021D0A26A01F003034B
:1028000093421CD1E26AC1F305118A4217D1216BB0
:10281000C0F30802491E8A4211D1616BC0F34622FF
:10282000491E91420BD1A16BC0F30642491E914251
:1028300005D1E16BC0F30660491E814201D0012041
:10284000D0E7A16C4E46D9F80000C0F3CC0081421D
:1028500019D0DAF80000554620F00100CAF800004F
:10286000FEF7FCF94FEA0007FEF7F8F9B842FBD093
:10287000A26C306820EA0B0040EAC2003060286891
:1028800040F0010028600020ACE7704770477047B7
:1028900010B5040003D094F83D0010B107E001200A
:1028A00010BD002084F83C00204600F022F80220F1
:1028B00084F83D002068211D01F0C4F8012084F84F
:1028C000480084F83E0084F83F0084F8400084F813
:1028D000410084F8420084F8430084F8440084F8FE
:1028E000450084F8460084F8470084F83D00002045
:1028F00010BD704790F83D10012901D001207047AC
:10290000174A022180F83D100168CB6843F00103AB
:10291000CB600068904214D0B0F1804F11D01149C3
:1029200088420ED0104988420BD01049884208D006
:102930000F49884205D00F49884202D00E4988428B
:1029400007D181680D4A1140062906D0B1F5803FB4
:1029500003D0016841F001010160002070470000D0
:10296000000001400004004000080040000C00404E
:102970000004014000180040004001400700010031
:1029800070472DE9F041044600680027C6680569D4
:10299000A90713D5B10711D5FA1E026101212177CC
:1029A000206880698007204602D0FFF7E9FF04E035
:1029B00000F08BF8204600F089F82777680716D5D5
:1029C000700714D5226802206FF00401116120778E
:1029D0002068806910F4407F204602D0FFF7D0FFC6
:1029E00004E000F072F8204600F070F8277728071E
:1029F00015D5300713D5226804206FF00801116146
:102A000020772068C0698007204602D0FFF7B8FF12
:102A100004E000F05AF8204600F058F82777E8065E
:102A200016D5F00614D5226808206FF01001116148
:102A300020772068C06910F4407F204602D0FFF75D
:102A40009FFF04E000F041F8204600F03FF82777B0
:102A5000E80708D0F00706D021686FF00100086190
:102A6000204600F035F8280601D4A80408D5300621
:102A700006D521686FF4025008612046FFF706FF73
:102A8000E80508D5300606D521686FF48070086126
:102A90002046FFF7FAFE680608D5700606D52168BD
:102AA0006FF040000861204600F01CF8A8060AD527
:102AB000B00608D521686FF0200008612046BDE807
:102AC000F041FFF7E4BEBDE8F081704770470000B9
:102AD00000680349884201D1FEF766BA70470000DA
:102AE00000140040704730B590F88410012918D0C8
:102AF000012280F884202421C0F88810002220249C
:102B000001680B680D6823F0005325F001050D6086
:102B1000426601680B60C0F8884080F88420104647
:102B200030BD022030BD70B5044690F88400012805
:102B30001DD0012284F884202420C4F88800206855
:102B40000568026822F0010202602068826822F0B3
:102B500060620A438260204600F0E2FF2268202182
:102B600000201560C4F8881084F8840070BD02202D
:102B700070BD70B5044690F8840001281DD0012274
:102B800084F884202420C4F888002068056802683E
:102B900022F0010202602068826822F060420A434B
:102BA0008260204600F0BCFF2268202100201560D2
:102BB000C4F8881084F8840070BD022070BD10B580
:102BC000040003D0D4F8880010B107E0012010BD44
:102BD000002084F88400204600F026F82420C4F861
:102BE00088002068016821F001010160A06A10B12D
:102BF000204600F0B7FF204601F098F80128E6D003
:102C00002068416821F4904141602068816821F08A
:102C10002A0181602068016841F0010101602046BD
:102C2000BDE8104001F002B82DE9F041B6B004460D
:102C3000142130A8FDF79DFDC0216846FDF799FDE0
:102C40002D49022620680727294D0024DFF8A4809B
:102C500088421FD100201F940121CDE90010684651
:102C6000FEF73EFC08B1FDF769FE2148103001680F
:102C700041F010010160006800F0100035902868F4
:102C800040F001002860286800F0010035904FF402
:102C9000C06020E01949884226D100201E940221FC
:102CA000CDE900106846FEF71BFC08B1FDF746FEB3
:102CB0000F480830016841F400310160006800F4F9
:102CC00000303590286840F001002860286800F046
:102CD000010035900C203090CDE93164CDE93347C7
:102CE00030A94046FDF798FE36B0BDE8F0810000FF
:102CF000E044025800000258001001400044004027
:102D000010B5D0F88830202B01D0022010BD21B39F
:102D10001AB3A0F854200023A0F856204FF4805492
:102D2000426E016521218367C0F89030C0F8881099
:102D3000B2F1005F816812D0A14201D1016909B3EB
:102D400011498167026852E8001F41F0800142E8A2
:102D50000013002BF6D1002010BD012010BDA142B0
:102D600001D1016961B1094981670168083151E800
:102D7000002F42F4000241E80023002BF5D1EAE7DE
:102D80000349F1E70349DCE797410008E541000802
:102D90002D410008D9400008FEE701688A69D24346
:102DA000920701D400228A6200688169C943C90779
:102DB00003D0816941F00101816170472DE9F0473D
:102DC000044600680026894617464FF0200835461D
:102DD0008169C90641D51021C1612FE0B9F1FF3FDA
:102DE0002CD0FDF73BFFC11B494502D8B9F1000FBC
:102DF00024D12068426894F84210836902F480422A
:102E0000DB431B0415D4B2F5804F12D0202910D01B
:102E1000416841F480414160FDF720FF074608E02A
:102E2000FDF71CFFC01B192803D9012645F020051A
:102E300004E020688069C0438006F1D4206880697E
:102E4000C043800602D5002EC8D003E016B9216821
:102E5000C1F81C80012645F0040521688869C20577
:102E600005D54FF48072CA6145F001050126410580
:102E70000AD5216880054FF4806245F00805CA61D3
:102E80004FF0010602D40AE0800507D5206801262C
:102E90004FF4007145F00205C16100E08EB120469B
:102EA000FFF77BFF20680021074F43683B404360EA
:102EB000606C2843606484F8418084F8421084F890
:102EC00040103046BDE8F08700E800FE70B50068AD
:102ED000C1F3090141EA0241074D049C19434FF433
:102EE00080664268214306EA54532B439A4321F0FB
:102EF00000410A43426070BDFF63FF032DE9F041CA
:102F00001D4617460E460446DDF8188028E0424666
:102F100029462046FFF752FF10B10120BDE8F0819D
:102F2000681C1DD0FDF79AFEA0EB0800A84200D84F
:102F3000B5B92068806936EA00000FD00020B84299
:102F40000ED1626C002084F84000202142F0200263
:102F5000626484F8411084F84200DEE70120EEE765
:102F60002068806936EA000004D00020B842CED044
:102F70000020D3E70120F9E770B516460D46044658
:102F80001FE0324629462046FFF718FF08B101200E
:102F900070BDFDF763FE801BA84200D88DB9206884
:102FA0008069C04380060CD5626C002084F8400024
:102FB000202142F02002626484F8411084F842002B
:102FC000E5E720688069C0438006DAD4002070BD40
:102FD00070B516460D46044621E032462946204685
:102FE000FFF7ECFE08B1012070BD681C17D0FDF79B
:102FF00035FE801BA84200D88DB920688069C04387
:1030000080070CD5626C002084F84000202142F03B
:103010002002626484F8411084F84200E3E72068EB
:103020008069C0438007D8D4002070BD00B587B048
:1030300006491C226846FDF748FB0021684601F05E
:1030400003FA0349C86007B000BD0000A04F0008A4
:103050000000002400B587B014216846FDF789FB05
:103060002248016841F080010160016801F080019F
:103070000591016841F004010160016801F004015B
:103080000591016841F001010160016801F0010151
:103090000591016841F002010160006801224FF4CE
:1030A000041100F00200059007208DE80700104889
:1030B0006946FDF7B1FC002209210620FEF75EF803
:1030C0000620FEF74DF800220A210720FEF756F8E9
:1030D0000720FEF745F800220B210820FEF74EF8E6
:1030E0000820FEF73DF807B000BD0000E04402589C
:1030F000000802581348002110B5114C0123124A50
:103100000460C0E90121C0E9033141618161C1610D
:103110000162FDF7FFFD08B1FDF710FC0948002131
:10312000FDF7A2FD08B1FDF709FC06480021FDF7F7
:10313000C7FD002803D0BDE81040FDF7FFBB10BD60
:1031400000540040E8020024B17570301848002196
:1031500010B5164C0C224FF4E1330460C0E9013184
:10316000C160C0E904128161C16101624162816292
:10317000FFF725FD08B1FDF7E1FB0D480021FFF742
:10318000F8FC08B1FDF7DAFB09480021FFF7CBFC9A
:1031900008B1FDF7D3FB0648FFF7A5FC002803D0D4
:1031A000BDE81040FDF7CABB10BD00000010014093
:1031B0003C0300241848002110B5164C0C224FF493
:1031C000E1330460C0E90131C160C0E904128161EA
:1031D000C161016241628162FFF7F1FC08B1FDF754
:1031E000ADFB0D480021FFF7C4FC08B1FDF7A6FBBD
:1031F00009480021FFF797FC08B1FDF79FFB06483F
:10320000FFF771FC002803D0BDE81040FDF796BB26
:1032100010BD000000440040D003002400B587B07A
:1032200014216846FDF7A5FA0C48016841F08001B9
:1032300001600068694600F0800005900848FDF7CD
:10324000EBFB00208021009101226946CDE901209D
:1032500003900448FDF7E0FB07B000BDE0440258CE
:1032600000000258001C0258FEE7FEE7AE2010B531
:1032700000F096F8202000F093F8102000F090F86D
:10328000B02000F08DF8C82000F08AF8002000F08F
:1032900087F8102000F084F8402000F081F88120A9
:1032A00000F07EF8DF2000F07BF8A12000F078F835
:1032B000A62000F075F8A82000F072F83F2000F07A
:1032C0006FF8A42000F06CF8D32000F069F800201B
:1032D00000F066F8D52000F063F8F02000F060F808
:1032E000D92000F05DF8222000F05AF8DA2000F032
:1032F00057F8122000F054F8DB2000F051F820209D
:1033000000F04EF88D2000F04BF8142000F048F843
:1033100000F008F800F010F9BDE81040AF2000F010
:103320003FB8000002484FF48061FDF700BA00008A
:103330004F0500243CB51C78203A059DCDE9004599
:10334000E41DE5085C685B7815FB02F203FB0242B2
:1033500000F086F83CBD2DE9F8411E46154688462A
:103360000446079F09E03346414620460097FFF791
:10337000E1FF70786D1C2044C4B22A78002AF2D193
:10338000BDE8F88108B54FF0FF320B467821009276
:1033900002460248FDF71EFD08BD0000E8020024B9
:1033A0000249487002210148FFF7ECBF27000024C2
:1033B0002DE9FC4101F00704804607201546CE08A0
:1033C0001F46CDE9000302FA04F0C2B2234641468B
:1033D000304600F08BF8002C0CD0601EC0B2CDE956
:1033E0000007C4F10801701C25FA01F200234146D0
:1033F00000F07CF8BDE8FC812DE9FC4314468146D1
:1034000001F007021F4601F00705099E04FA02F0C9
:103410004FEAD108E919082916D907212B46CDE929
:103420000016C2B24946404600F060F878190938E3
:10343000C5F10801C0B2CDE9000624FA01F200236B
:10344000494608F1010007E0491E2B46C9B2CDE903
:103450000016C2B24946404600F048F8BDE8FC8379
:103460002DE9FF4F82B01C46934688460F98C70847
:10347000002600F0070001901AE000BF0298002526
:103480000BEB060A00EB06090EE000BF15FB04F18A
:1034900008EBC50309F0FF0011F80A20D9B2109B10
:1034A000FFF786FF6D1CEDB2BD42EFD3761CF6B27E
:1034B000A642E3D30198002815D004FB07F60025A7
:1034C00008EBC7070DE0109872190090F9B2029846
:1034D0001BF802204319D8B2019BFFF78DFF6D1C2A
:1034E000EDB2A542EFD306B0BDE8F08FF0B50828E5
:1034F000DDE905741AD2802918D20CB1D243D2B2B8
:10350000FF257F1CC3F10806094B05FA07F444EABE
:103510000207F540A24303EBC013AA4347EA0504A0
:10352000044D585C204010432A705854F0BD0000F0
:103530004F0500242500002470B5104D40205FF099
:10354000000405F18106287004F1B000C0B2FFF755
:1035500027FF0020FFF724FF1020FFF721FF802224
:10356000681C06EBC411FDF76BF804488121FFF7D6
:1035700009FF641CE4B2082CE6D370BDCE0400241D
:1035800086B00D4D0024142101A8FDF7F2F86A88D9
:103590000AA101A8FCF7D0FFFFF7C4FE01210A4BE6
:1035A00001AA08460094FFF7D6FEFFF7C5FF3220B8
:1035B00001F06EFAE7E70000000000245370656533
:1035C000643A256400000000685400082DE9F047C3
:1035D000454D044689464FF0000A2868C0438007DD
:1035E0000AD0414E283E306820F080603060FDF700
:1035F00035FB0746B04608E00120BDE8F08700BF74
:10360000FDF72CFBC01B022867D8D8F8000000018A
:10361000F6D4206829684FF4FE0721F47C313E027D
:1036200041EA00302860207AA389B4F804C040023F
:103630002D4D2D495B1E227CACF1010C1035091D6E
:10364000A0F5007080B2521ECCF3080C07EA0343C9
:1036500040EA0C00184306EA02621043286008683A
:10366000626920F0C000104308600A68A06922F077
:10367000200202430A60281D0A6822F010020A6034
:1036800002684FF6F873E4699A4342EAC4020260A2
:103690000868B9F1000F40F010020A6011D0086804
:1036A000B9F1010F11D040F400100860D8F8000003
:1036B000444640F08060C8F80000FDF7CFFA0546A8
:1036C0000DE0086840F40020EFE740F48010ECE7DC
:1036D000FDF7C4FA401B022801D903208DE72068BA
:1036E0000001F5D5504688E7284402582DE9F047F7
:1036F000454D044689464FF0000A2868C0438007BC
:103700000AD0414E283E306820F080503060FDF7EE
:10371000A5FA0746B04608E00120BDE8F08700BFE3
:10372000FDF79CFAC01B022867D8D8F8000080007B
:10373000F6D4208829684FF4FE0721F07C713E0200
:1037400041EA00502860207AA389B4F804C04002FE
:103750002D4D2D495B1E227CACF1010C1835091D45
:10376000A0F5007080B2521ECCF3080C07EA0343A8
:1037700040EA0C00184306EA026210432860086819
:10378000626920F44060104308600A68A06922F46E
:10379000007202430A60281D0A6822F480720A60DF
:1037A00002684FF6F873E4699A4342EAC402026081
:1037B0000868B9F1000F40F480720A6011D00868FF
:1037C000B9F1010F11D040F080700860D8F8000006
:1037D000444640F08050C8F80000FDF73FFA054627
:1037E0000DE0086840F48000EFE740F40000ECE7EB
:1037F000FDF734FA401B022801D903208DE7206829
:103800008000F5D5504688E7284402581CB501F0E1
:10381000C7F80E480224002380220DA1CDE9004004
:103820000E4801F097FA094800238022001D0CA1E0
:10383000CDE900400C4801F08DFA01F0D1F80020EC
:1038400001F04CF9012000F0F3FDFBE70400002437
:103850004F4C45445461736B0000000081350008F3
:103860005A44545461736B0059430008502010B5FA
:1038700080F31188BFF34F8FBFF36F8F01F0C2FA4F
:1038800018B104494FF080500860002080F311887F
:1038900010BD000004ED00E030B59DB04C2168463D
:1038A000FCF767FF202113A8FCF763FF0220FDF758
:1038B00097FC214800242149026842F440420260FA
:1038C00002680A6842F001020A60096801F0010119
:1038D0001B9101688904FCD50220009040250495C5
:1038E0000121039104220B923C23CDE90904CDE987
:1038F0000C300FAB0E900C2183E813006846129435
:10390000FEF702FD08B172B6FEE708221A95CDE96E
:103910001625D30113AA3F200321CDE9185382E8CD
:103920001300042113A8FEF7B1FA002801D072B6E3
:10393000FEE71DB030BD0000184802582C040058A6
:103940003348F0B5334A016841F4700101601068F2
:1039500000F00F00072804D2106820F00F00C01DEF
:1039600010602D4900202C4C10340B682B4D43F077
:1039700001030B6020600B682B400B60136803F0A1
:103980000F03072B04D9136823F00F03DB1D13600B
:10399000214C234A1834234B261D371D20601E4C12
:1039A000214D28343060261D3860371D23603B1DB3
:1039B00035601C1D3A60251D2E1D1860331D2260C8
:1039C0002860326018600A68134B184C22F4802279
:1039D00060330A60186020686FF30F00B0F1005F79
:1039E00003D213490120C1F808010B48D430016803
:1039F000C9040BD4026843F2D2010E4B42F4805248
:103A000002601960016821F480510160F0BD00007E
:103A100088ED00E000200052004402587FEDF6EAF5
:103A200080020101000202020000FF010010005CA0
:103A300000800051004000520148FEF7A2BF000084
:103A4000640400242DE9F047294B4FF0804A294DAA
:103A500002689842284E294F294C09D0504507D07A
:103A6000A84205D0B04203D0B84201D0A04205D14F
:103A7000D1F804C022F070024CEA0202DFF884C0E0
:103A8000DFF884809842DFF884900FD050450DD045
:103A9000A8420BD0B04209D0B84207D0A04205D00E
:103AA000604503D0404501D0484503D1CD6822F49C
:103AB00040722A438E684D6922F08002C6620E6809
:103AC0002A439842866207D0A04205D0604503D0C1
:103AD000404501D0484501D10969016303680121CE
:103AE00043F00403036041610260BDE8F087000019
:103AF000000001400004004000080040000C0040AD
:103B000000040140004001400044014000480140E1
:103B10008AB201460148FFF7F3B80000D003002441
:103B200030B5416EB9B101680D4B03F108048A68E4
:103B30008968C2F34262490F5D5C615C2D01B5FB8F
:103B4000F1F1A0F86A10995CA25C0901B1FBF2F1F5
:103B5000A0F8681030BD0121A0F86A10F8E7000055
:103B6000D44F000890F82810090706D50168836B28
:103B70004A6822F400421A434A6090F82810C907A4
:103B800006D00168C36A4A6822F400321A434A60C8
:103B900090F82810890706D50168036B4A6822F45B
:103BA00080321A434A6090F82810490706D5016808
:103BB000436B4A6822F480221A434A6090F8281026
:103BC000C90606D50168C36B8A6822F480521A437D
:103BD0008A6090F82810890606D50168036C8A6807
:103BE00022F400521A438A6090F82810490611D531
:103BF0000168436C4A6822F480121A434A60416C9F
:103C0000B1F5801F06D10168836C4A6822F4C002B6
:103C10001A434A6090F82810090606D50168C26C5C
:103C2000486820F400201043486070472DE9F843AD
:103C300000250446C0F89050FDF710F88046206833
:103C400020266FF07E470068000713D50022434608
:103C500031042046009700F0F8FA58B1216851E885
:103C6000000F20F0800041E80002002AF6D1C4F8DD
:103C7000886021E020680068400722D50022434682
:103C80004FF480012046009700F0DFFAC8B12068A9
:103C900050E8001F21F4907140E80012002AF6D18C
:103CA0002068083050E8001F21F0010140E80012B0
:103CB000002AF5D1C4F88C60032084F88450BDE854
:103CC000F883C4F88860C4F88C60E5662567002036
:103CD00084F88450F3E7000010B5026852E8001F32
:103CE00021F4907142E80013002BF6D10E4B0268CC
:103CF000083252E8001F194042E80014002CF6D1A7
:103D0000C16E012908D1026852E8001F21F010019C
:103D100042E80013002BF6D100212022C0F88C20AD
:103D2000C166416710BD0000FEFFFFEF2DE9F043C3
:103D300004468068D84E87B0D84B2168D4E9042760
:103D4000D4F81CC010430A68002547EA0C07384322
:103D5000324002430A602068E268416821F4405121
:103D6000114341602268A1699A4201D0206A01434F
:103D70009768DFF82CC3CB4ECB4807EA0C070F43FC
:103D800097602168676ACA6A22F00F023A43CA62E2
:103D90002268B2420ED1006800F03800182873D0B3
:103DA00047DCB8B3082879D010286FD178E02828EC
:103DB0007ED17BE0BD498A4209D1006800F007004E
:103DC000062875D2DFE800F0546A6C6E7072B8494C
:103DD0008A4209D1006800F00700062868D2DFE8AF
:103DE00000F0475D5F616365B2498A4209D10068AE
:103DF00000F0070006285BD2DFE800F03A5052548A
:103E00005658AD498A420BD1006800F007000628D9
:103E10004ED200E010E0DFE800F02B414345474977
:103E2000A6498A420AD1006800F03800182839D023
:103E3000B7DD2028BBD13CE001203AE0A0498A420E
:103E400009D1006800F00700062831D2DFE800F051
:103E50001026282A2C2E9B498A420BD1006800F09C
:103E60000700062824D2DFE800F003191B1D1F21DC
:103E700000201EE09A421BD18B48001D006800F014
:103E80000700062814D202E00CE007E010E0DFE8AB
:103E900000F0030507090B0D02200AE0042008E0EA
:103EA000082006E0102004E0202002E0402000E08E
:103EB00080208549DFF814829A42854A4FF40043F6
:103EC0004FEA21174FF000064ED110281AD006DC19
:103ED000022809D004280BD008287CD10DE0202826
:103EE0003ED0402877D13DE0FDF7A4F9014610E02F
:103EF0006846FDF7B1F901990BE003A8FDF74EFA0A
:103F0000049906E01068800605D51068C0F3C1006A
:103F1000C140002970D0606A676838F8102007EB4C
:103F20004703B1FBF2F0834255D8B0EB073F52D8BC
:103F3000002308461946FCF787FA02467808130E54
:103F4000120243EA012110183A4671410023FCF79E
:103F50007BFA604AA0F5407191423CD821688FE01D
:103F60003946D8E71946D6E7D4F81CC04FF6EF79A2
:103F70009C4546D1082819D005DC58B101280CD041
:103F8000042875D10DE0102815D0202835D0402800
:103F90006ED134E0FEF7F8F801E0FEF707F90146CC
:103FA00010E06846FDF758F901990BE003A8FDF70A
:103FB000F5F9049906E01068800604D51068C0F38E
:103FC000C100C140C1B1636A606838F81330B1FB09
:103FD000F3F1490000E04BE001EB5001B1FBF0F0E0
:103FE000A0F11001494543D84FF6F0732168C0F3A2
:103FF00042021840104343E043E03946E3E71946E4
:10400000E1E7082819D005DC58B101280CD00428B4
:104010002ED10DE0102815D020282BD0402827D1F4
:104020002AE0FEF7B1F801E0FEF7C0F8014610E023
:104030006846FDF711F901990BE003A8FDF7AEF909
:10404000049906E01068800604D51068C0F3C1002A
:10405000C140B1B1636A606838F81330B1FBF3F165
:1040600001EB5001B1FBF0F0A0F11001494505D979
:10407000012506E03946EDE71946EBE7216880B2F5
:10408000C8600120A4F86A00A4F8680028466667A2
:10409000A66707B0BDE8F083F369FFCF000C0058B6
:1040A000FFF4FF1100100140544402580044004046
:1040B00000480040004C0040005000400014014007
:1040C00000780040007C00400090D003BC4F000806
:1040D00000440258FFFC0F00D0F88810212910D1AD
:1040E000B0F8561071B1016D02680988C1F308017A
:1040F0009162016D891C0165B0F85610491EA0F847
:1041000056107047026852E8001F21F0800142E813
:104110000013002BF6D1026852E8001F41F0400165
:1041200042E80013002BF6D170470000D0F8881049
:1041300021291BD1B0F86A1016E000BFB0F8562054
:10414000AAB10268D3691B060CD5036D1B88C3F3A3
:1041500008039362026D921C0265B0F85620521E4D
:10416000A0F85620491E89B20029E7D1704701689E
:10417000083151E8002F22F4000241E80023002B0F
:10418000F5D1026852E8001F41F0400142E80013F7
:10419000002BF6D17047D0F8881021290ED1B0F845
:1041A000561061B1016D026809789162016D491C78
:1041B0000165B0F85610491EA0F856107047026805
:1041C00052E8001F21F0800142E80013002BF6D1D5
:1041D000026852E8001F41F0400142E80013002B42
:1041E000F6D17047D0F88810212919D1B0F86A109B
:1041F00014E000BFB0F856209AB10268D3691B06DC
:104200000AD5036D1B789362026D521C0265B0F8EB
:104210005620521EA0F85620491E89B20029E9D125
:1042200070470168083151E8002F22F4000241E88C
:104230000023002BF5D1026852E8001F41F0400135
:1042400042E80013002BF6D170472DE9F04799465C
:1042500017460D460446089E4FF0000833E0701CD8
:1042600031D0FCF7FBFCA0EB0900B04218D8BEB17E
:1042700020680168490726D5802D24D0402D22D002
:10428000C169C94309070DD4082505622046FFF717
:1042900023FDC4F89050012084F88480BDE8F087A5
:1042A0000320FBE7C069C04300050CD421684FF42C
:1042B000006008622046FFF70FFD2021C4F890102F
:1042C00084F88480ECE72068C06935EA000004D0F7
:1042D0000020B842C3D00020E0E70120F9E7FEE764
:1042E000024801780248FFF713BC000024000024B4
:1042F000B004002405A10422096860F30701044802
:10430000016004480270FFF7EBBF000000FF666B1E
:10431000B004002424000024F0B40BA4160A0827DB
:10432000D4E9005460F30705094862F3070461F318
:10433000174563F30F2466F31F6505604460054865
:104340000770F0BCFFF7CCBF01F600000000016B66
:10435000B004002424000024094C4FF47A75012194
:10436000084623786288FFF7D7FF012000F090FB12
:104370000120FFF7BFFF284600F08AFBEFE70000AF
:1043800000000024090700284FEA116104DB00F156
:10439000E02080F80014704700F00F0000F1E020EA
:1043A00080F8141D70471FB50024009401940294F6
:1043B0000394FCF7A3FE01208DF80C001F218DF85B
:1043C000081087228DF809208DF80D008DF8000067
:1043D00068468DF80A408DF80E408DF80140019432
:1043E0008DF80B408DF80F40FCF75AFE0420FCF7C7
:1043F00093FEFCF7E1FDFFF74FFAFEF72BFEFEF709
:10440000D9FEFEF7A3FEFEF775FEFEF707FF642058
:10441000FCF7A4FAFEF72AFFFEF708FE00F00FF8FB
:10442000FEE7842801464FF0000000D0C81C70470A
:1044300010B500B9012000F02BFB002010BD10B515
:1044400000F0A2FB002010BD7FB50D464169044677
:10445000B0F9080081B1A16971B1FFF7E2FFD4E9B9
:1044600005122B468DE807002269D4E9001000F000
:104470009EFC039004B070BDFFF7D3FF03A92B4649
:10448000CDE90001228AD4E9001092B200F062FC6A
:10449000012801D00020EDE70398EBE72DE9F0417A
:1044A000184C0F460546E6682068001D00F026FA05
:1044B00038B922680121206992F82C209140884364
:1044C0002061681C07D137B12168BDE8F0410E4872
:1044D000091D00F059BA20683544B542456021688D
:1044E00005D2A06B091DBDE8F04100F035BA606B44
:1044F000091D00F031FAA06A854200D2A562BDE82C
:10450000F08100002C0000242C0A00242DE9F04149
:10451000054600F045FA2E4C2E4FA068401CA060C6
:10452000206810B1606940B32DE02560A0680128C3
:1045300029D1002606EB860007EB800000F0FEF98B
:10454000761C072EF6D323488C3000F0F7F921486B
:10455000A03000F0F3F91F48B43000F0EFF91D4827
:10456000C83000F0EBF91B48DC3000F0E7F91948DF
:104570008C3060631430A06305E0E86A2168C96A82
:10458000814200D825600120616A491C6162E96AA4
:10459000226988401043206101EB8100291D07EB4F
:1045A000800000F0F1F900F01BFA606900280CD0DF
:1045B0002068E96AC06A884207D207494FF08050F4
:1045C0000860BFF34F8FBFF36F8FBDE8F08100002D
:1045D0002C0000245009002404ED00E010B504462E
:1045E00090F8510058B101280CD002280FD050206B
:1045F00080F31188BFF34F8FBFF36F8FFEE7206BFF
:1046000000F002FA2046BDE8104000F0FDB910BDF0
:1046100011484FF4705110B5420706D00E49C01D25
:1046200020F00700411AC1F570510C4C00230144E1
:104630000839A4F1180221F00701C4E900030C1A9B
:1046400011604B600B60C0E9001494604FF00041B2
:104650005460516110BD0000400A00248000002415
:10466000144E4FF08058144CDFF85090A6F1C80754
:1046700012E000BF00F094F9F068C568281D00F052
:104680003DF9A068401EA0606068401E606000F0B8
:10469000A7F92846FFF7A2FF60680028EAD138682A
:1046A0000128F9D9C9F80080BFF34F8FBFF36F8F8E
:1046B000F2E70000180A00242C00002404ED00E0BA
:1046C0002DE9F0479A4681466FF00303DDE909843E
:1046D00003EB8202089E206B104420F00707780746
:1046E00007D0502080F31188BFF34F8FBFF36F8F37
:1046F000FEE74FF0000561B1002023180A5C83F843
:1047000034200A5C12B1401C1028F6D384F84350C0
:1047100001E084F83450072E00D30626E662201DFF
:10472000C4E9116500F015F904F1180000F011F961
:10473000E564C6F10700A06184F850505246246138
:1047400049463846646200F0C1F8B8F1000F2060B5
:1047500001D0C8F80040BDE8F087000030B511492D
:1047600000E011460A688242FBD34B685C18844221
:1047700003D14468084623444B6043681D189542A2
:1047800009D1084C183C2468A24209D052681A4446
:1047900042600A6812680260814200D0086030BD41
:1047A0000460F9E7800000240648416B096829B1DC
:1047B000416BC968C9684968816270474FF0FF3131
:1047C000FAE700002C00002408484068401C4FF025
:1047D000500080F3118804D0BFF34F8FBFF36F8F69
:1047E000FEE7BFF34F8FBFF36F8FFEE78800002413
:1047F0002DE9F0410027044600F0FCF9324E306804
:1048000008B9FFF705FF706904424ED1C4B30834FC
:1048100060070ED004F00700C0F1080004446007F0
:1048200007D0502080F31188BFF34F8FBFF36F8FF5
:10483000FEE72CB37068844237D82348183001460D
:104840000D6801E028460D466968A14202D2296838
:104850000029F7D131688D4227D0076829680160A7
:1048600008376868011B10290FD92819420708D09A
:10487000502080F31188BFF34F8FBFF36F8FFEE797
:1048800013E041606C60FFF769FF69687068401A67
:104890007060B268904200D2B0600020726911432B
:1048A000C5E90001F068401CF06000F011FB7807DA
:1048B00007D0502080F31188BFF34F8FBFF36F8F65
:1048C000FEE73846BDE8F0816800002470B5041F9B
:1048D000094E231F4FF0807521F0010125601C1F38
:1048E0001960A0F120010B1F266044380A606FF0A8
:1048F00002051D6070BD0000C9470008D0E9013203
:1049000001699A60D0E901235A604A68824201D164
:1049100082684A60002202610868401E08600868D8
:104920007047000010B5044C8023046004F154006B
:104930000860136010BD0000940000244FF0FF33A6
:1049400000F108010022C0E901130260C1600161A9
:10495000704700210161704730B50B685A1C02D0C6
:1049600000F1080202E0026904E02246546825686A
:104970009D42FAD953684B6099608A605160086122
:104980000168491C016030BD42684A6093688B60D1
:1049900093685960916008610168491C0160704723
:1049A000502080F31188BFF34F8FBFF36F8F0A49F8
:1049B0004868401C486001280CD10848006810F085
:1049C000FF0F07D0502080F31188BFF34F8FBFF344
:1049D0006F8FFEE7704700008800002404ED00E0C0
:1049E0000849486828B1401E486001D180F3118809
:1049F0007047502080F31188BFF34F8FBFF36F8F44
:104A0000FEE700008800002470B500282AD0164D6B
:104A1000A0F1080461686869014207D1502080F361
:104A20001188BFF34F8FBFF36F8FFEE722683AB153
:104A3000502080F31188BFF34F8FBFF36F8FFEE7D5
:104A40008143616000F0D6F8606869680844686076
:104A50002046FFF783FE2869401C2861BDE87040AE
:104A600000F036BA70BD0000680000244FF0E0206E
:104A7000002101614FF47A728161072303490968BB
:104A8000B1FBF2F1491E4161036170471C00002433
:104A9000020010B514D00F48006B38B1502080F3DD
:104AA0001188BFF34F8FBFF36F8FFEE700F0A2F8BE
:104AB00000211046FFF7F2FC00F00AFA002807D1A7
:104AC00005494FF080500860BFF34F8FBFF36F8FE1
:104AD00010BD00002C00002404ED00E070B5054678
:104AE000FFF75EFF254C05B92568281DFFF706FF77
:104AF00058B9E86A224A00EB800152F8211021B926
:104B00002269012181408A432261A86A18B105F116
:104B10001800FFF7F3FE606A401C6062206885425F
:104B200008D11748291DC830FFF72EFF6068401CC8
:104B3000606007E0A068401EA0602846FFF74EFDB9
:104B4000FFF732FEFFF74CFF6069002814D02068A1
:104B5000854211D1206B38B1502080F31188BFF30A
:104B60004F8FBFF36F8FFEE706494FF0805008600C
:104B7000BFF34F8FBFF36F8F70BD00002C00002478
:104B80005009002404ED00E010B586B0002405AA09
:104B900004A9039403A80494FFF7C4FEDDE903010C
:104BA00000940023CDE9011010480EA1059A00F0F1
:104BB000FEF80F490028C86211D0502080F31188F8
:104BC000BFF34F8FBFF36F8F01224FF0FF3088622A
:104BD0004A61CC6006B0BDE8104000F041B806B0B4
:104BE00010BD000049444C4500000000614600082B
:104BF0002C0000240248016B491C0163704700002F
:104C00002C0000241448016B11B10121C1617047CF
:104C10000021C16111490269B2FA82F2C2F11F0298
:104C200002EB820251F822306BB101EB820101F1FB
:104C300008034A6852684A609A4201D152684A6041
:104C4000D16801607047502080F31188BFF34F8F07
:104C5000BFF36F8FFEE700002C00002450090024F2
:104C600037481CB5374902688A4207D1502080F383
:104C70001188BFF34F8FBFF36F8FFEE73149006894
:104C8000491E884207D1502080F31188BFF34F8F0F
:104C9000BFF36F8FFEE72C49FF200A78019208705E
:104CA00008788DF800009DF800209DF8000002F0C3
:104CB000F002824207D0502080F31188BFF34F8F5B
:104CC000BFF36F8FFEE79DF8002007201F4C02F016
:104CD00050022270A06005E09DF8002052008DF87F
:104CE0000020401E9DF800201206F5D40328A06085
:104CF00007D0502080F31188BFF34F8FBFF36F8F21
:104D0000FEE74FF44070A060019808700C48203016
:104D1000016841F470010160016841F07041016077
:104D2000FFF7A4FE00206060FBF72EFB0848016837
:104D300041F040410160FBF713FB00201CBD000067
:104D400000ED00E071C20F4100E400E088000024A3
:104D500034EF00E02DE9FF5F994616468A46834608
:104D60009000DDE90E87FFF743FD05001CD05420BD
:104D7000FFF73EFD040014D00020256384F85100A5
:104D80004B46CDE90087CDE90240324651465846B0
:104D9000FFF796FC2046FFF7B9FB012004B0BDE801
:104DA000F09F2846FFF730FE4FF0FF30F6E7F0B5F2
:104DB00085B0DDE90B740A9DA7B1DCB154262763E9
:104DC000022684F85160002703970DF1100C00951E
:104DD000CDE901C4FFF774FC2046FFF797FB049868
:104DE00005B0F0BD502080F31188BFF34F8FBFF3A3
:104DF0006F8FFEE7502080F31188BFF34F8FBFF312
:104E00006F8FFEE72DE9F0412F4C206B002728B172
:104E1000A069401CA0613846BDE8F081E668761CB8
:104E2000E66013D1606B006838B1502080F31188C0
:104E3000BFF34F8FBFF36F8FFEE7606BA16B6163B2
:104E4000A063206A401C2062FFF7AEFCDFF87C8084
:104E5000A06A864209D3606B0068A0B1606BC0682D
:104E6000C5686868864211D2A0622068C06A00EBFB
:104E7000800158F82100012800D90127E0690028A5
:104E8000C9D00127C7E74FF0FF30EDE7281DFFF736
:104E900035FDA86A18B105F11800FFF72FFDE96A82
:104EA0000120226988401043206101EB810108EB59
:104EB0008100291DFFF768FD2068E96AC06A814208
:104EC000C9D30127C7E700002C00002450090024A3
:104ED0002DE9F0472C4D286B0024264638B1FFF70A
:104EE0005FFD286B401E2863286B40B147E05020CF
:104EF00080F31188BFF34F8FBFF36F8FFEE7234F0F
:104F00000120A968D9B3A7F1B40980463868E8B18F
:104F1000F868C46804F11800FFF7F0FC201DFFF7E3
:104F2000EDFCE16A2A6908FA01F01043286101EBFF
:104F3000810109EB8100211DFFF726FD2968E06A48
:104F4000C96A8842E2D3C5F81C80DFE70CB1FFF7DD
:104F50002BFCAC6944B14746FFF754FF00B1EF6149
:104F6000641EF9D10020A861E86940B10849012612
:104F70004FF080500860BFF34F8FBFF36F8FFFF784
:104F80002FFD3046BDE8F0872C000024040A0024E1
:104F900004ED00E04FF04070E1EE100A70470000B1
:104FA000705400080D3800080000000000000000E8
:104FB000800000000000000000000000010002006E
:104FC0000400060008000A000C0010002000400049
:104FD0008000000101010103070100000804020430
:104FE00008010101000000000102030401020304A2
:104FF0000607080900000000000000000000000093
:105000000000FC000000000002000000000C020C88
:10501000020000000000000090D0BCD0BC90000353
:10502000000300001824FE448C0003020702010064
:105030001824D8B04C80000300010201C038E438C5
:10504000E000010202010202080600000000000068
:1050500000000000000000F804020000000102044B
:10506000000204F800000004020100009060F860F3
:1050700090000000010000002020FC202000000023
:105080000100000000000000000008060000000011
:105090002020202020000000000000000000000070
:1050A00000000002000000000080601C02000403F9
:1050B00000000000F8040404F800010202020100EC
:1050C0000008FC00000000020302000018844424D1
:1050D000180003020202020008042424D80001027E
:1050E0000202010040B088FC8000000000030200C2
:1050F0003C242424C400010202020100F824242CD0
:10510000C0000102020201000C04E41C04000000C3
:1051100003000000D8242424D80001020202010068
:1051200038444444F800000302020100000010006B
:10513000000000000200000000002000000000004D
:105140000600000000205088040200000000010258
:1051500090909090900000000000000000020488F1
:1051600050200002010000001804C42418000000B0
:1051700002000000F804E494F800010202020200B8
:1051800000E09CF0800002030000030204FC2424E1
:10519000D800020302020100F80404040C0001021A
:1051A0000202010004FC0404F800020302020100F0
:1051B00004FC24740C0002030202030004FC2474A7
:1051C0000C00020302000000F0080444CC4000017F
:1051D0000202010004FC2020FC0402030000030280
:1051E0000404FC040400020203020200000404FCA4
:1051F000040406040403000004FC24D00C0402038D
:105200000200030204FC0400000002030202020385
:10521000FC3CC03CFC0003000300030004FC30C461
:10522000FC04020302000300F8040404F800010275
:105230000202010004FC2424180002030200000002
:10524000F8848404F80001020207050004FC2464C9
:105250009800020302000302182424448C00030275
:10526000020201000C04FC040C0000020302000016
:1052700004FC0000FC04000102020100047C80E048
:105280001C040000030000001CE03CE01C000003C4
:1052900000030000049C609C040002030003020061
:1052A000041CE01C04000002030200000C84641CC7
:1052B00004000203020203000000FE0202000000DC
:1052C00007040400000E30C00000000000010200CE
:1052D000000202FE000000040407000000040204B3
:1052E00000000000000000000000000000000808AE
:1052F000080808080000020000000000000000008C
:105300000040A0A0C00000010202030204FC202013
:10531000C00000030202010000C020206000000164
:105320000202020000C02024FC000001020203026D
:1053300000C0A0A0C0000001020202000020F8246A
:1053400024040002030202000040A0A06020000725
:105350000A0A0A0404FC2020C0000203020003021F
:105360000020E4000000000203020000000020E42E
:10537000000008080807000004FC80E02020020369
:10538000020003020404FC00000002020302020007
:10539000E020E020C00003000300030020E0202004
:1053A000C00002030200030200C02020C000000170
:1053B0000202010020E02020C000080F0A020100C4
:1053C00000C02020E0000001020A0F0820E0402079
:1053D00020000203020000000060A0A020000002E4
:1053E000020203000020F820000000000102020079
:1053F00020E00020E00000010202030220E0208003
:1054000060200000030100006080E0806000000375
:1054100000030000206080602000020300030200FF
:1054200020E0208060200808070100000020A06024
:105430002000000203020200000020DE0200000043
:1054400000070400000000FF00000000000F000043
:105450000002DE2000000004070000000201020438
:1054600004020000000000000C060000F44F0008D9
:1054700064656661756C745461736B009C540008BC
:105480000000002494000000D402000830550008F9
:10549000940000240C4C0000F00200082C002C01A9
:1054A00000000000000000000000000001000000FB
:1054B00010000000000000000090D0030090D00316
:1054C00000000000000000000000000000000000DC
:1054D00000000000000000000000000000000000CC
:1054E00000000000000000000000000000000000BC
:1054F00000000000000000000000000000000000AC
:10550000000000000000000000000000000000009B
:10551000000000000000000000000000000000008B
:105520000000000000000000AAAAAAAA00000000D3
:040000050800029954
:00000001FF
