:020000040800F2
:10000000384D0024010400084B380008593200081C
:100010004938000827090008634C00080000000068
:100020000000000000000000000000004103000884
:1000300029090008000000009D0300084D3E00084B
:100040001F0400081F0400081F0400081F04000804
:100050001F0400081F0400082B09000831090008CC
:10006000370900081F0400081F0400081F040008C7
:100070001F0400081F0400081F0400081F040008D4
:100080001F0400081F0400081F0400081F040008C4
:100090001F0400081F0400081F0400081F040008B4
:1000A0001F0400081F0400081F0400081F040008A4
:1000B0001F0400081F0400081F0400081F04000894
:1000C0001F0400081F0400081F0400081F04000884
:1000D0001F0400081F0400081F0400081F04000874
:1000E0001F0400081F040008000000001F0400088F
:1000F0001F0400081F0400081F0400081F04000854
:100100001F0400081F0400081F0400081F04000843
:100110001F0400081F0400081F04000819400008FD
:100120001F0400081F0400081F0400081F04000823
:100130001F0400081F0400081F0400081F04000813
:1001400000000000000000000000000000000000AF
:100150001F0400081F0400081F0400081F040008F3
:100160001F0400081F0400081F0400081F040008E3
:100170001F0400081F0400081F04000800000000FE
:100180001F0400081F0400081F0400081F040008C3
:100190001F0400081F0400081F0400081F040008B3
:1001A0001F0400081F0400081F0400081F040008A3
:1001B0001F0400081F0400081F0400081F04000893
:1001C0001F0400081F0400081F0400081F04000883
:1001D0001F0400081F0400081F0400081F04000873
:1001E0001F0400081F0400081F0400081F04000863
:1001F0001F0400081F0400081F0400081F04000853
:100200001F0400081F0400081F0400081F04000842
:100210001F0400081F0400081F0400081F04000832
:100220001F0400081F0400081F040008000000004D
:100230001F0400081F040008000000001F0400083D
:100240001F0400081F0400081F0400081F04000802
:100250001F0400081F0400081F0400081F040008F2
:100260001F0400081F0400081F0400081F040008E2
:100270001F0400081F0400081F04000800000000FD
:100280001F0400081F0400081F04000800000000ED
:10029000000000001F04000800F002F800F041F820
:1002A0000AA090E8000C82448344AAF10107DA45D1
:1002B00001D100F036F8AFF2090EBAE80F0013F0E2
:1002C000010F18BFFB1A43F0010318473C5B000005
:1002D0005C5B0000103A24BF78C878C1FAD8520796
:1002E00024BF30C830C144BF04680C6070470000B0
:1002F0000023002400250026103A28BF78C1FBD82F
:10030000520728BF30C148BF0B607047642900F016
:100310005B81002070471FB505F002FB1FBD10B5C3
:1003200010BD00F0C6FA1146FFF7F5FF04F0FDFC22
:1003300000F0E4FA03B4FFF7F2FF03BC00F0ECFABC
:100340002C4B19680868B0E8F04F80F30988BFF3B8
:100350006F8F4FF0000080F311887047000000009D
:1003600008480068006880F308884FF0000080F3B8
:10037000148862B661B6BFF34F8FBFF36F8F00DF93
:1003800000BF00BF08ED00E0DFF80C00016841F499
:1003900070010160704700BF88ED00E0EFF3098055
:1003A000BFF36F8F134B1A681EF0100F08BF20EDBC
:1003B000108A20E9F04F106009B44FF0500080F32C
:1003C0001188BFF34F8FBFF36F8F05F0E1F84FF047
:1003D000000080F3118809BC19680868B0E8F04F84
:1003E0001EF0100F08BFB0EC108A80F30988BFF32D
:1003F0006F8F70472C000024EFF3058070470000DA
:100400000A4880470A4880470A480047FEE7FEE757
:10041000FEE7FEE7FEE7FEE7FEE7FEE7FEE7FEE7B4
:1004200005480649064A074B704700004109000885
:10043000213F00089902000838470024384D002465
:10044000384900243849002453EA020C00F069803E
:100450002DE9F04B4FF00006002B1FBFB3FA83F5D8
:1004600003FA05F424FA05F65E4012BF1643B2FA09
:1004700082F502FA05F4C5F120051EBF22FA05FC3B
:1004800044EA0C04203556EA044C4FEA144418BFE1
:10049000641C4FF000084FF00009904271EB030C10
:1004A00039D3002919BFB1FA81F701FA07F6B0FA7A
:1004B00080F700FA07F6C7F120071EBF20FA07FCF5
:1004C00046EA0C062037B6FBF4FCA7EB0507103F05
:1004D00007F01F0BCBF120060CFA0BFB2CFA06F6EB
:1004E00044BFB3460026202FA4BF5E464FF0000B4A
:1004F0005BEA060C08BF4FF0010B19EB0B09ABFBD5
:10050000027C48EB0608C01B06FB02CC0BFB03CCAD
:1005100071EB0C01C1E70B46024641464846BDE877
:10052000F08B13B54FF000004FF00001AFF30080E7
:10053000BDE81C40704700000FB41CB5074B06AA6D
:100540007B4469460090059800F09BF900206946BD
:1005500000F0AAF91CBC5DF814FB00006503000064
:100560002DE9F0410E460446002020622046E16855
:10057000884730B3252805D0D4E901219047206A67
:10058000401CF2E7E168204600278847050018D0A4
:10059000A5F14100192802D820354FF400673246F2
:1005A000294620462760FFF7B1FE40B1012804D05C
:1005B000F61D26F007060836D8E7361DD6E728468A
:1005C000DAE7206ABDE8F0812DE9F0410646002413
:1005D00010687529314616A510D0AFF300800028A9
:1005E00002DA404213A507E031688A0701D512A557
:1005F00002E0490704D511A5012401E0AFF3008012
:1006000000210A2206F1240709E0B0FBF2FCB0FB4E
:10061000F2F302FB1C00303078541846491C0028C5
:10062000F3D123462A463046BDE8F04100F0CBB86E
:10063000000000002D0000002B0000002000000042
:10064000032A40F2308010F0030C00F0158011F8FE
:10065000013BBCF1020F624498BF11F801CB00F8D6
:10066000013B38BF11F8013BA2F1040298BF00F82A
:1006700001CB38BF00F8013B11F0030300F02580E7
:10068000083AC0F0088051F8043B083A51F804CB0E
:10069000A0E80810F5E7121D5CBF51F8043B40F8D4
:1006A000043BAFF30080D20724BF11F8013B11F8DF
:1006B00001CB48BF11F8012B24BF00F8013B00F823
:1006C00001CB48BF00F8012B704710B5203AC0F0AD
:1006D0000B80B1E81850203AA0E81850B1E8185043
:1006E000A0E81850BFF4F5AF5FEA027C24BFB1E880
:1006F0001850A0E8185044BF18C918C0BDE81040F1
:100700005FEA827C24BF51F8043B40F8043B08BFF9
:100710007047D20728BF31F8023B48BF11F8012BC0
:1007200028BF20F8023B48BF00F8012B70474FF06C
:1007300000020429C0F0128010F0030C00F01B80AE
:10074000CCF1040CBCF1020F18BF00F8012BA8BFBC
:1007500020F8022BA1EB0C0100F00DB85FEAC17C80
:1007600024BF00F8012B00F8012B48BF00F8012B33
:1007700070474FF0000200B5134694469646203964
:1007800022BFA0E80C50A0E80C50B1F12001BFF44A
:10079000F7AF090728BFA0E80C5048BF0CC05DF8B0
:1007A00004EB890028BF40F8042B08BF704748BFFE
:1007B00020F8022B11F0804F18BF00F8012B704772
:1007C0007047704770472DE9F0470D4699469246AD
:1007D000044600F124080168880604D5E06921F088
:1007E0001001216000E00120A84201DD471B00E06C
:1007F0000027A1697A1902EB0900081AA061207884
:10080000C00602D42046AFF30080002608E0D4E9F9
:1008100001211AF806009047206A401C761C2062CD
:100820004E45F4DB2078C0060AD52046AFF30080A1
:1008300006E0D4E9012130209047206A401C206264
:10084000381EA7F10107F4DC07E0D4E9012118F80C
:1008500005009047206A401C2062281EA5F1010572
:10086000F3DC2046AFF300802078000602D502209A
:10087000BDE8F0870120FBE701694A1C02610878A6
:10088000704700B58FB0CDE90131002105910549D0
:100890007944CDE9031011466846FFF761FE0FB0B9
:1008A00000BD0000E5FFFFFF0A6802F8010B0A60C7
:1008B0007047754600F02CF8AE4605006946534671
:1008C00020F00700854618B020B5FFF7A9FDBDE868
:1008D00020404FF000064FF000074FF000084FF0A7
:1008E000000B21F00701AC46ACE8C009ACE8C00938
:1008F000ACE8C009ACE8C0098D46704710B50446A5
:10090000AFF300802046BDE81040FFF713BD0000A4
:1009100000487047D846002401491820ABBEFEE7C6
:10092000260002007047FEE77047012000F068B81B
:10093000022000F065B8042000F062B872B6FEE74D
:10094000054805490839026842F002020260086859
:100950008004FCD5704700000C48025870B504466E
:1009600000F080F90546601C02D004480078044479
:1009700000F078F9401BA042FAD370BD10000024AB
:1009800070B51D4D0121284600F05CF91B4C18B1D3
:100990000BE00120FFF7E2FF0121284600F052F9A9
:1009A0000028F6D020880A3020800221284600F056
:1009B00049F918B10DE00120FFF7D0FF02212846C8
:1009C00000F040F90028F6D020880A2801D30A3820
:1009D00020800421284600F035F918B170BD0120AF
:1009E000FFF7BCFF0421284600F02CF90028F6D0C0
:1009F0000020208070BD0000000802580200002482
:100A00004FF0B04110B5D1F88820024203D0C1F8B0
:100A10008800FFF7B5FF10BD2DE9F84F03247D4D89
:100A200000234FF001094FF0B04B4FF00F0AE9E0FF
:100A300009FA03F73A4076D00E7906F00306012E44
:100A400001D0022E18D1D0F808C04FEA430ECE686C
:100A500004FA0EF82CEA080C06FA0EF646EA0C0622
:100A60008660D0F804C00E792CEA070CC6F3001695
:100A70009E4046EA0C0646600E79F643B6070BD058
:100A8000C6684FEA43088F6804FA08FC26EA0C0699
:100A900007FA08F73743C7600E7906F00306022EFF
:100AA00012D1DE080F694FEA437C00EB8606B6469A
:100AB000366A4FEADC6C0AFA0CF807FA0CF726EAF9
:100AC00008063743CEF820700F7906684FEA4308CE
:100AD00007F0030704FA08FC07FA08F726EA0C06F1
:100AE000374307604E6816F4403F1CD04A4E3768C3
:100AF00047F00207376036689F0706F00206009647
:100B000023F0030606F1B046B6463F0FD6F8086458
:100B1000DFF808810AFA07FC404526EA0C0603D1F3
:100B20004FF0000C41E06CE0DFF8F4C0604502D10A
:100B30004FF0010C39E0DFF8ECC0604502D14FF016
:100B4000020C32E0DFF8E0C0604502D14FF0030C48
:100B50002BE0DFF8D8C0604502D14FF0040C24E050
:100B6000DFF8CCC0604502D14FF0050C1DE0DFF886
:100B7000C4C0604502D14FF0060C16E0DFF8B8C0E3
:100B8000604502D14FF0070C0FE0DFF8B0C06045C0
:100B900002D14FF0080C08E0DFF8A4C0604502D194
:100BA0004FF0090C01E04FF00A0C0CFA07FC4CEA7C
:100BB000060CCEF808C44F68DBF80060FF0226EA96
:100BC000020600D516435F46CBF80060D1F804C09A
:100BD000DBF804605FEA8C2C26EA020600D5164397
:100BE0007E606E684F6826EA0206BF0300D5164392
:100BF0006E602E684F6826EA0206FF0300D5164392
:100C00002E605B1C0A6832FA03F67FF411AFBDE870
:100C1000F88F000080000058F44402580000025889
:100C20000004025800080258000C02580010025834
:100C30000014025800180258001C025800200258E4
:100C4000002402580069084000D0012070470AB112
:100C5000816170470904FBE701480068000C704798
:100C60000010005C014880687047000010000024FC
:100C700030B590F84120202A24D190F84020012A54
:100C800020D0012380F84030242280F84120202306
:100C900000240268156825F00105156002681568D2
:100CA00025F480551560026815680D4315600168CC
:100CB0000A6842F001020A6080F8413080F8404042
:100CC000002030BD022030BD30B590F84120202AF0
:100CD00022D190F84020012A1ED0012380F8403014
:100CE000242280F84120202400250268136823F084
:100CF000010313600268136823F4706343EA01215F
:100D0000116001680A6842F001020A6080F84140FF
:100D100080F84050002030BD022030BD70B5040086
:100D200004D094F84100002510B106E0012070BD08
:100D3000204684F8405000F0F7F8242084F8410061
:100D40002068016821F001010160D4E9001020F061
:100D5000706008612068816821F400418160E0686A
:100D600021680128A06830D040F404408860E06821
:100D70000228206841682BD021F40061416020687E
:100D80002021154A4368134343602068C26822F457
:100D90000042C26054F8106B0DCC104340EA0320AF
:100DA000F06054F81C3CD4E900021043186054F879
:100DB0001C0D026842F001020260656484F8411073
:100DC000256384F84250002070BD40F40040CDE718
:100DD00041F40061D2E70000008000022DE9FF4FDE
:100DE00081B0044690F8410099469046DDF838B04D
:100DF00020287BD194F84000012877D0012084F886
:100E00004000FFF72FFF0122064619230090D1036F
:100E1000204602F0D3FA002853D14149212200256F
:100E2000C4F82480102084F84120FF2784F8420071
:100E30006564A4F82A90608D4FF080794FF0007AB5
:100E40006563FF2802D94B46278505E0608D534630
:100E500020850004000C10D0226898F800009062F1
:100E6000606A401C6062608D401E6085208D401E5F
:100E70002085401C0091C2B201E00022009102993D
:100E8000204602F083FA13E002F002FBC8B9606A60
:100E9000216800788862606A401C6062608D401E34
:100EA0006085208D401E80B22085618D01B160B1CA
:100EB000608D3246594600282046E5D102F0BCFA42
:100EC000E0B1012005B0BDE8F08F00225B46802133
:100ED0002046009602F072FA0028F2D1608DFF28B9
:100EE00005D927853A464B460095C8E716E0608D40
:100EF00053462085009594F82820C0E721682020DB
:100F0000084AC86121684B6813404B6084F841006F
:100F100084F84250002084F84050D3E70220D1E703
:100F20000020008000E800FE10B5B6B00446142191
:100F300030A8FFF71EFCC0216846FFF71AFC1949CC
:100F4000206888422BD10020219008210446CDE959
:100F50000010684600F0C8FA08B1FFF7EFFC12482D
:100F6000016841F002010160006830AB122100F01D
:100F7000020035904FF44070042283E813000B48C0
:100F800030A9CDE93342FFF747FD07480830016833
:100F900041F400110160006800F40010359036B093
:100FA00010BD000000540040E04402580004025804
:100FB0000248816802781144816070471000002463
:100FC000032010B500F0FEF801F006F90F4A1049B1
:100FD00014681368C4F3032203F00F038A5CC95C2E
:100FE00002F01F0201F01F01D0400A4A20FA01F16D
:100FF000116009490860012000F010F808B10120D3
:1010000010BD00F09FF8002010BD000018440258E9
:1010100070590008200000241C00002410B510287E
:1010200004468AB02CD200220146372000F0AAF8EC
:10103000372000F099F8174804601748016841F01C
:1010400020010160006809A900F0200008906846AE
:1010500001F04EF80598B0B101F09AF840000F4940
:1010600000220F4CB0FBF1F10E4840F2E733046070
:10107000C0E90332491EC0E9011201F05FFC28B14A
:1010800001200AB010BD01F083F8E8E7054801F03F
:1010900099FCF6E714000024E844025840420F008F
:1010A00000140040FC040024154BF0B5083B4278C6
:1010B00013491A600B680A1F23F001030B60436891
:1010C0001360057BC67A827A437B2D07847B45EAD1
:1010D0000665C77B90F809C0067A90F800E045EAFB
:1010E000C24040EA834040EA444040EA074040EAC8
:1010F0000C2040EA460040EA0E000860F0BD000007
:10110000A0ED00E0BFF35F8F044800210368034AAD
:1011100023F48033036070321160704724ED00E0E7
:10112000074A40F00100064970321060086840F438
:1011300080300860BFF34F8FBFF36F8F70470000A0
:1011400024ED00E0074882B0016841F0020101602F
:10115000006800220F2100F002000090901E02B0F3
:1011600000F010B8F4440258002809DB410900F0EF
:101170001F028900012001F1E0219040C1F8000127
:10118000704700000E4BF0B41B680D46C3F30223FA
:10119000C3F10706042E00D90426191D072901D220
:1011A000002300E0DB1E012404FA06F19C40491EE6
:1011B0002940641E994014402143F0BC03F0A4BDB3
:1011C0000CED00E0064900F0070210B54FF6FF04F1
:1011D0000868044B204040EA02201843086010BD14
:1011E0000CED00E00000FA05134970B50A68D2431F
:1011F000520705D5096801F00701814213D118E0B3
:101200000A6822F0070202430A60FFF72BFD0A4D2D
:101210004FF47A760446083D07E000BFFFF722FD51
:10122000001BB04201D9012070BD2868C043800472
:10123000F4D4002070BD00000C48025810B500F036
:1012400085FF05490968054AC1F30211515C01F0A7
:101250001F01C84010BD000020440258705900080A
:10126000494930B5484C0B1D0A68143409681D689B
:10127000246802F00303C5F30012C1F30531C4F37F
:10128000CC04002914FB02F200EE102AF8EE400A0A
:1012900075D03F4A9FED3D1AB7EE000A6BB1DFED06
:1012A0003D1A012B01D0022B64D002EE101A1168F6
:1012B000F8EE422A81EEA22A21E0334C283C236832
:1012C0009B0612D5344B246801EE901A1168C4F3C2
:1012D000C104F8EE612AE34001EE903AC1F308013F
:1012E000F8EE611A81EEA22A0BE001EE901ADFED12
:1012F0002B2A00BFF8EE611A116882EEA12AC1F311
:10130000080101EE901A1168F8EE611A40EE811A98
:1013100071EE800A62EE200AC1F3462101EE101A36
:10132000B8EE411A31EE001AC0EE811ABCEEE11A95
:1013300080ED001A1168C1F3064101EE101AB8EEF3
:10134000411A31EE001AC0EE811ABCEEE11A80EDAE
:10135000011A1168C1F3066101EE101AB8EE411AC4
:1013600031EE000A80EE801ABCEEC10A80ED020A5E
:1013700030BD04E001EE901ADFED092ABAE7002142
:10138000016041608160F3E72844025800000039A1
:10139000384402580024744A0090D0030024744C4E
:1013A00020BCBE4B494930B5484C0B1D0A681C3463
:1013B00009681D68246802F00303C5F30022C1F325
:1013C0000551C4F3CC04002914FB02F200EE102AEC
:1013D000F8EE400A75D03F4A9FED3D1AB7EE000A7D
:1013E0006BB1DFED3D1A012B01D0022B64D002EE70
:1013F000101A1168F8EE422A81EEA22A21E0334C3D
:10140000283C23689B0612D5344B246801EE901AC1
:101410001168C4F3C104F8EE612AE34001EE903A8A
:10142000C1F30801F8EE611A81EEA22A0BE001EE89
:10143000901ADFED2B2A00BFF8EE611A116882EED8
:10144000A12AC1F3080101EE901A1168F8EE611AA1
:1014500040EE811A71EE800A62EE200AC1F3462145
:1014600001EE101AB8EE411A31EE001AC0EE811AE0
:10147000BCEEE11A80ED001A1168C1F3064101EEDD
:10148000101AB8EE411A31EE001AC0EE811ABCEE05
:10149000E11A80ED011A1168C1F3066101EE101A1C
:1014A000B8EE411A31EE000A80EE801ABCEEC10A95
:1014B00080ED020A30BD04E001EE901ADFED092A4A
:1014C000BAE70021016041608160F3E728440258D7
:1014D00000000039404402580024744A0090D003B0
:1014E0000024744C20BCBE4B2DE9FE4F0546DFF8AE
:1014F000E48350F8081B0024F64FC943019005F11E
:101500002800264608F12408009008011DD4A86E82
:1015100050B1B0F5801F0CD0B0F5001F0ED0B0F563
:10152000401F1ED001240FE0386840F400303860BE
:1015300017E00198022102F039FB03E00098022134
:1015400002F0C4FB04000CD026462888C043C00526
:1015500023D4A86D05281ED2DFE800F00C11161B5D
:101560001B00AA6ED8F8001021F440111143C8F8EE
:101570000010EAE7386840F40030386009E001986C
:10158000002102F013FB03E00098002102F09EFB13
:10159000044674B100E0012426462888C043800533
:1015A00028D4E86D80281ED00CDC90B140280ED1E4
:1015B00014E0AA6DD8F8001021F007011143C8F813
:1015C0000010EAE7C02813D0B0F5807F10D00124C6
:1015D0000FE0386840F40030386009E001980021DD
:1015E00002F0E4FA03E00098002102F06FFB0446E9
:1015F0009CB126462888DFF8DC92C04309F12C090B
:1016000040052CD4D5F8A800B0F5800F20D00DDC13
:10161000A0B1B0F5001F0FD115E0EA6DD8F80010A9
:1016200021F4E0711143C8F80010E3E7B0F5C00FF2
:1016300013D0B0F5000F10D001240FE0386840F44B
:101640000030386009E00198002102F0AFFA03E0B1
:101650000098002102F03AFB04467CB12646288817
:10166000C04300052DD4D5F8AC00B0F1007F21D0E7
:101670000EDCA8B1B0F1807F10D116E0D5F8A8201B
:10168000D9F8001021F460011143C9F80010E6E711
:10169000B0F1407F13D0B0F1806F10D001240FE083
:1016A000386840F40030386009E00198002102F009
:1016B0007DFA03E00098002102F008FB044674B1B3
:1016C00026462868C04380011FD4E86CD8B1102892
:1016D0000FD0202812D0302815D0012414E0D5F8DE
:1016E000AC20D9F8001021F0E0611143C9F80010D6
:1016F000E7E7386840F40030386004E001980221E0
:1017000002F054FA044674B126462888C043C00447
:101710002BD4286EB0F5005F20D00DDCA0B1B0F561
:10172000805F0FD115E06B48EA6C2030016821F032
:10173000300111430160E8E7B0F5405F13D0B0F528
:10174000804F10D001240FE0386840F4003038603A
:1017500009E00198002102F029FA03E00098002135
:1017600002F0B4FA04468CB126462888C0438004AF
:1017700029D4686EB0F5403F23D010DC08B3B0F533
:10178000803F14D0B0F5003F0FD115E02A6ED8F895
:10179000001021F4E0411143C8F80010E5E7B0F56E
:1017A000802F0ED0B0F5A02F0BD001240AE00198B5
:1017B000012102F0FBF903E00098012102F086FA12
:1017C000044694B126462888C04340042AD4D5F85C
:1017D000B000B0F1405F23D010DC08B3B0F1805FFF
:1017E00014D0B0F1005F0FD115E06A6ED8F8001088
:1017F00021F4E0211143C8F80010E4E7B0F1804F74
:101800000ED0B0F1A04F0BD001240AE001980121C5
:1018100002F0CCF903E00098012102F057FA0446E7
:1018200074B126462888C04300041FD4286FD8B15D
:10183000B0F1805F0ED0B0F1005F10D0012414E051
:10184000D5F8B020D9F8001021F0E0411143C9F8D3
:101850000010E7E7386840F40030386004E0019891
:10186000012102F0A3F9044674B126462868C0435A
:10187000C0011ED4A86CD0B101280ED0022811D00E
:10188000032814D0012413E02A6FD8F8001021F0A7
:1018900040511143C8F80010E8E7386840F40030C0
:1018A000386004E00198022102F080F90446ACB1EE
:1018B00026462868DFF81CB0C043ABF11C0B400281
:1018C00052D40548016841F480710160FFF7CAF9FC
:1018D000824611E02C44025800480258FA48AA6C8B
:1018E000016821F0030111430160E2E7FFF7BAF953
:1018F000A0EB0A00642835D8F4480068C005F5D587
:101900008CBBDFF8C4A3B5F8B4100AF1240ADAF8E6
:10191000000001F4407100F44070884211D0DAF800
:101920000010DAF8002021F4407142F48032CAF845
:101930000020DAF8002022F48032CAF80020CAF829
:101940000010D5F8B400B0F5807F1AD1FFF78AF9FE
:10195000029012E0FFF786F90299411A41F28830AD
:1019600081420AD9032426462878DFF85CA3C043C5
:101970000AF1080AC00721D03CE0DAF8000080072D
:10198000E8D5D5F8B410C1F30120032858460DD08E
:10199000016821F47C510160B5F8B420DAF8001038
:1019A000C2F30B021143CAF80010DDE7C84A03680E
:1019B00002EA111223F47C511143ECE7E86F182876
:1019C00016D005DCA0B1082808D0102804D10AE000
:1019D00020280DD028280BD001240AE001980121ED
:1019E00002F0E4F803E00098012102F06FF90446E8
:1019F00064B126462878C04380071ED4A86F062805
:101A000019D2DFE800F0160C11161616EA6FDAF894
:101A1000001021F038011143CAF80010EAE70198DC
:101A2000012102F0C3F803E00098012102F04EF911
:101A300004467CB100E0012426462878C0434007D4
:101A40001FD4D5F89400062819D2DFE800F0160C50
:101A500011161616AA6FDAF8001021F007011143CB
:101A6000CAF80010E9E70198012102F09FF803E0AD
:101A70000098012102F02AF90446A4B100E00124F3
:101A800026462878C04380062BD4D5F89000B0F1C4
:101A9000405F24D011DC10B3B0F1805F15D0B0F1FD
:101AA000005F10D116E0D5F89420D9F8001021F08D
:101AB00007011143C9F80010E3E7B0F1804F0ED0E1
:101AC000B0F1A04F0BD001240AE00198002102F0F0
:101AD0006DF803E00098022102F0F8F8044694B192
:101AE00026462878C04340062BD4D5F89C00B0F594
:101AF000406F24D011DC10B3B0F5806F15D0B0F575
:101B0000006F10D116E0D5F89020DAF8001021F01F
:101B1000E0411143CAF80010E3E7B0F5805F0ED052
:101B2000B0F5A05F0BD001240AE00198002102F07B
:101B30003DF803E00098022102F0C8F8044694B191
:101B400026462878C04300062BD4D5F8A000B0F56F
:101B5000C04F24D011DC10B3B0F5005F15D0B0F544
:101B6000804F10D116E0D5F89C20D9F8001021F450
:101B7000E0511143C9F80010E3E7B0F5004F0ED073
:101B8000B0F5204F0BD001240AE00198002102F0AB
:101B90000DF803E00098022102F098F8044654B1D1
:101BA00026462878C04300071ED4D5F88400B0F537
:101BB000805F0AD00FE0D5F8A020D9F8001021F4FA
:101BC00060411143C9F80010EBE70098022102F0D0
:101BD0007DF800B10126D5F88420DAF8001021F450
:101BE00040511143CAF800102878C043C00613D4EE
:101BF000D5F89800B0F5807F05D10098022102F059
:101C000065F800B10126D5F89820D9F8001021F424
:101C100040711143C9F800102868C043000316D46E
:101C2000D5F8A40038B1B0F5803F09D0B0F5003F39
:101C30000BD001240AE00198002101F0B7FF03E076
:101C40000098022102F042F804468CB1264628682A
:101C5000C043400322D4D5F88800B0F5801F11D0CE
:101C6000B0F5001F13D0B0F5401F15D0012414E0CB
:101C7000D5F8A420D9F8001021F440311143C9F857
:101C80000010E4E7386840F40030386004E0009861
:101C9000012102F01BF804465CB126462868C043C7
:101CA000C00323D4286DA8B1B0F5803F17D001241C
:101CB0001BE0D5F88820DAF8001021F44011114318
:101CC000CAF80010EAE700004C44025800480258E5
:101CD000CFFFFF00386840F40030386004E001981E
:101CE000022101F063FF0446E4B126462868C043A0
:101CF000800005D40098022101F0E8FF00B1012620
:101D00002868C04380031BD4D5F88000B0B1B0F57B
:101D1000807F0FD0B0F5007F10D0B0F5407F0DD0A0
:101D200001240CE05A482A6D016821F480311143E6
:101D30000160DBE7386840F400303860ECB32646D9
:101D40002868C043C00207D46A6FD8F8001021F099
:101D500000411143C8F800102868C043C00008D4EF
:101D6000D5F8B820DBF8001021F480411143CBF8FE
:101D700000102868C043800207D4EA6ED8F800102B
:101D800021F080711143C8F800102868C04340005A
:101D90000CD4DBF8001021F40041CBF80010DBF884
:101DA0000010D5F8BC201143CBF800102868C043C0
:101DB00008D437486A6D016800E018E021F040510E
:101DC000114301602868C043000208D4D5F88C2074
:101DD000DAF8001021F440011143CAF80010287904
:101DE0000024C04300F0010020430AD00FE0D5F8E2
:101DF0008020DAF8001021F440711143CAF8001075
:101E00009EE70198002101F0D1FE00B10646287935
:101E1000C04300F00200204305D10198012101F0E8
:101E2000C5FE00B106462879C04300F004002043F7
:101E300005D10198022101F0B9FE00B106462879CA
:101E4000C04300F00800204305D10098002101F0B4
:101E50003DFF00B106462879C04300F01000204342
:101E600005D10098012101F031FF00B10646287923
:101E7000C04300F02000044304D10098022101F087
:101E800025FF00B916B10120BDE8FE8F0020FBE759
:101E90004C4402582DE9F05F04000F467ED0DFF875
:101EA0003882D8F8000000F00F00B8420CD2D8F801
:101EB000001021F00F013943C8F80010D8F80000D5
:101EC00000F00F00B84269D12078844D40070AD550
:101ED0002069296801F07001884204D9296821F03D
:101EE00070010143296020787C4E361D00070AD519
:101EF0006069316801F07001884204D9316821F0CD
:101F00007001014331602078C0060AD5A0693168AC
:101F100001F4E061884204D9316821F4E0610143B1
:101F200031602078DFF8B4B180060BF1080B0CD5D6
:101F3000E1695846DBF8002002F07002914204D9B2
:101F4000026822F070020A430260207880070AD5F6
:101F5000E068296801F00F01884204D9296821F05E
:101F60000F01014329602078C0073ED05B49A26879
:101F70002868183920F470601043286060680228CF
:101F800018D0032819D00968012819D04907002959
:101F90004ADADFF848A1AAF1080A00E044E0DAF8DA
:101FA000002022F007020243CAF80020FEF75AFE82
:101FB000814612E009688903E9E709688901E6E7D3
:101FC000C905E4E7FEF74EFEA0EB090141F28830B7
:101FD000814202D90320BDE8F09F6168DAF8000071
:101FE00000F03800B0EBC10FECD1207880070AD5A3
:101FF000E068296801F00F01884204D2296821F0C5
:102000000F0101432960D8F80010404601F00F018C
:10201000B9420BD9016821F00F0139430160006812
:1020200000F00F00B84201D00120D4E7207840072B
:102030000AD52069296801F07001884204D2296814
:1020400021F0700101432960207800070AD56069FA
:10205000316801F07001884204D2316821F07001CA
:10206000014331602078C0060AD5A069316801F4C7
:10207000E061884204D2316821F4E06101433160BB
:10208000207880060CD5E1695846DBF8002002F084
:102090007002914204D2026822F070020A43026088
:1020A00000F09AF80E492A682B68C2F3032203F065
:1020B0000F038A5CC95C02F01F0201F01F01D040CF
:1020C000084A20FA01F111600749086007480068D2
:1020D000BDE8F05FFEF7A2BF00200052184402588E
:1020E00070590008200000241C0000241400002463
:1020F00070B5144C3F220260124A24680832131D46
:10210000114D04F00704446016681C1D06F4706647
:102110008660166806F00F06C660126802F070024C
:1021200002611A6802F0700242611A6802F4E06209
:102130008261226802F07002C261286800F00F001C
:10214000086070BD104402580020005230B500F005
:1021500043F80B4A0B490C4B15681468C5F303226E
:1021600004F00F048A5C095D02F01F0201F01F01F8
:10217000D040064A20FA01F119601060084630BDCF
:102180001844025870590008200000241C00002444
:1021900000B5FFF7DBFF05490968054AC1F30211E5
:1021A000515C01F01F01C84000BD00001C440258F2
:1021B0007059000800B5FFF7C9FF05490968054ACD
:1021C000C1F30221515C01F01F01C84000BD0000B5
:1021D0001C44025870590008454970B545480968C3
:1021E000434B103B11F0380208D00111082A03D0EC
:1021F000102A0BD0182A0BD0084670BD1968890622
:10220000FBD51968C1F3C101C84070BD3A4870BD23
:102210003749374D18310C1D24350A68096826687E
:102220002D6802F0030406F00102C1F30511C5F3A5
:10223000CC0515FB02F200EE102AB8EE400AE9B315
:102240002F4ADFED2E0AB7EE001A6CB1DFED2D1A22
:10225000012C01D0022C43D002EE101A1068F8EEC7
:10226000422A81EEA22A1EE01C68A40611D51B6832
:1022700001EE901A1168C3F3C103F8EE612AD84049
:1022800001EE900AC1F30800F8EE611A81EEA22A6D
:102290000BE001EE901ADFED1C2A00BFF8EE611A88
:1022A000106882EEA12AC0F3080001EE900AF8EE51
:1022B000611A40EE201A31EE810A00E015E022EEAC
:1022C000000A1068C0F34620401C00EE900AF8EEA9
:1022D000600A80EE201ABCEEC10A10EE100A70BD32
:1022E00001EE901ADFED092AD8E7002070BD00004A
:1022F000104402580090D00340787D01000000395E
:10230000304402580024744A0024744C20BCBE4B54
:102310002DE9F05F04007DD0FF4F2078FE4D183787
:10232000DFF8F493103DC00748D0D9F800003968B1
:1023300000F03800102815D0182803D101F0030050
:1023400002280FD06068B0F5803F12D010B1B0F510
:10235000A02F18D0286820F480302860286820F446
:10236000802009E02868800328D560680028D2D042
:1023700024E0286840F480302860606888B1FEF767
:1023800071FC064609E0286840F480202860F0E7E8
:10239000FEF768FC801B64286FD828688003F7D597
:1023A0000CE0FEF75FFC064605E000BFFEF75AFCB6
:1023B000801B6428F0D828688003F7D4207841F285
:1023C0000308D54E0C3E800769D5D9F8000039685E
:1023D00010F038000ED0182801D188070AD0E06824
:1023E00090B3296821F0190101432960FEF73AFCF6
:1023F000824631E02868400702D5E06800288AD08C
:10240000E168286820F0190008432860FEF72AFCDC
:10241000824607E0DFE000BFFEF724FCA0EB0A00E5
:102420000228B9D828684007F6D500BFFEF714FC8B
:1024300040451BD82069402812D0316821F47C31F6
:1024400041EA003030602AE018E000BFFEF70AFCE5
:10245000A0EB0A0002289FD828684007F6D5E5E7D8
:10246000306820F47C3040F40030EBE7207C3168A9
:1024700021F0FE4141EA0060E4E70DE1286820F028
:1024800001002860FEF7EEFB824605E0FEF7EAFB5E
:10249000A0EB0A0002288DD828684007F6D42078DF
:1024A000C0065DD5D9F80000DFF86CB2396800F0DD
:1024B0003800ABF1040B082810D0182803D101F024
:1024C000030001280AD0E0690028286838D040F0CD
:1024D00080002860FEF7C6FB824623E02868C0051E
:1024E00023D5E069802876D11FE0206A202821D0FA
:1024F000316821F0F84141EA8060306030E000BF8F
:1025000094F82010DBF8002022F07C5242EA0161AE
:10251000CBF8001024E000BFFEF7A4FBA0EB0A00FC
:10252000022898D82868C005F6D5FEF795FB4045E7
:10253000E6D8DAE7306820F0F84040F08040DCE789
:1025400020F080002860FEF78DFB064605E000BF06
:10255000FEF788FB801B02289DD82868C005F7D4A9
:102560002078000729D56C486169643000298046CD
:10257000016811D041F001010160FEF773FB0646CE
:1025800005E000BFFEF76EFB801B0228C9D8D8F813
:1025900000008007F6D510E021F001010160FEF790
:1025A00061FB064605E000BFFEF75CFB801B0228CE
:1025B00072D8D8F800008007F6D42078800623D59A
:1025C000A0690028286810D040F480502860FEF7E9
:1025D00049FB064605E036E1FEF744FB801B022876
:1025E0005AD828688004F7D50EE020F4805028607F
:1025F000FEF738FB064604E0FEF734FB801B02289A
:102600004AD828688004F7D4207840074FD5DFF8EF
:102610000C81D8F8001041F48071C8F80010FEF762
:1026200021FB064605E000BFFEF71CFB801B64286B
:1026300032D8D8F80000C005F6D5374EA06860360D
:1026400001280AD008B1052813D0306820F0010015
:102650003060306820F0040002E0306840F0010093
:102660003060A06841F2883A90B1FEF7FBFA8046EC
:102670000AE0306840F004003060EEE7FEF7F2FA5E
:10268000A0EB0801514507D830688007F6D50EE069
:10269000FEF7E8FA804607E084E000BFFEF7E2FAC2
:1026A000A0EB080151457DD830688007F6D4606AF8
:1026B000B0B3DFF86480D9F8001008F120084FF6B5
:1026C000F87B08F10409C1F3C2010329A8F1040A47
:1026D00069D00228286820F08070286003D0FEF7B7
:1026E000C1FA044684E0FEF7BDFA064605E000BFE5
:1026F000FEF7B8FA801B022877D828688001F7D443
:10270000E26A40F2F331386854F8283F884340EADF
:1027100002101843386004E0104402580048025880
:10272000B5E0217B434622894FF4FE0C208A4FF00E
:10273000FE474902267D521E401EA1F50071C2F3DC
:1027400008088AB2761E0CEA004042EA08020243F8
:10275000504607EA06610A431A60DAF8002022F0C0
:102760000102CAF80020D9F80020266A22EA0B02EA
:1027700042EAC602C9F80020DAF80010A26921F086
:102780000C011143CAF800100168E26921F002014E
:1027900011430160016841F480310160016841F436
:1027A000003101E021E027E00160016841F480216F
:1027B0000160016841F001010160286840F080700B
:1027C0002860FEF74FFA044605E000BFFEF74AFA1C
:1027D000001B022809D828688001F7D557E000BF00
:1027E000FEF740FA001B022802D90320BDE8F09F43
:1027F00028688001F4D44AE039680128D8F800003C
:1028000021D0A26A01F0030393421CD1E26AC1F312
:1028100005118A4217D1216BC0F30802491E8A4272
:1028200011D1616BC0F34622491E91420BD1A16BBD
:10283000C0F30642491E914205D1E16BC0F3066028
:10284000491E814201D00120D0E7A16C4E46D9F843
:102850000000C0F3CC00814219D0DAF800005546E0
:1028600020F00100CAF80000FEF7FCF94FEA00076B
:10287000FEF7F8F9B842FBD0A26C306820EA0B00F2
:1028800040EAC2003060286840F001002860002063
:10289000ACE7704770477047F0B590F83C20012ACC
:1028A0003BD01F4E012480F83C40022280F83D209E
:1028B00002681C4D5368B242D2F808C001D0AA4247
:1028C00003D14F6823F470033B430F6823F0700378
:1028D0001F4357600268B24213D0B2F1804F10D04C
:1028E000114B9A420DD0114B9A420AD0104B9A428A
:1028F00007D0AA4205D00F4B9A4202D00E4B9A4203
:1029000004D189682CF0800319439160002180F87C
:102910003D4080F83C100846F0BD0220F0BD0000AC
:102920000000014000040140000400400008004095
:10293000000C0040001800400040014010B50400A9
:1029400003D094F83D0010B107E0012010BD002035
:1029500084F83C00204600F023F8022084F83D0073
:102960002068211D01F05EFB012084F8480084F8F6
:102970003E0084F83F0084F8400084F8410084F869
:10298000420084F8430084F8440084F8450084F849
:10299000460084F8470084F83D00002010BD000088
:1029A00008B50068B0F1804F08D10548016841F0D2
:1029B00001010160006800F00100009008BD000006
:1029C000E844025890F83D10012901D001207047D9
:1029D000174A022180F83D100168CB6843F00103DB
:1029E000CB600068904214D0B0F1804F11D01149F3
:1029F00088420ED0104988420BD01049884208D036
:102A00000F49884205D00F49884202D00E498842BA
:102A100007D181680D4A1140062906D0B1F5803FE3
:102A200003D0016841F001010160002070470000FF
:102A3000000001400004004000080040000C00407D
:102A40000004014000180040004001400700010060
:102A500070B5044690F83C000025012814D03A4B8C
:102A6000012684F83C60022084F83D0022689068CA
:102A7000184020F47F409060086870282FD010DC48
:102A800010F00F0F03D022E04FF0020070BD4FEAAC
:102A90002012072A1BD2DFE802F0535353534B395D
:102AA0004100B0F1101F4BD009DCB0F5805F0FD0B2
:102AB000B0F5005F1ED0B0F5801F08D140E0A0F552
:102AC000801120393CD010293AD0202938D0012556
:102AD00084F83D60002084F83C00284670BD4A68B8
:102AE0002068D1E9021301F003FB2068816841F0FE
:102AF000770109E04A682068D1E9021301F0F8FA89
:102B00002068816841F480418160E1E7CA684968D2
:102B1000206801F09BFC2068502106E0CA684968E3
:102B2000206801F0A4FC2068602101F0EBFACFE7F7
:102B3000CA684968206801F089FC20684021F4E7F0
:102B4000226801461046F0E788FFCEFF2DE9F041EC
:102B500004000D4603D094F83D0018B108E00120B0
:102B6000BDE8F081002084F83C00204600F04CF8DD
:102B7000244A022084F83D00206881681140816069
:102B80002068211D01F04EFA226840F20336AF6939
:102B900040F60C4C2B684FF2F00EA86891680B437E
:102BA0009169B14341EA07210843D5E9031720EAB7
:102BB0000C00D5E9076C20EA0E00D2F820E03F01B6
:102BC00040EA062668686D69314347EA0C3793602E
:102BD00023680F4301219F612EF0AA0242EA0513E8
:102BE00022681843106284F8481084F83E1084F874
:102BF0003F1084F8441084F8451084F83D100020FC
:102C0000AEE70000F8BFFEFF10B586B00446142101
:102C10006846FDF7AEFD1249206888421ED1114872
:102C2000016841F002010160006800F002000590B7
:102C30000C480838016841F001010160006800217A
:102C4000C02200F00100059002200092CDE90101B0
:102C5000CDE9031004486946FDF7DEFE06B010BD5D
:102C600000040040E84402580000025870472DE973
:102C7000F041044600680027C6680569A90713D516
:102C8000B10711D5FA1E0261012121772068806900
:102C90008007204602D0FFF7E9FF04E000F0B2F819
:102CA000204600F074F92777680716D5700714D509
:102CB000226802206FF0040111612077206880698A
:102CC00010F4407F204602D0FFF7D0FF04E000F070
:102CD00099F8204600F05BF92777280715D53007CB
:102CE00013D5226804206FF0080111612077206855
:102CF000C0698007204602D0FFF7B8FF04E000F06B
:102D000081F8204600F043F92777E80616D5F0064B
:102D100014D5226808206FF0100111612077206817
:102D2000C06910F4407F204602D0FFF79FFF04E007
:102D300000F068F8204600F02AF92777E80708D065
:102D4000F00706D021686FF001000861204600F00E
:102D50001FF9280601D4A80408D5300606D5216835
:102D60006FF4025008612046FFF794FDE80508D58E
:102D7000300606D521686FF4807008612046FFF7A1
:102D800088FD680608D5700606D521686FF04000FA
:102D90000861204600F006F9A8060AD5B00608D555
:102DA00021686FF0200008612046BDE8F041FFF780
:102DB00072BDBDE8F081000010B586B00446142154
:102DC0006846FDF7D6FC2068B0F1804F14D10B485F
:102DD000016841F00101016000680021022200F059
:102DE0000100059001200090CDE90121CDE90310FB
:102DF00003486946FDF710FE06B010BDE0440258D6
:102E000000000258704770B5044690F83C00002658
:102E10000D4601280BD0012084F83C000C2A4AD032
:102E200007DC82B1042A20D0082A06D131E0022032
:102E300070BD102A53D0142A63D00126002084F8D4
:102E40003C00304670BD206801F066F92068816959
:102E500041F0080181612068816921F004018161EC
:102E600020682A698169114311E0206801F0A6F900
:102E70002068816941F4006181612068816921F4E1
:102E80008061816120682969826942EA012181614A
:102E9000D4E7206801F0DEF92068C16941F008013B
:102EA000C1612068C16921F00401C16120682A69FB
:102EB000C169114311E0206801F018FA2068C16966
:102EC00041F40061C1612068C16921F48061C16180
:102ED00020682969C26942EA0121C161AEE7206820
:102EE00001F040FA2068416D41F008014165206819
:102EF000416D21F00401416520682A69416D11434B
:102F000011E0206801F068FA2068416D41F4006129
:102F100041652068416D21F480614165206829691F
:102F2000426D42EA0121416588E710B5040003D0F3
:102F300094F83D0010B107E0012010BD002084F896
:102F40003C00204600F022F8022084F83D00206872
:102F5000211D01F067F8012084F8480084F83E0044
:102F600084F83F0084F8400084F8410084F842006F
:102F700084F8430084F8440084F8450084F846004F
:102F800084F8470084F83D00002010BD704770476A
:102F900000680349884201D1FEF70AB87047000073
:102FA00000140040704730B590F88410012918D003
:102FB000012280F884202421C0F8881000222024D7
:102FC00001680B680D6823F0005325F001050D60C2
:102FD000426601680B60C0F8884080F88420104683
:102FE00030BD022030BD70B5044690F88400012841
:102FF0001DD0012284F884202420C4F88800206891
:103000000568026822F0010202602068826822F0EE
:1030100060620A438260204601F044FA226820215F
:1030200000201560C4F8881084F8840070BD022068
:1030300070BD70B5044690F8840001281DD00122AF
:1030400084F884202420C4F8880020680568026879
:1030500022F0010202602068826822F060420A4386
:103060008260204601F01EFA2268202100201560AF
:10307000C4F8881084F8840070BD022070BD10B5BB
:10308000040003D0D4F8880010B107E0012010BD7F
:10309000002084F88400204600F026F82420C4F89C
:1030A00088002068016821F001010160A06A10B168
:1030B000204601F019FA204601F0FAFA0128E6D07C
:1030C0002068416821F4904141602068816821F0C6
:1030D0002A0181602068016841F0010101602046F9
:1030E000BDE8104001F064BA2DE9F041B6B00446E5
:1030F000142130A8FDF73DFBC0216846FDF739FBE0
:103100002D49022620680727294D0024DFF8A480D6
:1031100088421FD100201F940121CDE9001068468C
:10312000FEF7E2F908B1FDF709FC2148103001680B
:1031300041F010010160006800F01000359028682F
:1031400040F001002860286800F0010035904FF43D
:10315000C06020E01949884226D100201E94022137
:10316000CDE900106846FEF7BFF908B1FDF7E6FBB0
:103170000F480830016841F400310160006800F434
:1031800000303590286840F001002860286800F081
:10319000010035900C203090CDE93164CDE9334702
:1031A00030A94046FDF738FC36B0BDE8F08100009C
:1031B000E044025800000258001001400044004062
:1031C00010B5D0F88830202B01D0022010BD21B3DB
:1031D0001AB3A0F854200023A0F856204FF48054CE
:1031E000426E016521218367C0F89030C0F88810D5
:1031F000B2F1005F816812D0A14201D1016909B327
:1032000011498167026852E8001F41F0800142E8DD
:103210000013002BF6D1002010BD012010BDA142EB
:1032200001D1016961B1094981670168083151E83B
:10323000002F42F4000241E80023002BF5D1EAE719
:103240000349F1E70349DCE71B4B0008694B000821
:10325000B14A00085D4A0008FEE701688A69D24366
:10326000920701D400228A6200688169C943C907B4
:1032700003D0816941F00101816170472DE9F04778
:10328000044600680026894617464FF02008354658
:103290008169C90641D51021C1612FE0B9F1FF3F15
:1032A0002CD0FDF7DFFCC11B494502D8B9F1000F56
:1032B00024D12068426894F84210836902F4804265
:1032C000DB431B0415D4B2F5804F12D0202910D057
:1032D000416841F480414160FDF7C4FC074608E0C5
:1032E000FDF7C0FCC01B192803D9012645F02005B5
:1032F00004E020688069C0438006F1D420688069BA
:10330000C043800602D5002EC8D003E016B921685C
:10331000C1F81C80012645F0040521688869C205B2
:1033200005D54FF48072CA6145F0010501264105BB
:103330000AD5216880054FF4806245F00805CA610E
:103340004FF0010602D40AE0800507D52068012667
:103350004FF4007145F00205C16100E08EB12046D6
:10336000FFF77BFF20680021074F43683B40436025
:10337000606C2843606484F8418084F8421084F8CB
:1033800040103046BDE8F08700E800FE70B50068E8
:10339000C1F3090141EA0241074D049C19434FF46E
:1033A00080664268214306EA54532B439A4321F036
:1033B00000410A43426070BDFF63FF032DE9F04105
:1033C0001D4617460E460446DDF8188028E04246A2
:1033D00029462046FFF752FF10B10120BDE8F081D9
:1033E000681C1DD0FDF73EFCA0EB0800A84200D8E9
:1033F000B5B92068806936EA00000FD00020B842D5
:103400000ED1626C002084F84000202142F020029E
:10341000626484F8411084F84200DEE70120EEE7A0
:103420002068806936EA000004D00020B842CED07F
:103430000020D3E70120F9E770B516460D46044693
:103440001FE0324629462046FFF718FF08B1012049
:1034500070BDFDF707FC801BA84200D88DB920681D
:103460008069C04380060CD5626C002084F840005F
:10347000202142F02002626484F8411084F8420066
:10348000E5E720688069C0438006DAD4002070BD7B
:1034900070B516460D46044621E0324629462046C0
:1034A000FFF7ECFE08B1012070BD681C17D0FDF7D6
:1034B000D9FB801BA84200D88DB920688069C04321
:1034C00080070CD5626C002084F84000202142F077
:1034D0002002626484F8411084F84200E3E7206827
:1034E0008069C0438007D8D4002070BD00B587B084
:1034F00006491C226846FDF7E8F80021684601F0FD
:1035000069FC0349C86007B000BD00002C590008E1
:103510000000002470B586B014216846FDF729F933
:103520002A48016841F080010160016801F08001D2
:103530000591016841F004010160016801F0040196
:103540000591016841F001010160016801F001018C
:103550000591016841F00201016000684FF4C075F7
:103560001B4E002200F00200294605903046FDF770
:103570006EFB002407204FF488118DE81300694684
:103580003046FDF749FA01200095CDE9010469466E
:1035900030460394FDF740FA002209210620FDF78A
:1035A000F1FD0620FDF7E0FD00220A210720FDF7CE
:1035B000E9FD0720FDF7D8FD00220B210820FDF7CB
:1035C000E1FD0820FDF7D0FD06B070BDE0440258D3
:1035D000000802581348002110B5114C0123124A6B
:1035E0000460C0E90121C0E9033141618161C16129
:1035F0000162FDF793FB08B1FDF7A0F9094800212E
:10360000FDF736FB08B1FDF799F906480021FDF7F3
:103610005BFB002803D0BDE81040FDF78FB910BD5B
:1036200000540040E8020024B175703010B58EB02F
:1036300000241C21009407A801940294039404948C
:1036400005940694FDF795F81D484FF47A71F02221
:103650004FF08043C0E9024104618461C0E9003257
:10366000FFF76CF908B1FDF769F94FF4805000904D
:1036700013486946FFF7ECF908B1FDF75FF9104808
:10368000FFF753FC08B1FDF759F90D4804A904945C
:103690000694FFF701F908B1FDF750F96020CDE974
:1036A00007040748002207A909940B94FFF7ABFB16
:1036B00008B1FDF743F90248FFF77EFB0EB010BDDD
:1036C0003C03002410B58CB024216846FDF751F866
:1036D000154800244FF6FF72124B099401210A94F9
:1036E0000B94C0E90034C0E9024204618461CDE971
:1036F0000014CDE902140494CDE90541694607940C
:103700000894FFF723FA08B1FDF718F9064809A94C
:1037100009940B94FFF7C0F8002801D0FDF70EF9CB
:103720000CB010BD0004004088030024184800219C
:1037300010B5164C0C224FF4E1330460C0E901319E
:10374000C160C0E904128161C161016241628162AC
:10375000FFF795FC08B1FDF7F1F80D480021FFF7E0
:1037600068FC08B1FDF7EAF809480021FFF73BFCC7
:1037700008B1FDF7E3F80648FFF715FC002803D071
:10378000BDE81040FDF7DAB810BD000000100140A0
:10379000D40300241848002110B5164C0C224FF415
:1037A000E1330460C0E90131C160C0E90412816104
:1037B000C161016241628162FFF761FC08B1FDF7FE
:1037C000BDF80D480021FFF734FC08B1FDF7B6F84D
:1037D00009480021FFF707FC08B1FDF7AFF80648DC
:1037E000FFF7E1FB002803D0BDE81040FDF7A6B8C5
:1037F00010BD0000004400406804002400B587B0FC
:1038000014216846FCF7B5FF0C48016841F08001BF
:1038100001600068694600F0800005900848FDF7E7
:10382000FBF800208021009101226946CDE90120AA
:1038300003900448FDF7F0F807B000BDE0440258DB
:1038400000000258001C0258FEE7FEE7AE2010B54B
:1038500000F096F8202000F093F8102000F090F887
:10386000B02000F08DF8C82000F08AF8002000F0A9
:1038700087F8102000F084F8402000F081F88120C3
:1038800000F07EF8DF2000F07BF8A12000F078F84F
:10389000A62000F075F8A82000F072F83F2000F094
:1038A0006FF8A42000F06CF8D32000F069F8002035
:1038B00000F066F8D52000F063F8F02000F060F822
:1038C000D92000F05DF8222000F05AF8DA2000F04C
:1038D00057F8122000F054F8DB2000F051F82020B7
:1038E00000F04EF88D2000F04BF8142000F048F85E
:1038F00000F008F800F010F9BDE81040AF2000F02B
:103900003FB8000002484FF48061FCF710BF000090
:10391000E70500243CB51C78203A059DCDE900451B
:10392000E41DE5085C685B7815FB02F203FB0242CC
:1039300000F086F83CBD2DE9F8411E461546884644
:103940000446079F09E03346414620460097FFF7AB
:10395000E1FF70786D1C2044C4B22A78002AF2D1AD
:10396000BDE8F88108B54FF0FF320B467821009290
:1039700002460248FDF732FA08BD0000E8020024C2
:103980000249487002210148FFF7ECBF27000024DC
:103990002DE9FC4101F00704804607201546CE08BA
:1039A0001F46CDE9000302FA04F0C2B223464146A5
:1039B000304600F08BF8002C0CD0601EC0B2CDE970
:1039C0000007C4F10801701C25FA01F200234146EA
:1039D00000F07CF8BDE8FC812DE9FC4314468146EB
:1039E00001F007021F4601F00705099E04FA02F0E4
:1039F0004FEAD108E919082916D907212B46CDE944
:103A00000016C2B24946404600F060F878190938FD
:103A1000C5F10801C0B2CDE9000624FA01F2002385
:103A2000494608F1010007E0491E2B46C9B2CDE91D
:103A30000016C2B24946404600F048F8BDE8FC8393
:103A40002DE9FF4F82B01C46934688460F98C70861
:103A5000002600F0070001901AE000BF0298002540
:103A60000BEB060A00EB06090EE000BF15FB04F1A4
:103A700008EBC50309F0FF0011F80A20D9B2109B2A
:103A8000FFF786FF6D1CEDB2BD42EFD3761CF6B298
:103A9000A642E3D30198002815D004FB07F60025C1
:103AA00008EBC7070DE0109872190090F9B2029860
:103AB0001BF802204319D8B2019BFFF78DFF6D1C44
:103AC000EDB2A542EFD306B0BDE8F08FF0B50828FF
:103AD000DDE905741AD2802918D20CB1D243D2B2D2
:103AE000FF257F1CC3F10806094B05FA07F444EAD9
:103AF0000207F540A24303EBC013AA4347EA0504BB
:103B0000044D585C204010432A705854F0BD00000A
:103B1000E70500242500002470B5104D40205FF01B
:103B2000000405F18106287004F1B000C0B2FFF76F
:103B300027FF0020FFF724FF1020FFF721FF80223E
:103B4000681C06EBC411FCF77BFD04488121FFF7DC
:103B500009FF641CE4B2082CE6D370BD660500249E
:103B600086B00D4D0024142101A8FCF702FE6A88DE
:103B70000AA101A8FCF7E0FCFFF7C4FE01210A4BF3
:103B800001AA08460094FFF7D6FEFFF7C5FF3220D2
:103B900001F044FCE7E70000000000245370656575
:103BA000643A256400000000F45D00082DE9F04748
:103BB000454D044689464FF0000A2868C0438007F7
:103BC0000AD0414E283E306820F080603060FDF71A
:103BD00049F80746B04608E00120BDE8F08700BF7D
:103BE000FDF740F8C01B022867D8D8F80000000194
:103BF000F6D4206829684FF4FE0721F47C313E0298
:103C000041EA00302860207AA389B4F804C0400259
:103C10002D4D2D495B1E227CACF1010C1035091D88
:103C2000A0F5007080B2521ECCF3080C07EA0343E3
:103C300040EA0C00184306EA026210432860086854
:103C4000626920F0C000104308600A68A06922F091
:103C5000200202430A60281D0A6822F010020A604E
:103C600002684FF6F873E4699A4342EAC4020260BC
:103C70000868B9F1000F40F010020A6011D008681E
:103C8000B9F1010F11D040F400100860D8F800001D
:103C9000444640F08060C8F80000FCF7E3FF0546AA
:103CA0000DE0086840F40020EFE740F48010ECE7F6
:103CB000FCF7D8FF401B022801D903208DE72068BC
:103CC0000001F5D5504688E7284402582DE9F04711
:103CD000454D044689464FF0000A2868C0438007D6
:103CE0000AD0414E283E306820F080503060FCF70A
:103CF000B9FF0746B04608E00120BDE8F08700BFE5
:103D0000FCF7B0FFC01B022867D8D8F8000080007D
:103D1000F6D4208829684FF4FE0721F07C713E021A
:103D200041EA00502860207AA389B4F804C0400218
:103D30002D4D2D495B1E227CACF1010C1835091D5F
:103D4000A0F5007080B2521ECCF3080C07EA0343C2
:103D500040EA0C00184306EA026210432860086833
:103D6000626920F44060104308600A68A06922F488
:103D7000007202430A60281D0A6822F480720A60F9
:103D800002684FF6F873E4699A4342EAC40202609B
:103D90000868B9F1000F40F480720A6011D0086819
:103DA000B9F1010F11D040F080700860D8F8000020
:103DB000444640F08050C8F80000FCF753FF054629
:103DC0000DE0086840F48000EFE740F40000ECE705
:103DD000FCF748FF401B022801D903208DE720682B
:103DE0008000F5D5504688E7284402581CB501F0FC
:103DF0009DFA0E480224002380220DA1CDE9004047
:103E00000E4801F06DFC094800238022001D0CA122
:103E1000CDE900400C4801F063FC01F0A7FA002056
:103E200001F022FB012000F0C9FFFBE704000024A1
:103E30004F4C45445461736B00000000613B000827
:103E40005A44545461736B00DD4C0008502010B587
:103E500080F31188BFF34F8FBFF36F8F01F098FC91
:103E600018B104494FF080500860002080F3118899
:103E700010BD000004ED00E030B59DB04C21684657
:103E8000FCF777FC202113A8FCF773FC0220FDF758
:103E9000ABF9214800242149026842F44042026003
:103EA00002680A6842F001020A60096801F0010133
:103EB0001B9101688904FCD50220009040250495DF
:103EC0000121039104220B923C23CDE90904CDE9A1
:103ED0000C300FAB0E900C2183E81300684612944F
:103EE000FEF716FA08B172B6FEE708221A95CDE978
:103EF0001625D30113AA3F200321CDE9185382E8E8
:103F00001300042113A8FDF7C5FF002801D072B6E5
:103F1000FEE71DB030BD0000184802582C040058C0
:103F20003348F0B5334A016841F47001016010680C
:103F300000F00F00072804D2106820F00F00C01D09
:103F400010602D4900202C4C10340B682B4D43F091
:103F500001030B6020600B682B400B60136803F0BB
:103F60000F03072B04D9136823F00F03DB1D136025
:103F7000214C234A1834234B261D371D20601E4C2C
:103F8000214D28343060261D3860371D23603B1DCD
:103F900035601C1D3A60251D2E1D1860331D2260E2
:103FA0002860326018600A68134B184C22F4802293
:103FB00060330A60186020686FF30F00B0F1005F93
:103FC00003D213490120C1F808010B48D43001681D
:103FD000C9040BD4026843F2D2010E4B42F4805262
:103FE00002601960016821F480510160F0BD000099
:103FF00088ED00E000200052004402587FEDF6EA10
:1040000080020101000202020000FF010010005CBA
:1040100000800051004000520148FEF728BE000019
:10402000FC0400242DE9F047294B4FF0804A294D2C
:1040300002689842284E294F294C09D0504507D094
:10404000A84205D0B04203D0B84201D0A04205D169
:10405000D1F804C022F070024CEA0202DFF884C0FA
:10406000DFF884809842DFF884900FD050450DD05F
:10407000A8420BD0B04209D0B84207D0A04205D028
:10408000604503D0404501D0484503D1CD6822F4B6
:1040900040722A438E684D6922F08002C6620E6823
:1040A0002A439842866207D0A04205D0604503D0DB
:1040B000404501D0484501D10969016303680121E8
:1040C00043F00403036041610260BDE8F087000033
:1040D000000001400004004000080040000C0040C7
:1040E00000040140004001400044014000480140FC
:1040F00042EA032283680A4323F47F410A43826031
:1041000070470000034B82681A400A4342F00701DF
:10411000816070478FFFCFFF2DE9F04FDFF884807B
:10412000214EDFF88890DFF888B0026A036AB04257
:10413000DFF880A022F0020C1F4F23F00102026280
:10414000426885698B680C6805EA080525F0030557
:1041500043EA0C0344EA050407D0484505D0584516
:1041600003D0504501D0B84205D1CD6823F00803F3
:104170001D4325F00403B04207D0484505D05845FB
:1041800003D0504501D0B84205D122F44076D1E9A0
:10419000055235432A4342608461496841630362A2
:1041A000BDE8F08F8FFFFEFF0000014000040140DA
:1041B000004001400044014000480140F0B5DFF8F4
:1041C0007CE01F4C1F4D026A036AA04222F02006C9
:1041D00023F01003036242688369D1F808C00F68B6
:1041E00003EA0E0323F4407E46EA0C134EEA072648
:1041F00001D0A84206D1CF6823F0800343EA071319
:1042000023F04003A0420AD0A84208D00E4CA0429E
:1042100005D00E4CA04202D00D4CA04207D1D1E9EE
:10422000054522F4406242EA840242EA8502426085
:104230008661496881630362F0BD0000FF8FFFFE65
:1042400000000140000401400040014000440140E2
:1042500000480140F0B5DFF87CE01F4D1F4E026AB8
:10426000036AA84222F4007723F480730362436850
:10427000C269D1F808C002EA0E020C6822F0030EEF
:1042800047EA0C2244EA0E0401D0B04206D1CF68BE
:1042900022F4006242EA072222F48062A8420AD095
:1042A000B04208D00E4DA84205D00E4DA84202D013
:1042B0000D4DA84207D1D1E9055623F4405343EAF6
:1042C000051343EA06134360C4614968C16302628F
:1042D000F0BD00008FFFFEFF000001400004014020
:1042E000004001400044014000480140F0B5046A2C
:1042F000026A22F4805202624268C36924F40054C4
:10430000DFF848C08E680D6803EA0C03104F23F4F1
:10431000407344EA0634B84243EA05230BD00D4DFE
:10432000A84208D00C4DA84205D00C4DA84202D09E
:104330000B4DA84204D14D6922F4804242EA851215
:104340004260C361496801640462F0BDFF8FFFFEF3
:1043500000000140000401400040014000440140D1
:1043600000480140F0B5164F164B026A046A9842A5
:1043700022F4003524F4803303624268436D0E89D1
:104380000C6803EA070344EA030445EA06430BD03A
:104390000D4DA84208D00D4DA84205D00C4DA842A5
:1043A00002D00C4DA84204D14D6922F4803242EA79
:1043B000052242604465496881650362F0BD0000E2
:1043C0008FFFFEFF0000014000040140004001405B
:1043D0000044014000480140F0B5164F164B026AF8
:1043E000046A984224F48013036222F400144268A1
:1043F000436D0E890D6803EA070344EA065443EA55
:1044000005230BD00D4DA84208D00D4DA84205D074
:104410000C4DA84202D00C4DA84204D14D6922F4A3
:10442000802242EA8522426043654968C165046290
:10443000F0BD0000FF8FFFFE0000014000040140BE
:1044400000400140004401400048014010B5036AAB
:10445000046A23F00A0324F00104046284690B4314
:1044600024F0F00141EA02118161036210BD10B530
:10447000036A046A23F0A00324F010040462846930
:1044800043EA011124F4704343EA0232826101627B
:1044900010BD00008AB201460148FEF791BE00003F
:1044A0006804002430B5416EB9B101680D4B03F1C9
:1044B00008048A688968C2F34262490F5D5C615CE6
:1044C0002D01B5FBF1F1A0F86A10995CA25C09011D
:1044D000B1FBF2F1A0F8681030BD0121A0F86A101C
:1044E000F8E700006059000890F82810090706D581
:1044F0000168836B4A6822F400421A434A6090F8CC
:104500002810C90706D00168C36A4A6822F400323D
:104510001A434A6090F82810890706D50168036B92
:104520004A6822F480321A434A6090F828104907FA
:1045300006D50168436B4A6822F480221A434A6018
:1045400090F82810C90606D50168C36B8A6822F462
:1045500080521A438A6090F82810890606D50168AF
:10456000036C8A6822F400521A438A6090F828107B
:10457000490611D50168436C4A6822F480121A4337
:104580004A60416CB1F5801F06D10168836C4A68AE
:1045900022F4C0021A434A6090F82810090606D592
:1045A0000168C26C486820F40020104348607047DE
:1045B0002DE9F84300250446C0F89050FCF752FB63
:1045C0008046206820266FF07E470068000713D5DC
:1045D0000022434631042046009700F0F8FA58B113
:1045E000216851E8000F20F0800041E80002002A15
:1045F000F6D1C4F8886021E020680068400722D521
:10460000002243464FF480012046009700F0DFFA75
:10461000C8B1206850E8001F21F4907140E80012F2
:10462000002AF6D12068083050E8001F21F001016F
:1046300040E80012002AF5D1C4F88C60032084F809
:104640008450BDE8F883C4F88860C4F88C60E566DF
:104650002567002084F88450F3E7000010B5026855
:1046600052E8001F21F4907142E80013002BF6D1AC
:104670000E4B0268083252E8001F194042E800144D
:10468000002CF6D1C16E012908D1026852E8001F42
:1046900021F0100142E80013002BF6D10021202266
:1046A000C0F88C20C166416710BD0000FEFFFFEF1F
:1046B0002DE9F04304468068D84E87B0D84B216876
:1046C000D4E90427D4F81CC010430A68002547EA3F
:1046D0000C073843324002430A602068E2684168B0
:1046E00021F44051114341602268A1699A4201D0EE
:1046F000206A01439768DFF82CC3CB4ECB4807EA0A
:104700000C070F4397602168676ACA6A22F00F029C
:104710003A43CA622268B2420ED1006800F0380003
:10472000182873D047DCB8B3082879D010286FD187
:1047300078E028287ED17BE0BD498A4209D1006813
:1047400000F00700062875D2DFE800F0546A6C6EAE
:104750007072B8498A4209D1006800F00700062843
:1047600068D2DFE800F0475D5F616365B2498A4265
:1047700009D1006800F0070006285BD2DFE800F0EE
:104780003A5052545658AD498A420BD1006800F055
:10479000070006284ED200E010E0DFE800F02B41D1
:1047A00043454749A6498A420AD1006800F03800CB
:1047B000182839D0B7DD2028BBD13CE001203AE0F1
:1047C000A0498A4209D1006800F00700062831D2CA
:1047D000DFE800F01026282A2C2E9B498A420BD1B4
:1047E000006800F00700062824D2DFE800F0031973
:1047F0001B1D1F2100201EE09A421BD18B48001D6B
:10480000006800F00700062814D202E00CE007E080
:1048100010E0DFE800F0030507090B0D02200AE0B5
:10482000042008E0082006E0102004E0202002E038
:10483000402000E080208549DFF814829A42854AB2
:104840004FF400434FEA21174FF000064ED11028D5
:104850001AD006DC022809D004280BD008287CD105
:104860000DE020283ED0402877D13DE0FCF7E6FC63
:10487000014610E06846FCF7F3FC01990BE003A841
:10488000FCF790FD049906E01068800605D51068D5
:10489000C0F3C100C140002970D0606A676838F871
:1048A000102007EB4703B1FBF2F0834255D8B0EB81
:1048B000073F52D8002308461946FBF7C5FD0246BC
:1048C0007808130E120243EA012110183A4671418A
:1048D0000023FBF7B9FD604AA0F5407191423CD836
:1048E00021688FE03946D8E71946D6E7D4F81CC0CE
:1048F0004FF6EF799C4546D1082819D005DC58B110
:1049000001280CD0042875D10DE0102815D02028DE
:1049100035D040286ED134E0FDF73AFC01E0FDF7D8
:1049200049FC014610E06846FCF79AFC01990BE04F
:1049300003A8FCF737FD049906E01068800604D54B
:104940001068C0F3C100C140C1B1636A606838F843
:104950001330B1FBF3F1490000E04BE001EB5001F3
:10496000B1FBF0F0A0F11001494543D84FF6F073C8
:104970002168C0F342021840104343E043E0394647
:10498000E3E71946E1E7082819D005DC58B101280A
:104990000CD004282ED10DE0102815D020282BD0C3
:1049A000402827D12AE0FDF7F3FB01E0FDF702FCE8
:1049B000014610E06846FCF753FC01990BE003A8A0
:1049C000FCF7F0FC049906E01068800604D5106836
:1049D000C0F3C100C140B1B1636A606838F81330F8
:1049E000B1FBF3F101EB5001B1FBF0F0A0F11001CC
:1049F000494505D9012506E03946EDE71946EBE7BB
:104A0000216880B2C8600120A4F86A00A4F8680098
:104A100028466667A66707B0BDE8F083F369FFCF55
:104A2000000C0058FFF4FF110010014054440258DC
:104A30000044004000480040004C0040005000404E
:104A40000014014000780040007C00400090D0033A
:104A50004859000800440258FFFC0F00D0F88810A5
:104A6000212910D1B0F8561071B1016D0268098882
:104A7000C1F308019162016D891C0165B0F85610FF
:104A8000491EA0F856107047026852E8001F21F036
:104A9000800142E80013002BF6D1026852E8001FA3
:104AA00041F0400142E80013002BF6D170470000AE
:104AB000D0F8881021291BD1B0F86A1016E000BF89
:104AC000B0F85620AAB10268D3691B060CD5036D55
:104AD0001B88C3F308039362026D921C0265B0F851
:104AE0005620521EA0F85620491E89B20029E7D14F
:104AF00070470168083151E8002F22F4000241E8B4
:104B00000023002BF5D1026852E8001F41F040015C
:104B100042E80013002BF6D17047D0F88810212905
:104B20000ED1B0F8561061B1016D0268097891623A
:104B3000016D491C0165B0F85610491EA0F85610C9
:104B40007047026852E8001F21F0800142E800131C
:104B5000002BF6D1026852E8001F41F0400142E804
:104B60000013002BF6D17047D0F88810212919D1F5
:104B7000B0F86A1014E000BFB0F856209AB102688D
:104B8000D3691B060AD5036D1B789362026D521C14
:104B90000265B0F85620521EA0F85620491E89B270
:104BA0000029E9D170470168083151E8002F22F44B
:104BB000000241E80023002BF5D1026852E8001FF3
:104BC00041F0400142E80013002BF6D170472DE977
:104BD000F047994617460D460446089E4FF00008D8
:104BE00033E0701C31D0FCF73DF8A0EB0900B04277
:104BF00018D8BEB120680168490726D5802D24D079
:104C0000402D22D0C169C94309070DD4082505628A
:104C10002046FFF723FDC4F89050012084F88480DB
:104C2000BDE8F0870320FBE7C069C04300050CD452
:104C300021684FF4006008622046FFF70FFD202135
:104C4000C4F8901084F88480ECE72068C06935EAE5
:104C5000000004D00020B842C3D00020E0E70120CB
:104C6000F9E7FEE7024801780248FFF713BC0000AD
:104C7000240000244805002405A10422096860F3EB
:104C800007010448016004480270FFF7EBBF000011
:104C900000FF666B4805002424000024F0B40BA438
:104CA000160A0827D4E9005460F30705094862F39F
:104CB000070461F3174563F30F2466F31F6505606E
:104CC000446005480770F0BCFFF7CCBF01F6000058
:104CD0000000016B4805002424000024094C4FF417
:104CE0007A750121084623786288FFF7D7FF0120F3
:104CF00000F094FB0120FFF7BFFF284600F08EFB79
:104D0000EFE7000000000024090700284FEA1161C6
:104D100004DB00F1E02080F80014704700F00F0081
:104D200000F1E02080F8141D70471FB500240094A6
:104D3000019402940394FCF7E5F901208DF80C002E
:104D40001F218DF8081087228DF809208DF80D009D
:104D50008DF8000068468DF80A408DF80E408DF8F9
:104D6000014001948DF80B408DF80F40FCF79CF941
:104D70000420FCF7D5F9FCF723F9FFF77DF8FEF7DF
:104D8000C9FBFEF707FDFEF7D1FCFEF723FCFEF79B
:104D90004DFCFEF797FCFEF731FD6420FBF7DEFDCE
:104DA000FEF754FDFEF7A2FB00F00FF8FEE78428A3
:104DB00001464FF0000000D0C81C704710B500B984
:104DC000012000F02BFB002010BD10B500F0A2FB6D
:104DD000002010BD7FB50D4641690446B0F90800BA
:104DE00081B1A16971B1FFF7E2FFD4E905122B4649
:104DF0008DE807002269D4E9001000F09EFC0390C2
:104E000004B070BDFFF7D3FF03A92B46CDE9000125
:104E1000228AD4E9001092B200F062FC012801D08D
:104E20000020EDE70398EBE72DE9F041184C0F4621
:104E30000546E6682068001D00F026FA38B92268A9
:104E40000121206992F82C20914088432061681C40
:104E500007D137B12168BDE8F0410E48091D00F0C7
:104E600059BA20683544B5424560216805D2A06B27
:104E7000091DBDE8F04100F035BA606B091D00F076
:104E800031FAA06A854200D2A562BDE8F081000037
:104E90002C000024C40A00242DE9F041054600F04E
:104EA00045FA2E4C2E4FA068401CA060206810B11F
:104EB000606940B32DE02560A068012829D1002653
:104EC00006EB860007EB800000F0FEF9761C072E4B
:104ED000F6D323488C3000F0F7F92148A03000F0D9
:104EE000F3F91F48B43000F0EFF91D48C83000F066
:104EF000EBF91B48DC3000F0E7F919488C306063AF
:104F00001430A06305E0E86A2168C96A814200D8CC
:104F100025600120616A491C6162E96A2269884052
:104F20001043206101EB8100291D07EB800000F098
:104F3000F1F900F01BFA606900280CD02068E96ADA
:104F4000C06A884207D207494FF080500860BFF31B
:104F50004F8FBFF36F8FBDE8F08100002C0000245D
:104F6000E809002404ED00E010B5044690F8510073
:104F700058B101280CD002280FD0502080F311889E
:104F8000BFF34F8FBFF36F8FFEE7206B00F002FA85
:104F90002046BDE8104000F0FDB910BD11484FF4A7
:104FA000705110B5420706D00E49C01D20F0070011
:104FB000411AC1F570510C4C002301440839A4F189
:104FC000180221F00701C4E900030C1A11604B60BC
:104FD0000B60C0E9001494604FF0004154605161CF
:104FE00010BD0000D80A002480000024144E4FF0A9
:104FF0008058144CDFF85090A6F1C80712E000BFAB
:1050000000F094F9F068C568281D00F03DF9A0682B
:10501000401EA0606068401E606000F0A7F928464E
:10502000FFF7A2FF60680028EAD138680128F9D9A3
:10503000C9F80080BFF34F8FBFF36F8FF2E7000016
:10504000B00A00242C00002404ED00E02DE9F04714
:105050009A4681466FF00303DDE9098403EB82027F
:10506000089E206B104420F00707780707D05020D7
:1050700080F31188BFF34F8FBFF36F8FFEE74FF0C0
:10508000000561B1002023180A5C83F834200A5C13
:1050900012B1401C1028F6D384F8435001E084F884
:1050A0003450072E00D30626E662201DC4E91165A0
:1050B00000F015F904F1180000F011F9E564C6F1EB
:1050C0000700A06184F85050524624614946384692
:1050D000646200F0C1F8B8F1000F206001D0C8F898
:1050E0000040BDE8F087000030B5114900E01146EE
:1050F0000A688242FBD34B685C18844203D144683F
:10510000084623444B6043681D18954209D1084C5A
:10511000183C2468A24209D052681A4442600A68C6
:1051200012680260814200D0086030BD0460F9E777
:10513000800000240648416B096829B1416BC968A9
:10514000C9684968816270474FF0FF31FAE7000093
:105150002C00002408484068401C4FF0500080F3A9
:10516000118804D0BFF34F8FBFF36F8FFEE7BFF3FB
:105170004F8FBFF36F8FFEE7880000242DE9F041C9
:105180000027044600F0FCF9324E306808B9FFF7FA
:1051900005FF706904424ED1C4B3083460070ED0D5
:1051A00004F00700C0F108000444600707D0502055
:1051B00080F31188BFF34F8FBFF36F8FFEE72CB3DF
:1051C0007068844237D82348183001460D6801E0E2
:1051D00028460D466968A14202D229680029F7D104
:1051E00031688D4227D007682968016008376868F0
:1051F000011B10290FD92819420708D0502080F32D
:105200001188BFF34F8FBFF36F8FFEE713E041604C
:105210006C60FFF769FF69687068401A7060B26877
:10522000904200D2B060002072691143C5E90001CC
:10523000F068401CF06000F011FB780707D05020A8
:1052400080F31188BFF34F8FBFF36F8FFEE73846AF
:10525000BDE8F0816800002470B5041F094E231FCB
:105260004FF0807521F0010125601C1F1960A0F12D
:1052700020010B1F266044380A606FF002051D6094
:1052800070BD000055510008D0E9013201699A60F3
:10529000D0E901235A604A68824201D182684A609B
:1052A000002202610868401E08600868704700001C
:1052B00010B5044C8023046004F1540008601360AE
:1052C00010BD0000940000244FF0FF3300F10801EE
:1052D0000022C0E901130260C16001617047002132
:1052E0000161704730B50B685A1C02D000F108020A
:1052F00002E0026904E02246546825689D42FAD91A
:1053000053684B6099608A60516008610168491C6C
:10531000016030BD42684A6093688B609368596051
:10532000916008610168491C01607047502080F35A
:105330001188BFF34F8FBFF36F8F0A494868401C35
:10534000486001280CD10848006810F0FF0F07D012
:10535000502080F31188BFF34F8FBFF36F8FFEE7AC
:10536000704700008800002404ED00E00849486808
:1053700028B1401E486001D180F311887047502049
:1053800080F31188BFF34F8FBFF36F8FFEE70000EC
:105390008800002470B500282AD0164DA0F108041A
:1053A00061686869014207D1502080F31188BFF31A
:1053B0004F8FBFF36F8FFEE722683AB1502080F322
:1053C0001188BFF34F8FBFF36F8FFEE7814361609A
:1053D00000F0D6F860686968084468602046FFF706
:1053E00083FE2869401C2861BDE8704000F036BA91
:1053F00070BD0000680000244FF0E0200021016132
:105400004FF47A728161072303490968B1FBF2F115
:10541000491E4161036170471C000024020010B561
:1054200014D00F48006B38B1502080F31188BFF3BF
:105430004F8FBFF36F8FFEE700F0A2F800211046F8
:10544000FFF7F2FC00F00AFA002807D105494FF0F7
:1054500080500860BFF34F8FBFF36F8F10BD000007
:105460002C00002404ED00E070B50546FFF75EFF58
:10547000254C05B92568281DFFF706FF58B9E86ACD
:10548000224A00EB800152F8211021B92269012142
:1054900081408A432261A86A18B105F11800FFF71C
:1054A000F3FE606A401C60622068854208D117489C
:1054B000291DC830FFF72EFF6068401C606007E0C0
:1054C000A068401EA0602846FFF74EFDFFF732FEA1
:1054D000FFF74CFF6069002814D02068854211D185
:1054E000206B38B1502080F31188BFF34F8FBFF38A
:1054F0006F8FFEE706494FF080500860BFF34F8F73
:10550000BFF36F8F70BD00002C000024E809002459
:1055100004ED00E010B586B0002405AA04A90394A8
:1055200003A80494FFF7C4FEDDE9030100940023FF
:10553000CDE9011010480EA1059A00F0FEF80F49C0
:105540000028C86211D0502080F31188BFF34F8F1C
:10555000BFF36F8F01224FF0FF3088624A61CC6049
:1055600006B0BDE8104000F041B806B010BD000024
:1055700049444C4500000000ED4F00082C00002479
:105580000248016B491C0163704700002C00002495
:105590001448016B11B10121C16170470021C16143
:1055A00011490269B2FA82F2C2F11F0202EB8202D1
:1055B00051F822306BB101EB820101F108034A6816
:1055C00052684A609A4201D152684A60D1680160CB
:1055D0007047502080F31188BFF34F8FBFF36F8F58
:1055E000FEE700002C000024E809002437481CB521
:1055F000374902688A4207D1502080F31188BFF3EF
:105600004F8FBFF36F8FFEE731490068491E884214
:1056100007D1502080F31188BFF34F8FBFF36F8FF6
:10562000FEE72C49FF200A780192087008788DF86F
:1056300000009DF800209DF8000002F0F002824278
:1056400007D0502080F31188BFF34F8FBFF36F8FC7
:10565000FEE79DF8002007201F4C02F05002227048
:10566000A06005E09DF8002052008DF80020401E4B
:105670009DF800201206F5D40328A06007D0502022
:1056800080F31188BFF34F8FBFF36F8FFEE74FF4A6
:105690004070A060019808700C482030016841F407
:1056A00070010160016841F070410160FFF7A4FEE4
:1056B00000206060FAF768FE0848016841F0404148
:1056C0000160FAF74DFE00201CBD000000ED00E077
:1056D00071C20F4100E400E08800002434EF00E0D4
:1056E0002DE9FF5F994616468A4683469000DDE91C
:1056F0000E87FFF743FD05001CD05420FFF73EFD49
:10570000040014D00020256384F851004B46CDE9F5
:105710000087CDE90240324651465846FFF796FCD5
:105720002046FFF7B9FB012004B0BDE8F09F2846F2
:10573000FFF730FE4FF0FF30F6E7F0B585B0DDE95A
:105740000B740A9DA7B1DCB154262763022684F8A6
:105750005160002703970DF1100C0095CDE901C4AD
:10576000FFF774FC2046FFF797FB049805B0F0BDE7
:10577000502080F31188BFF34F8FBFF36F8FFEE788
:10578000502080F31188BFF34F8FBFF36F8FFEE778
:105790002DE9F0412F4C206B002728B1A069401C57
:1057A000A0613846BDE8F081E668761CE66013D15A
:1057B000606B006838B1502080F31188BFF34F8FC1
:1057C000BFF36F8FFEE7606BA16B6163A063206A1C
:1057D000401C2062FFF7AEFCDFF87C80A06A8642A6
:1057E00009D3606B0068A0B1606BC068C568686869
:1057F000864211D2A0622068C06A00EB800158F88E
:105800002100012800D90127E0690028C9D001271B
:10581000C7E74FF0FF30EDE7281DFFF735FDA86A19
:1058200018B105F11800FFF72FFDE96A0120226980
:1058300088401043206101EB810108EB8100291DA4
:10584000FFF768FD2068E96AC06A8142C9D3012771
:10585000C7E700002C000024E80900242DE9F047E8
:105860002C4D286B0024264638B1FFF75FFD286BCE
:10587000401E2863286B40B147E0502080F3118818
:10588000BFF34F8FBFF36F8FFEE7234F0120A9684F
:10589000D9B3A7F1B40980463868E8B1F868C4689C
:1058A00004F11800FFF7F0FC201DFFF7EDFCE16AA2
:1058B0002A6908FA01F01043286101EB810109EB24
:1058C0008100211DFFF726FD2968E06AC96A884228
:1058D000E2D3C5F81C80DFE70CB1FFF72BFCAC6905
:1058E00044B14746FFF754FF00B1EF61641EF9D1A0
:1058F0000020A861E86940B1084901264FF08050B6
:105900000860BFF34F8FBFF36F8FFFF72FFD304657
:10591000BDE8F0872C0000249C0A002404ED00E080
:105920004FF04070E1EE100A70470000FC5D000887
:10593000ED3D0008000000000000000080000000B5
:10594000000000000000000001000200040006004A
:1059500008000A000C001000200040008000000138
:10596000010101030701000008040204080101010C
:1059700000000000010203040102030406070809F5
:105980000000000000000000000000000000FC001B
:105990000000000002000000000C020C02000000E9
:1059A0000000000090D0BCD0BC90000300030000B9
:1059B0001824FE448C000302070201001824D8B00A
:1059C0004C80000300010201C038E438E00001020D
:1059D00002010202080600000000000000000000B2
:1059E000000000F80402000000010204000204F8B4
:1059F00000000004020100009060F86090000000C8
:105A0000010000002020FC20200000000100000018
:105A100000000000000008060000000020202020F8
:105A20002000000000000000000000000000000254
:105A3000000000000080601C020004030000000061
:105A4000F8040404F8000102020201000008FC004E
:105A5000000000020302000018844424180003021E
:105A60000202020008042424D800010202020100FC
:105A700040B088FC80000000000302003C24242485
:105A8000C400010202020100F824242CC00001021B
:105A9000020201000C04E41C0400000003000000EA
:105AA000D8242424D80001020202010038444444CE
:105AB000F8000003020201000000100000000000D6
:105AC00002000000000020000000000006000000AE
:105AD0000020508804020000000001029090909085
