:020000040800F2
:10000000C00600202D0200081B100008C10F0008C8
:1000100019100008F50400087F1200080000000015
:100020000000000000000000000000001F10000899
:10003000F7040008000000001D100008211000084F
:10004000470200084702000847020008470200086C
:10005000470200084702000847020008470200085C
:10006000470200084702000847020008470200084C
:10007000470200084702000847020008470200083C
:10008000470200084702000847020008470200082C
:10009000470200084702000847020008470200081C
:1000A000470200084702000847020008470200080C
:1000B00047020008470200084702000847020008FC
:1000C00047020008470200084702000847020008EC
:1000D00047020008470200084702000847020008DC
:1000E00047020008470200084702000847020008CC
:1000F00047020008470200084702000847020008BC
:1001000047020008470200084702000847020008AB
:10011000470200084702000847020008470200089B
:10012000470200084702000847020008470200088B
:10013000470200084702000847020008470200087B
:10014000470200084702000847020008470200086B
:10015000470200084702000847020008470200085B
:10016000470200084702000847020008470200084B
:10017000470200084702000847020008000000008C
:10018000470200084702000800F002F800F03EF8BD
:100190000AA090E8000C82448344AAF10107DA45E2
:1001A00001D100F033F8AFF2090EBAE80F0013F0F6
:1001B000010F18BFFB1A43F0010318477411000028
:1001C00094110000103A24BF78C878C1FAD85207B9
:1001D00024BF30C830C144BF04680C6070470000C1
:1001E0000023002400250026103A28BF78C1FBD840
:1001F000520728BF30C148BF0B60704700207047CE
:100200001FB501F07DF81FBD10B510BD00F040F91D
:100210001146FFF7F5FF01F051F800F05EF903B465
:10022000FFF7F2FF03BC01F03BF8000009488047EC
:1002300009480047FEE7FEE7FEE7FEE7FEE7FEE7C8
:10024000FEE7FEE7FEE7FEE704480549054A064BE0
:1002500070470000A110000889010008C0000020BC
:10026000C0060020C0020020C0020020704753EAF0
:10027000020C00F069802DE9F04B4FF00006002BD6
:100280001FBFB3FA83F503FA05F424FA05F65E40BE
:1002900012BF1643B2FA82F502FA05F4C5F1200541
:1002A0001EBF22FA05FC44EA0C04203556EA044C31
:1002B0004FEA144418BF641C4FF000084FF00009C7
:1002C000904271EB030C39D3002919BFB1FA81F7C1
:1002D00001FA07F6B0FA80F700FA07F6C7F120072F
:1002E0001EBF20FA07FC46EA0C062037B6FBF4FCDA
:1002F000A7EB0507103F07F01F0BCBF120060CFA08
:100300000BFB2CFA06F644BFB3460026202FA4BFF1
:100310005E464FF0000B5BEA060C08BF4FF0010B86
:1003200019EB0B09ABFB027C48EB0608C01B06FB74
:1003300002CC0BFB03CC71EB0C01C1E70B46024670
:1003400041464846BDE8F08B13B54FF000004FF032
:100350000001AFF30080BDE81C4070470FB40449B2
:1003600010B503AA029800F065F810BC5DF814FB04
:10037000000000202DE9F0410E46044600202062D6
:100380002046E168884730B3252805D0D4E901210B
:100390009047206A401CF2E7E16820460027884722
:1003A000050018D0A5F14100192802D820354FF4D6
:1003B00000673246294620462760FFF71FFF40B1FD
:1003C000012804D0F61D26F007060836D8E7361DAA
:1003D000D6E72846DAE7206ABDE8F0814FF0000250
:1003E00000B5134694469646203922BFA0E80C502B
:1003F000A0E80C50B1F12001BFF4F7AF090728BF06
:10040000A0E80C5048BF0CC05DF804EB890028BF81
:1004100040F8042B08BF704748BF20F8022B11F0AA
:10042000804F18BF00F8012B704770477047704726
:1004300070470000074B70B50D467B4400F011F883
:100440000446284600F020F810B14FF0FF3070BD90
:10045000204670BD670E000001694A1C02610878E1
:10046000704700B58FB0CDE90131002105910549F4
:100470007944CDE9031011466846FFF77BFF0FB0C2
:1004800000BD0000E5FFFFFF007B00F0800070472B
:10049000754600F02BF8AE4605006946534620F03D
:1004A0000700854618B020B5FFF7CEFEBDE8204016
:1004B0004FF000064FF000074FF000084FF0000B20
:1004C00021F00701AC46ACE8C009ACE8C009ACE8D3
:1004D000C009ACE8C0098D46704710B50446AFF3BB
:1004E00000802046BDE81040FFF799BE00487047E5
:1004F0005C000020FEE7704772B6FEE770B5044668
:1005000000F006F90546601C02D004480078044457
:1005100000F0FEF8401BA042FAD370BD040000209A
:100520002DE9F84FDFF8BCA10022012503264FF08A
:100530000F090AF1040BAAF1040E00BF0B6805FABB
:1005400002F42340A34270D10F7907F00307012F73
:1005500001D0022F16D187684FEA420806FA08FC3C
:1005600027EA0C07D1F80CC00CFA08FC4CEA070C7F
:10057000C0F808C04768A7430C79C4F3001494403E
:100580003C4344600C79E443A4070AD0C4684FEAB2
:10059000420C06FA0CF7BC438F6807FA0CF72743A6
:1005A000C7600C7904F00304022C12D1D40800EBCC
:1005B000840CDCF820405707FF0E09FA07F824EAFC
:1005C0000804D1F8108008FA07F848EA0408CCF8C3
:1005D000208004684FEA420C06FA0CF7BC430F79FE
:1005E00007F0030707FA0CF7274307604C6814F479
:1005F000403F70D03C4C276847F480472760246810
:1006000022F0030704F480440094384C07EB040CF8
:10061000DCF8084897074FEA177809FA08F7BC434F
:10062000334FB84202D1002724E054E0314FB842A2
:1006300001D101271EE0304FB84201D1022719E055
:100640002E4FB84201D1032714E02D4FB84201D1FB
:1006500004270FE02B4FB84201D105270AE02A4FAB
:10066000B84201D1062705E0284FB84201D107273B
:1006700000E0082707FA08F72743CCF80878DAF8EB
:1006800000405746D1F804C09C435FEACC2C00D50B
:100690001C433C60DBF800405F46D1F804C09C433B
:1006A0005FEA8C2C00D51C433C60DEF800407746A6
:1006B000D1F804C09C435FEA8C3C00D51C433C60ED
:1006C000084F083F3C68D1F804C09C435FEACC3C2B
:1006D00000D51C433C60521C102AFFF42FAFBDE82C
:1006E000F88F0000083C01404438024000300140CF
:1006F000000002400004024000080240000C0240DA
:10070000001002400014024000180240001C024089
:10071000014880687047000004000020024881689A
:100720000278114481607047040000200B4810B526
:10073000016841F400710160016841F48061016069
:10074000016841F480710160032000F061F80F201E
:1007500000F006F800F024F8002010BD003C024034
:1007600070B50D4D04464FF47A712878B1FBF0F066
:100770000A490968B1FBF0F000F0FEFA48B9102C04
:1007800007D200222146501E00F022F800206C60A3
:1007900070BD012070BD000004000020100000208A
:1007A0000A4808B5016841F480410160006800F41E
:1007B000804000900548001F016841F080510160B1
:1007C000006800F08050009008BD000044380240EE
:1007D000F0B40E4B1B680C46C3F30223C3F10705AC
:1007E000042D00D90425191D072901D2002300E09A
:1007F000DB1E012606FA05F1491E214099409E4064
:10080000761E16403143F0BC00F03ABD0CED00E01E
:10081000064900F0070208684FF6FF03184040EA57
:100820000220034A10430860704700000CED00E00E
:100830000000FA052DE9F0470E46050065D0DFF807
:100840001481D8F80000F7B200F00700B04207D2D8
:1008500088F80070D8F8000000F00700B04254D1CA
:1008600028683D4C810712D5400703D5206840F425
:10087000E05020602878000703D5206840F46040ED
:1008800020602068A96820F0F000084320602878E4
:10089000C0072DD0304968680839012812D00228D5
:1008A00013D0032811D00968890700292DDA21689F
:1008B00021F0030101432160FFF72AFF814641F245
:1008C000883A0EE009688903EFE709688901ECE7D7
:1008D000FFF71EFFA0EB0901514502D90320BDE837
:1008E000F0872068696800F00C00B0EB810FEFD151
:1008F000D8F80010404601F00701B14207D907704F
:10090000006800F00700B04201D00120E7E7287836
:10091000400705D52068E96820F4E05008432060CE
:100920002878000706D52068296920F4604040EA4D
:10093000C100206000F038F82168084AC1F30311B3
:10094000515CC8400649086006480068FFF708FF88
:100950000020C4E7003C024008380240161300089B
:1009600010000020080000200448054900680968BC
:10097000044AC1F38221515CC84070471000002036
:100980000838024026130008044805490068096831
:10099000044AC1F34231515CC84070471000002046
:1009A0000838024026130008154810B5006810F0FA
:1009B0000C02144813D01449042A0FD0082A0ED16F
:1009C0000F4C241F2268236802F03F025B0207D508
:1009D0002068C0F38810A0FB010106E0084610BDA6
:1009E0002168C1F38811A1FB00010023FFF73FFC40
:1009F0002168C1F30141491C4900B0FBF1F010BD71
:100A0000083802400024F40040787D012DE9F84FB9
:100A100004006ED02078DFF84C93C007A9F10405DC
:100A20004AD009F104000168C1F38101012908D00D
:100A30000068C0F3810002280AD1D9F80000400202
:100A400006D52868800337D560680028E1D033E0F8
:100A50006068B0F5803F10D0B0F5A02F286810D0A6
:100A600020F480302860286820F4802028606068A6
:100A7000A8B1FFF74DFE06460DE0286840F480302F
:100A8000F4E740F480202860F7E700BFFFF740FE5E
:100A9000801B642873D828688003F7D50CE0FFF723
:100AA00037FE064605E000BFFFF732FE801B6428D4
:100AB000F0D828688003F7D42078DFF8AC8280076C
:100AC0004FF0000A3ED5A748001D016811F00C0F39
:100AD00008D00068C0F3810002280BD1D9F80000CB
:100AE000400207D42868800716D5E068012800D1A5
:100AF00012E033E1E068B8B10120C8F80000FFF768
:100B000007FE064605E000BFFFF702FE801B022835
:100B1000C0D828688007F7D52868216920F0F80038
:100B200040EAC10028600DE0C8F800A0FFF7F0FD22
:100B3000064604E0FFF7ECFD801B02281FD828685A
:100B40008007F7D42078000722D5864F874861694F
:100B5000703771B101210160FFF7DAFD064604E04C
:100B6000FFF7D6FD801B022809D838688007F7D523
:100B70000EE0C0F800A0FFF7CBFD064605E082E0DE
:100B8000FFF7C6FD801B02287DD838688007F7D4A0
:100B90002078400768D5DFF8CCB100270BF13C0B7B
:100BA000DBF80000C0000BD4DBF8001041F08051EE
:100BB000CBF80010DBF80000012700F08050009017
:100BC0006B4E3068C00510D4306840F480703060DF
:100BD000FFF79EFD009005E0FFF79AFD0099401A8F
:100BE000022850D83068C005F6D55E4EA0686C3635
:100BF00001280FD00528306810D020F001003060A7
:100C0000306820F004003060A068B8B1FFF780FDC4
:100C100000900FE0306840F00100F4E740F004007D
:100C20003060F7E7FFF774FD0099411A41F2883010
:100C3000814266D830688007F4D50EE0FFF768FD82
:100C4000009007E0FFF764FD0099411A41F28830F7
:100C5000814256D830688007F4D42FB1DBF80010F9
:100C600021F08051CBF80010A069C8B33D49091D9F
:100C70000968C1F3810102294AD00228504607D0F1
:100C8000C8F8600000E03CE0FFF742FD04463BE0AE
:100C90004746C8F86000FFF73BFD064605E000BF89
:100CA000FFF736FD801B02282BD828688001F7D477
:100CB000D4E907010843A16A2E4A490802EB014121
:100CC000626A41EA8211084394F82C1040EA0161FB
:100CD000C9F8001001203866FFF71AFD044606E047
:100CE0003EE000BFFFF714FD001B022809D828686A
:100CF0008001F7D534E000BFFFF70AFD001B022892
:100D000002D90320BDE8F88F28688001F4D427E0D9
:100D10000128F7D0D9F80000E26900F4800191427F
:100D20001CD1226A00F03F01914217D147F6C071F1
:100D3000626A0140B1EB821F10D1A26A4FF0FF330B
:100D400000F4403103EB5202B1EB024F06D194F8AC
:100D50002C1000F07060B0EB016F01D00120D1E7E2
:100D60000020CFE70438024000004742800E47428F
:100D7000007000400000FFFF10B5401EB0F1807F02
:100D800001D3012010BD4FF0E02460610F216017F6
:100D900000F076FA0020A06107202061002010BD3D
:100DA00070B5040004D094F84100002510B106E0AD
:100DB000012070BD84F84050204600F023F8242024
:100DC00084F841002068C16821F40051C1602046C8
:100DD00000F096F92068016921F4904101612068D2
:100DE000416921F02A0141612068C16841F4005144
:100DF000C1606564202084F8410084F84200656386
:100E0000002070BD10B586B0044614216846FFF777
:100E1000E5FA14492068884221D11348002102686C
:100E200042F010020260006800F0100005900E48C9
:100E30001438026842F001020260006800F001000C
:100E400005904FF4C06000900220CDE9010103201D
:100E500003900720049069460448FFF761FB06B041
:100E600010BD000000100140443802400000024064
:100E70002DE9F84F044690F842009A4616460D4672
:100E8000202802D00220BDE8F88FB5B1AEB1002015
:100E90006064222184F842102063FFF739FCA685A4
:100EA0008146E685A0684FF480582027404501D14F
:100EB000206920B12E46002529E00120E3E7002625
:100EC00025E04B46002220212046CDF800A000F06E
:100ED0009DF918B184F842700320D4E726B1A068C8
:100EE00040451AD038B108E020684068C0F30800D7
:100EF00025F8020B08E0206978B12068406800F00E
:100F00007F0000BF06F8010BE08D401EE085E08DFC
:100F10000028D6D184F84270B5E720684068F1E730
:100F20002DE9F843044690F84100984616460D46D0
:100F3000202802D00220BDE8F88385B17EB10020D0
:100F40006064212084F84100FFF7E2FBA68481461B
:100F5000E684A0682027B0F5805F02D003E001207E
:100F6000E9E7206910B12E4600250EE000260CE0CE
:100F70008021204600F04AF9A8B9C6B116F8010B45
:100F800021684860E08C401EE084E08C4B464FF0C6
:100F90000002CDF800800028EAD14FF04001204641
:100FA00000F034F940B184F841700320C3E735F80C
:100FB000020BC0F30800E3E784F841700020BAE7B1
:100FC000FEE70000054808B5016841F00101016035
:100FD000006800F00100009008BD000030380240B9
:100FE0000C4810B50A4901604FF4E131416000211D
:100FF00081600C22C160C0E904128161C161FFF708
:10100000CFFE002803D0BDE81040FFF775BA10BD31
:101010000010014014000020FEE7FEE77047704713
:10102000FFF77CBB10B592B030216846FFF7D6F9C8
:1010300014210CA8FFF7D2F917480024016841F0E9
:1010400080510160006800F08050119013480168E1
:1010500041F4804101600068069400F480401190E2
:101060000220009001200390102004906846FFF7B2
:10107000CDFC08B172B6FEE70F20CDE90C040E944A
:101080000F9400210CA81094FFF7D4FB002801D086
:1010900072B6FEE712B010BD40380240007000404A
:1010A0000248016841F470010160704788ED00E07A
:1010B00001680C3151E8002F22F4907241E80023BE
:1010C000002BF5D10168143151E8002F22F0010204
:1010D00041E80023002BF5D1016B012909D10168FA
:1010E0000C3151E8002F22F0100241E80023002BC0
:1010F000F5D1202180F842100021016370470000E3
:1011000070B5044600680169E26821F4405111435A
:1011100001612169A068E2690843616911430843DC
:101120002168CA6849F20C639A430243CA60206886
:101130004169A26921F4407111434161314920683C
:10114000884202D03049884202D1FFF71DFC01E0FD
:10115000FFF70AFCE2690023192164253226B2F563
:10116000004F626828D0A0FB0101930F9200FFF7A7
:101170007EF80146B0FBF5F06FF01802504301EB2A
:10118000800006EB0010B0FBF5F000F0F002B1FBC0
:10119000F5F002EB0012B1FBF5F06FF018035843C5
:1011A00001EB800006EB0010B0FBF5F000F00F0043
:1011B00021681044886070BDA0FB010192185B415A
:1011C000FFF755F80146B0FBF5F00201B1FBF5F071
:1011D0006FF01803584301EB800006EBC000B0FB32
:1011E000F5F000F0F80002EB4002B1FBF5F05843D7
:1011F00001EB800006EBC000B0FBF5F000F007004B
:10120000D6E7000000100140001401402DE9F8432A
:10121000984617460D460446089E24E0701C22D0CE
:10122000FFF776FAA0EB0800B0421AD8CEB12068DA
:10123000C168490717D5802D15D0402D13D00168FE
:10124000C94309070FD40168002540680090204673
:10125000FFF72EFF0820606484F840500120BDE8AD
:10126000F8830320FBE72068006835EA000004D01B
:101270000020B842D2D00020F1E70120F9E7FEE7D4
:101280000907090E002804DB00F1E02080F80014B3
:10129000704700F00F0000F1E02080F8141D704747
:1012A0007047000013B54FF0FF3301226946024832
:1012B000FFF736FE00981CBD140000200EB5FFF7A6
:1012C00035FAFFF7AFFEFFF77DFEFFF789FE0A4A0A
:1012D0004FF0FF344FF47A7507CA8DE807002346B4
:1012E000012269460548FFF7C3FD6846FFF736F857
:1012F0002846FFF703F9F2E70C130008140000205A
:101300004FF04070E1EE100A704700006162630028
:1013100000000000000000000000000000000102CA
:10132000030406070809000000000102030400008E
:10133000501300080000002014000000C401000841
:101340006413000814000020AC060000E00100084F
:10135000000000000100000010000000000000007C
:041360000024F40071
:040000050800018965
:00000001FF
