:020000040800F2
:10000000480C0020A9010008B73000088F2B000819
:10001000B5300008FB140008F338000800000000A9
:10002000000000000000000000000000A3350008F0
:10003000FD14000800000000A1350008A5350008E7
:10004000C3010008C3010008C3010008C301000880
:10005000C3010008C3010008C3010008C301000870
:10006000C3010008C3010008C3010008C301000860
:10007000C3010008C3010008C3010008C301000850
:10008000C3010008C3010008C3010008C301000840
:10009000C3010008C3010008C3010008C301000830
:1000A000C301000815360008C3010008093600081E
:1000B000C3010008C3010008C3010008C301000810
:1000C000C3010008C3010008C3010008C301000800
:1000D000C3010008C3010008C3010008C3010008F0
:1000E000C3010008C3010008C301000800F002F8C2
:1000F00000F04AF80AA090E8000C82448344AAF178
:100100000107DA4501D100F03FF8AFF2090EBAE875
:100110000F0013F0010F18BFFB1A43F0010318473B
:100120005445000074450000103A24BF78C878C1D7
:10013000FAD8520724BF30C830C144BF04680C60ED
:10014000704700000023002400250026103A28BF35
:1001500078C1FBD8520728BF30C148BF0B60704739
:10016000662903F06186642900F052800020704700
:100170001FB500F085FC04000020002103F07CFC8A
:10018000E0601FBD10B510BD00F07AFD1146FFF70D
:10019000EFFF03F007FC00F098FD03B4FFF7F2FF58
:1001A00003BC00F0DBFD0000094880470948004718
:1001B000FEE7FEE7FEE7FEE7FEE7FEE7FEE7FEE717
:1001C000FEE7FEE704480549054A064B7047000074
:1001D00007360008ED00000848060020480C002003
:1001E00048080020480800200FB41CB5074B06AA99
:1001F0007B4469460090059800F0F7FB00206946B3
:1002000000F006FC1CBC5DF814FB00001D0800009B
:100210002DE9F0410646002410687529314616A5DF
:1002200010D0AFF30080002802DA404213A507E0A7
:1002300031688A0701D512A502E0490704D511A546
:10024000012401E0AFF3008000210A2206F1240717
:1002500009E0B0FBF2FCB0FBF2F302FB1C00303013
:1002600078541846491C0028F3D123462A463046C4
:10027000BDE8F04100F04CB9000000002D00000086
:100280002B000000200000002DE9F0474FF0000A8D
:1002900089460446C0F820A02046E1688847002827
:1002A00076D0252806D0D4E901219047206A401C49
:1002B0002062F1E7E168204600258847C4F81CA0C9
:1002C00006460027C4F818A02A2E09D0304603F0AD
:1002D0004EFB38B304EB8708303EC8F8186019E0CD
:1002E00059F8041B204604EB87029161E1688847B6
:1002F000012F064618D1E069002820DA25F02005F4
:100300001DE0D8F8180000EB800006EB4000303804
:10031000C8F818002046E1688847064603F027FB26
:100320000028EED1012F0AD02E2E08D12046E168F8
:1003300088477F1C0646022F45F02005C4DBA069D4
:10034000002803DA404245F00105A061E80701D02A
:1003500025F01005B6B1A6F14100192802D82036C3
:1003600045F400654A463146204625604D46FFF774
:10037000F7FE58B1012806D0ED1D25F0070000F169
:10038000080989E704E005F1040985E730468AE7B2
:10039000206ABDE8F08740EA010310B59B070FD142
:1003A000042A0DD310C808C9121F9C42F8D020BAE5
:1003B00019BA884201D9012010BD4FF0FF3010BD9D
:1003C0001AB1D30703D0521C07E0002010BD10F86B
:1003D000013B11F8014B1B1B07D110F8013B11F831
:1003E000014B1B1B01D1921EF1D1184610BD032AEF
:1003F00040F2308010F0030C00F0158011F8013B42
:10040000BCF1020F624498BF11F801CB00F8013B28
:1004100038BF11F8013BA2F1040298BF00F801CBEC
:1004200038BF00F8013B11F0030300F0F682083AF0
:10043000C0F0088051F8043B083A51F804CBA0E81A
:100440000810F5E7121D5CBF51F8043B40F8043B6F
:10045000AFF30080D20724BF11F8013B11F801CBA4
:1004600048BF11F8012B24BF00F8013B00F801CB75
:1004700048BF00F8012B70474FF000020429C0F07C
:10048000128010F0030C00F01B80CCF1040CBCF1C6
:10049000020F18BF00F8012BA8BF20F8022BA1EB18
:1004A0000C0100F00DB85FEAC17C24BF00F8012BFD
:1004B00000F8012B48BF00F8012B70474FF00002F5
:1004C00000B5134694469646203922BFA0E80C504A
:1004D000A0E80C50B1F12001BFF4F7AF090728BF25
:1004E000A0E80C5048BF0CC05DF804EB890028BFA1
:1004F00040F8042B08BF704748BF20F8022B11F0CA
:10050000804F18BF00F8012B704770477047704745
:100510002DE9F0470D4699469246044600F124081D
:100520000168880604D5E06921F01001216000E02F
:100530000120A84201DD471B00E00027A1697A19CC
:1005400002EB0900081AA0612078C00602D42046F8
:10055000AFF30080002608E0D4E901211AF8060074
:100560009047206A401C761C20624E45F4DB2078C0
:10057000C0060AD52046AFF3008006E0D4E9012189
:1005800030209047206A401C2062381EA7F10107E6
:10059000F4DC07E0D4E9012118F805009047206A4F
:1005A000401C2062281EA5F10105F3DC2046AFF3B4
:1005B00000802078000602D50220BDE8F0870120E7
:1005C000FBE770472DE9FF4F0C461E464FF0FF3703
:1005D0008BB0D2E90001DDF860800A908A46C1F351
:1005E0000A5505B93D46002108464FF00000BAF112
:1005F000000F00F4400005DA00EB80004FF44001EA
:1006000001EA50004FEA9059B9F1010F00DDB946F7
:100610000A9850EA4A000ED044F61050A5F2FF3571
:1006200045432F14B8F1000F1ED07542291E1EDD60
:10063000C9F100021CE0B8F1010F4FF0000001D039
:10064000302103E0F24305E02154401CB042FBDBC3
:1006500030460022002121540B99C1F80880C1E9DD
:1006600000200FB0BDE8F08FBD1B6D1CDEE74A46D1
:1006700000DA694206A800F08DFA06AB93E807009D
:1006800003AB83E8070050460A9900F06EFB8DE843
:100690000700A0F500501F3800900398002D0ADDD8
:1006A00042F21F014A460844002303A9039068460A
:1006B00000F0D7FD09E0A0F500504A461F3800239E
:1006C00003A90390684600F0E1FD8DE807000004EF
:1006D000000C03D04FF0FF30410800E01046B8F1A5
:1006E000000F03D00022009215461EE0751E05D4AF
:1006F00000F0CAF9303262556D1EF9D5B3460122B9
:10070000084302D000227F1C04E02078302801D169
:1007100000227F1E002A099784D01DE0112D07DAE0
:1007200000F0B2F9303262556D1C50EA0102F5D189
:10073000084302D00098C8B10EE00021681E05E011
:10074000235C625C63542254401E491C8142F7DBE7
:10075000AB46A81B401E0990002004F80B000B9824
:10076000099AC0F80880C0E9002B7AE711264FF0FB
:10077000000857E72DE9F04F88460446D21D22F0C5
:10078000070191B0D1E90001CDE90A0103F0CBF8EE
:1007900002460B98C00F01D02D2007E0206881078A
:1007A00001D52B2002E0202101EAC000032A099094
:1007B00001D0072A05DB03464146204600F0AAF98E
:1007C0000BE12078800601D5E06900E00620B8F151
:1007D000650F814606D0B8F1660F18D0B8F1670FE3
:1007E00070D131E00020B9F1110F009001DB11232D
:1007F00001E009F101030AAA01A90CA8FFF7E2FE32
:10080000DDE90C70002609F10105834647E001206F
:100810004B4600904FF000470AAA01A90CA8FFF729
:10082000D1FEDDE90DB00C995D46002610B909F145
:1008300001000D18B9EB050003D4C0F1FF3609F132
:100840000105A5EB09002BE0B9F1010F01DA4FF02A
:1008500001090020B9F1110F0090484601DD112374
:1008600000E003460AAA01A90CA8FFF7ABFEDDE9E8
:100870000C704D4600268346207800070AD4AB450D
:1008800000DA5D4601A8012D04DD411911F8011CB3
:10089000302907D04F4502DA17F1040F04DA01209E
:1008A00082460FE06D1EEEE7002F02DCED1B3E449A
:1008B00003E0781CA84200DD7D1CB81B00F1010A92
:1008C0004FF000472078000703D4AA4501DB4FF022
:1008D000FF3A0021B7F1004F0DF143088DF84310A6
:1008E00024D002202B23002F01DA7F422D230A215E
:1008F000021EA0F1010000DC5FB197FBF1FC97FB49
:10090000F1F201FB1C7C17460CF1300C08F801CD0C
:10091000EEE7A8F1010003702188090501D5452102
:1009200000E06521A0F1010800F8011C09980FA959
:10093000A1EB0807FF1D00B10120411901EBEA708E
:10094000A1693844081A401EA0612078C00602D46C
:100950002046AFF30080099828B1D4E901219047DF
:10096000206A401C20622078C00622D52046AFF3C2
:1009700000801EE0002E04DBB34502DD01A8805D8F
:1009800000E03020D4E901219047206A401C206219
:10099000761CAAF101005FEA000A0AD100F070F8A3
:1009A000C0680168405CD4E901219047206A401C7E
:1009B0002062281EA5F10105DCDC07E0D4E9012155
:1009C00018F8010B9047206A401C2062381EA7F1DE
:1009D0000107F3DC2046AFF30080032011B041E6AD
:1009E00001694A1C02610878704700B58FB0CDE9F3
:1009F00001310021059105497944CDE903101146E3
:100A00006846FFF741FC0FB000BD0000E5FFFFFFA7
:100A10000A6802F8010B0A60704710B5203AC0F06E
:100A20000B80B1E81850203AA0E81850B1E81850EF
:100A3000A0E81850BFF4F5AF5FEA027C24BFB1E82C
:100A40001850A0E8185044BF18C918C0BDE810409D
:100A50005FEA827C24BF51F8043B40F8043B08BFA6
:100A60007047D20728BF31F8023B48BF11F8012B6D
:100A700028BF20F8023B48BF00F8012B7047000058
:100A8000004870470806002030B5B0F10A024FEA6E
:100A9000900E71F100034EEA817EB0EB0E0061EB27
:100AA00091014FEA101E4EEA017E10EB0E0041EB61
:100AB00011114FEA102E4EEA016E10EB0E0041EBC1
:100AC00011214FEA104E4EEA014E10EB0E0041EBA1
:100AD0001141401841F100014FEAD00040EA417055
:100AE0004FEAD10110EB80054FEA810444EA90748B
:100AF00044EB01046D1944EB0404521BA3414FF075
:100B0000000348BF0A3200D530BD401C41F100014E
:100B100030BD00002DE9F0411F4604460326016860
:100B2000072A01F4006004DB08B116A505E016A54C
:100B300003E008B115A500E015A521F01000206024
:100B4000A069C01EA0610FB1401EA0612046AFF396
:100B500000804FB1D4E9012138469047206A401CFB
:100B60002062C01C206206E0206AFAE7D4E9012175
:100B700015F8010B9047761EF8D22046AFF300809F
:100B8000BDE8F0814E414E006E616E00494E460058
:100B9000696E66002DE9F047814616468AB03548F1
:100BA00078440DC88DE80D0032487844801C03ACB1
:100BB0000DC884E80D0041F69B300844372190FBB6
:100BC000F1F290FBF1F5A5F1800501FB12041B3C4D
:100BD00002D56442012000E00020DFF898A08046A2
:100BE0000027FA44AAF1BE0A0EE0E0070AD0324616
:100BF000684607EB470101230AEB810100F046FB41
:100C00008DE8070064107F1C002CEED1194F7F4443
:100C1000AE3F19E0E80715D007EB04100DF1180AF4
:100C200090E80E008AE80E00C068F04201D19819E1
:100C300008903246012306A903A800F027FB03AB66
:100C400083E807006D10641C002DE3D14FF0010311
:100C500032466946B8F1000F03A802D000F001FB4C
:100C600001E000F013FBC9E90001C9F808200AB04F
:100C7000BDE8F087B83A000000487047E80500205A
:100C80007546FFF7F9FFAE4605006946534620F06A
:100C90000700854618B020B5FFF794FABDE820405C
:100CA0004FF000064FF000074FF000084FF0000B28
:100CB00021F00701AC46ACE8C009ACE8C009ACE8DB
:100CC000C009ACE8C0098D46704710B50446AFF3C3
:100CD00000802046BDE81040FFF75FBA4FF0013CAE
:100CE00050F8042B51F8043B9A4221D1A2EB0C039B
:100CF000934313EACC1317D150F8042B51F8043B5B
:100D00009A4215D1A2EB0C03934313EACC130BD1F7
:100D100050F8042B51F8043B9A4209D1A2EB0C0382
:100D2000934313EACC13DBD04FF00000704700BFB1
:100D3000D01A01BAB1FA81F101F0180122FA01F0DA
:100D4000CB40C1F12001DBB2C0B2C01A2CFA01F3D2
:100D5000D11A914311EAC311E6D170470149182015
:100D6000ABBEFEE72600020070475FEA400C08BFFA
:100D700091F0000F4FEA8C234FEAC12243EA515110
:100D80004FEA1C5018BF00F5F0404FEA300018BF82
:100D900041F000415FEA6C5C00F02980BCF1FF3F4C
:100DA00008BF40F080407047130C06BF12044FF09C
:100DB000100C4FF0000C130E04BF12020CF1080CC3
:100DC000130F04BF12010CF1040C930F04BF920027
:100DD0000CF1020CD30F04BF52000CF1010C1146B0
:100DE0004FF00002A0F11F00A0EB0C00704711F0C3
:100DF000004F08BF704731F000413FF4D5AF0B0CF6
:100E000006BF09044FF0100C4FF0000C0B0E04BF8E
:100E100009020CF1080C0B0F04BF09010CF1040CC2
:100E20008B0F04BF89000CF1020CCB0F04BF4900EB
:100E30000CF1010CCCF12003A0EB0C0022FA03F31F
:100E400002FA0CF241EA030100F10100704720F0C0
:100E50007F4C80EA030023F07F47ACEB070303F5E8
:100E60007C5300F0004003F1FF032DE980494FEA75
:100E7000154B09B44FEA144325EA0B4E24EA034804
:100E80000FF2042606EB132749083E785FEA320288
:100E900003FB0667C7F5000707FB06F64FEA543762
:100EA0004FEAD64606F1020607FB066CCCF1005C61
:100EB0004FEA1C472CEA074C07FB06F40CFB06F52F
:100EC00004EB15464FEA961634BF00204FF0004061
:100ED0004FEAD13706FB07FC4FEA1C4C0CFB0BF723
:100EE000D21B03FB0CF761EB07010CFB0EF7B0EB19
:100EF000074072EB17420CFB08F734BFA2EB074226
:100F0000B2EB074261EB17414FEA0C444FEA9107FD
:100F100006FB07FC4FEA1C4C0CFB0BF7B0EBC74081
:100F200072EB573203FB0CF734BFA2EBC742B2EBB4
:100F3000C74261EB57310CFB0EF7B0EBC70072EB09
:100F400057720CFB08F734BFA2EBC702B2EBC70223
:100F500061EB5771039F4FEA816141EA921104EB03
:100F6000CC044FEAD1374FEA826206FB07FC42EA23
:100F700090124FEA80604FEA1C4C0CFB0BF7D21B1F
:100F800003FB0CF761EB07010CFB0EF7B0EB07401E
:100F900072EB17420CFB08F734BFA2EB0742B2EB2F
:100FA000074261EB17414FEA8C554FEA910704EB7A
:100FB0009C2406FB07FC4FEA1C4C0CFB0BF7B0EB28
:100FC000C74072EB573203FB0CF734BFA2EBC742AA
:100FD000B2EBC74261EB57310CFB0EF7B0EBC70029
:100FE00072EB57720CFB08F734BFA2EBC702B2EBEF
:100FF000C70261EB577115EB4C254FEA816141EA5D
:1010000092114FEA82624FEAD13742EA901206FB10
:1010100007FC44F100044FEA80604FEA1C4C0CFBD3
:101020000BF7D21B03FB0CF761EB07010CFB0EF770
:10103000B0EB074072EB17420CFB08F734BFA2EB92
:101040000742B2EB074261EB174115EB1C154FEA63
:10105000813141EA92414FEA823242EA90424FEABC
:1010600080304FEA0C7644F1000448EA03434EEA2C
:101070000B484FF0000EB2EB080C71EB030724BFD6
:10108000624639464EEB0E0E4FF0000B00185241EF
:1010900049414BEB0B0BB2EB080C71EB03077BF1F7
:1010A000000B24BF624639464EEB0E0E4FF0000B8C
:1010B0000018524149414BEB0B0BB2EB080C71EBA2
:1010C00003077BF1000B24BF624639464EEB0E0E40
:1010D00051EA020718BF46F0010616EB0E7655F1ED
:1010E000000254F1000103D5BDE88901BDE8008884
:1010F000BDE88901BDE80048B619524141EB010144
:10110000A3F10103704780807F7E7D7C7B7A7978B4
:10111000777676757473727171706F6E6E6D6C6CBC
:101120006B6A6A696868676666656464636362615E
:101130006160605F5F5E5E5D5D5C5C5B5B5A5A59DF
:10114000595858575756565555555454535352524B
:101150005251515050504F4F4F4E4E4D4D4D4C4CA3
:101160004C4B4B4B4A4A4A494949484848474747EC
:101170004746464645454544444444434343434229
:10118000424242414141002B9C4630D477002BD053
:101190001CB54FEA370703B44FF010004FF01001B1
:1011A000BAF1000F06D0BCF1000FDCBF40F0080020
:1011B00040F008014FF000000FBCBDE810400BF1FB
:1011C000010BBBF1010F08BF5FEA170722BF12F145
:1011D000010211F101014FF0004143F1000300F061
:1011E000004043EA00007047F9D35708D0E746EAC9
:1011F000064613F1400F4FEA16461FDD13F1200F8C
:10120000DFBF16430A46002120335B42BED0C3F144
:10121000200746EA064602FA07F74FEA164646EA6C
:101220000706C3F1200722FA03F201FA07F721FAB1
:1012300003F14FF0000342EA0702A7E746EA02067D
:1012400046EA06464FEA164646EA0106BCBF46EAAB
:101250000646360C4FF000034FF000024FF000013D
:1012600094E72DE9804C9A46934670B491E8380093
:1012700007C831EA400C48BF34EA430C03D5FFF7F6
:10128000E6FDFFF780FFF0BCBDE8008C2DE9804C47
:101290009A46934670B491E8380007C810F0804F22
:1012A00008BF13F0804F03D100F005F8FFF76BFF84
:1012B000F0BCBDE8008C20F07F4780EA030023F0FB
:1012C0007F4C07EB0C03A3F57C5300F00040A3F127
:1012D000FE0392F0000F00F0B38095F0000F00F0D5
:1012E00077802DE901494FEA11404FEA144621EA7F
:1012F000004800FB06FC24EA064708FB06F607FB4D
:1013000008F800FB07F718EB06484CEB164C4FEAC1
:10131000124B18EB07484FEA15464CEB174022EAF0
:101320000B4E0BFB06FC25EA06470EFB06F607FBF9
:101330000EFE0BFB07F71EEB064E4CEB164C4FF068
:1013400000061EEB074E4CEB174B18EB0B0840F159
:10135000000018EB0E0B58EB000840F100008F1A4C
:101360004FF000013CBFC943661B14BFB5EB040C32
:1013700000213CBFC943F61B4FEA17444EEA8E0ECC
:1013800027EA04454FEA1C4704FB07622CEA074C96
:1013900005FB07F70CFB05F604FB0CFC16EB0746F8
:1013A00042EB174216EB0C4642EB1C421BEB0606C7
:1013B00058EB0202414146EA9E0601D5BDE801898B
:1013C000B619524141EB0101A3F10103BDE80189C6
:1013D0004FEA14454FEA114724EA054621EA074C33
:1013E00005FB07F406FB07F70CFB06F105FB0CFCFD
:1013F00011EB074144EB17444FEA124711EB0C4144
:1014000044EB1C4422EA074C05FB07F206FB07F7F6
:101410000CFB06F605FB0CFC16EB074642EB1742ED
:1014200016EB0C4642EB1C456A1854F1000148BF0C
:101430007047B619524141EB0101A3F10103704716
:1014400095F0000F37D04FEA11424FEA144721EAD6
:10145000024624EA074C02FB07F106FB07F70CFBE8
:1014600006F402FB0CFC14EB074441EB17414FEA76
:10147000154714EB0C4441EB1C4125EA074C02FBD9
:1014800007F506FB07F70CFB06F602FB0CFC16EB58
:10149000074645EB174516EB0C4645EB1C42121967
:1014A00051F1000148BF7047B619524141EB0101AB
:1014B000A3F1010370474FEA14454FEA114724EAAC
:1014C000054621EA074C05FB07F106FB07F70CFB75
:1014D00006F24FF0000605FB0CFC12EB074241EB55
:1014E000174112EB0C4251EB1C4148BF7047921858
:1014F00041EB0101A3F101037047FEE770470000D3
:1015000070B50D4C0020014620600C4801F029FB0D
:1015100005460421094801F024FB401B02F0FCFAB7
:10152000074A084B02F00CFB4FF0FF3202F0B0FC10
:1015300002F0B8FA206070BD340000208C0000205A
:101540009CC420B07268A13F10B5064800F072FE3E
:101550000021044801F094F8BDE81040042101483E
:1015600001F0EAB88C00002010B5094C01221146A8
:10157000204600F015F9012000F010F800220121AA
:10158000204600F00DF9034900200968486210BDAB
:10159000000801408C00002072B6FEE770B50446DA
:1015A00000F004F90546601C02D0044800780444A9
:1015B00000F0FCF8401BA042FAD370BD20000020D0
:1015C0002DE9F84FDFF8B8910024A9F1040B234668
:1015D0000F2709F1040AABF1040EC9E00125A5406B
:1015E0002A40AA427DD1674ED1F804C0ACEB060870
:1015F000B44532D014DCBCF1030F3AD009DCBCF1A5
:10160000000F2AD0BCF1010F1CD0BCF1020F31D168
:101610001DE0BCF1110F17D0BCF1120F2AD119E057
:10162000B8F5881F19D006DCB8F5803F15D0B8F59D
:10163000801F1FD111E0B8F5001F0ED0B8F5041FB0
:1016400018D10AE0CB6815E0CB681B1D12E0CB680F
:1016500008330FE0CB680C330CE08B682BB1012B07
:101660004FF0080303D0456104E0042302E0056164
:1016700000E00023FF2A01D8064601E000F104063D
:101680004FEA840501D9A5F12005D6F8008007FAB4
:1016900005FC28EA0C0803FA05F548EA0508C6F82F
:1016A00000804D68ED0062D5374DAE6946F0010609
:1016B000AE61AD6924F0030605F001050095334DD8
:1016C00006EB050CDCF80850A607360F07FA06F8FB
:1016D00025EA0805DFF8B880404503D14FF000083F
:1016E00017E044E0DFF8AC80404502D14FF001083C
:1016F0000FE0DFF8A480404502D14FF0020808E077
:10170000DFF89880404502D14FF0030801E04FF028
:10171000040808FA06F848EA0508CCF808804D687D
:10172000D9F80060ED024D4601D5164300E096431E
:101730002E604D68DAF80060AD02554601D51643BB
:1017400000E096432E604D68DBF80060AD035D4617
:1017500001D5164300E096432E604D68DEF8006028
:10176000ED03754601D5164300E096432E60641CD8
:101770000D682A46E5407FF431AFBDE8F88F0000E0
:101780000804014000001110001002400000014058
:1017900000080140000C014000100140001401400D
:1017A0000AB1016170470904FBE700000148806845
:1017B000704700002000002070B5040025D094F888
:1017C0003D00002520B984F83C50204600F04EF939
:1017D000242084F83D002068016821F001010160A7
:1017E0002068016841F4004101602068016821F42B
:1017F0000041016000F098FA4D4A6168914201D8B9
:101800004C4900E04C49884201D2012070BD4B494F
:101810002368B0FBF1F15E6826F03F060E435E6080
:101820006368934206D94FF4967359434FF47A7321
:10183000B1FBF3F12368491C1E6A26F03F063143D1
:1018400019626168914210D84900401EB0FBF1F264
:10185000521CC2F30B02042A01D2042022E0B0FB86
:10186000F1F0401CC0F30B001CE0A268F2B301EBE6
:10187000C10303EB0116431EB3FBF6F35B1C43F4F9
:1018800080431B0549D092B301EBC10202EB011169
:10189000401EB0FBF1F0401CC0F30B0040F4804050
:1018A00040F400402168CA694CF6FF739A43104324
:1018B000C861D4E9071001432068026822F0C00221
:1018C00011430160D4E9030101432068826848F2B2
:1018D000FF339A4311438160D4E90501084321682D
:1018E000CA6822F0FF021043C86001E00EE016E073
:1018F0002068016841F0010101602564202084F81E
:101900003D00256384F83E50002070BD01EB410688
:10191000431EB3FBF6F35B1CB3E70120C2E701EB08
:101920004101401EB0FBF1F0401CC0F30B00B7E7D3
:10193000A086010080841E0000093D0040420F0087
:101940002DE9F84F1F4690468A460446DDF8289058
:10195000FFF72CFF054694F83D0020287FD119237E
:10196000012240492046009501F0A4F9002876D1D3
:1019700094F83C00012872D0012084F83C002068D3
:101980000168C90703D1016841F0010101602068C5
:10199000016821F400610160212084F83D001020DD
:1019A00084F83E0000262664C4F824806785608D94
:1019B00020852D48E0622B464A465146204601F0DC
:1019C000FFF890B9206841698069009036E02A46A6
:1019D0004946204601F014FA50B1206C042804D185
:1019E0002068016841F4007101600120BDE8F88FB2
:1019F000606A216800780861606A401C6062618DDD
:101A0000491E6185218D491E89B22185226853694D
:101A1000DB435B070BD451B100781061606A401C56
:101A20006062608D401E6085208D401E20852A46A4
:101A30004946204601F012F90028CED1208D002819
:101A4000C5D154F83D0B016841F4007101602020BC
:101A500004F81E09E67766770020C7E7FFE7022053
:101A6000C4E70000020010000000FFFF10B586B0C0
:101A70000021009101910291039100681049884270
:101A80001BD1104CA06940F00800A061A069694614
:101A900000F0080004904FF4406000901220019084
:101AA000032003900848FFF78BFDE06940F48000B5
:101AB000E061E06900F48000049006B010BD000011
:101AC0000058004000100240000C014002488168AC
:101AD000027811448160704720000020074810B54B
:101AE000016841F010010160032000F075F8062044
:101AF00000F006F800F024F8002010BD002002409D
:101B000070B50D4D04464FF47A712878B1FBF0F0B2
:101B10000A490968B1FBF0F000F0CCFA48B9102C82
:101B200007D200222146501E00F036F800206C60DB
:101B300070BD012070BD0000200000202C0000209E
:101B40000C4808B5816941F001018161816901F0AA
:101B500001010091C16941F08051C161C06900F08B
:101B6000805000900448416821F0E06141F000712C
:101B7000416008BD0010024000000140002809DB60
:101B800000F01F02012191404009800000F1E02097
:101B9000C0F8001170470000F0B40E4B1B680C46F3
:101BA000C3F30223C3F10705042D00D90425191D31
:101BB000072901D2002300E0DB1E012606FA05F109
:101BC000491E214099409E40761E16403143F0BC8C
:101BD00001F0BDBE0CED00E0064900F00702086808
:101BE0004FF6FF03184040EA0220034A1043086002
:101BF000704700000CED00E00000FA052DE9F04709
:101C00000F46050061D0434E306800F00700B8422F
:101C100009D2306820F0070038433060306800F0A7
:101C20000700B84251D128683B4C810712D54007C4
:101C300003D5606840F4E06060602878000703D551
:101C4000606840F4605060606068A96820F0F0004F
:101C5000084360602878C00728D06868012810D041
:101C60002168022810D0890700292EDA616821F046
:101C7000030101436160FFF799FD804641F2883915
:101C80000DE021688903EFE78901EDE7FFF78EFD9D
:101C9000A0EB0801494502D90320BDE8F087606840
:101CA000696800F00C00B0EB810FEFD1306800F0F4
:101CB0000700B8420BD9306820F007003843306085
:101CC000306800F00700B84201D00120E5E728782D
:101CD000400705D56068E96820F4E060084360606B
:101CE0002878000706D56068296920F4605040EA2A
:101CF000C100606000F028F86168084AC1F3031170
:101D0000515CC8400649086006480068FFF7F8FEC5
:101D10000020C2E700200240001002402E3F0008D1
:101D20002C00002024000020044805490068496870
:101D3000044AC1F30221515CC84070472C000020C6
:101D4000001002403E3F00080E4A51680E4801F064
:101D50000C03042B11D0082B0FD10C48C1F3834383
:101D6000C903C05C0AD55168084AC1F34041921EBC
:101D7000515C054A5043B0FBF1F0704704494843B9
:101D8000704700000010024000127A001E3F000859
:101D900000093D002DE9F84F040070D02078C04DB7
:101DA000C00749D06868C0F38100012807D068687F
:101DB000C0F38100022809D16868C00306D52868ED
:101DC000800339D560680028E7D035E06068B0F559
:101DD000803F0BD010B1B0F5A02F11D0286820F4AF
:101DE00080302860286820F4802002E0286840F4D1
:101DF00080302860606890B1FFF7D8FC06460AE0A2
:101E0000286840F480202860F0E700BFFFF7CEFC90
:101E1000801B642873D828688003F7D50CE0FFF78F
:101E2000C5FC064605E000BFFFF7C0FC801B642828
:101E3000F0D828688003F7D420789A4E80074FF0B6
:101E400001094FF0000839D5686810F00C0F07D071
:101E50006868C0F38100022809D16868C00306D40D
:101E60002868800714D52069012808D110E020696E
:101E7000B0B1C6F80090FFF799FC074605E00AE10B
:101E8000FFF794FCC01B0228C4D828688007F7D548
:101E90002868616920F0F80040EAC10028600DE080
:101EA000C6F80080FFF782FC074604E0FFF77EFCDF
:101EB000C01B022823D828688007F7D420780007A1
:101EC0002CD57948A169D9B1C0F80090FFF76EFC14
:101ED000074604E0FFF76AFCC01B02280FD8686AB7
:101EE0008007F7D571484FF4FA510068B0FBF1F064
:101EF000009000BF0098411E0091FAD20EE080E0F1
:101F0000C0F80080FFF752FC074604E0FFF74EFCE4
:101F1000C01B022875D8686A8007F7D4207840076C
:101F200060D5E8690027C00008D4E86940F0805017
:101F3000E861E869012700F0805000905C48016882
:101F4000C90513D40168834641F480710160FFF72D
:101F50002DFC824606E000BFFFF728FCA0EB0A003C
:101F600064284ED8DBF80000C005F5D5E0680128EC
:101F70000AD008B1052813D0286A20F00100286291
:101F8000286A20F0040002E0286A40F0010028627C
:101F9000E06841F2883B98B1FFF708FC82460BE00D
:101FA000286A40F004002862EEE700BFFFF7FEFB5E
:101FB000A0EB0A0159455AD8286A8007F6D50CE0EB
:101FC000FFF7F4FB824605E0FFF7F0FBA0EB0A0108
:101FD00059454CD8286A8007F6D41FB1E86920F02B
:101FE0008050E861E06988B36968C1F38101022922
:101FF00044D00228C6F8608004D0FFF7D7FB04461F
:1020000038E034E0FFF7D2FB074604E0FFF7CEFBF1
:10201000C01B02282BD828688001F7D4206AB0F5AD
:10202000803F05D16868A16820F4003008436860EB
:10203000D4E908010843696821F474110843686011
:10204000C6F86090FFF7B2FB044606E025E000BF4B
:10205000FFF7ACFB001B022809D828688001F7D5E0
:102060001BE000BFFFF7A2FB001B022802D90320E0
:10207000BDE8F88F28688001F4D40EE00128F7D07D
:102080006868226A00F48031914204D1616A00F4E8
:102090007010884201D00120EAE70020E8E7000044
:1020A0000010024000004242800442422C00002006
:1020B0000070004010B5401EB0F1807F01D30120B8
:1020C00010BD4FF0E02460610F21601701F03FFC6C
:1020D0000020A06107202061002010BD70477047DC
:1020E00070B590F83C20012A26D0012480F83C40AD
:1020F000022280F83D2003685A689D6822F070062D
:102100000A6832435A600D4B02689A4208D0B2F115
:10211000804F05D00A4B9A4202D00A4B9A4204D112
:10212000496825F080031943916080F83D40002103
:1021300080F83C10084670BD022070BD002C0140A4
:10214000000400400008004010B5040003D094F8DB
:102150003D0010B107E0012010BD002084F83C00D4
:10216000204600F01FF8022084F83D00211D206861
:1021700001F056FA012084F8460084F83E0084F805
:102180003F0084F8400084F8410084F8420084F85D
:10219000430084F8440084F8450084F83D000020A2
:1021A00010BD000000B585B00021009101910291A1
:1021B00003911C4A01681C48914227D1816941F46E
:1021C00000618161816901F400610491816941F0DC
:1021D000040181618069694600F004000490901553
:1021E00000901248FFF7ECF9002211461920FFF782
:1021F000D3FC1920FFF7C2FC00220E211B20FFF7A1
:10220000CBFC1B20FFF7BAFC05B000BD084A914289
:10221000FAD1C16941F00201C161C06900F0020058
:102220000490F1E7002C014000100240000801403A
:102230000004004090F83D10012901D001207047B2
:10224000022180F83D1000680B49884208D0B0F1A7
:10225000804F05D00949884202D00949884204D1FB
:10226000816801F00701062903D0016841F00101EE
:102270000160002070470000002C01400004004075
:102280000008004070B5044690F83C000025012885
:1022900017D0012684F83C60022084F83D002068B5
:1022A000826822F0770222F47F4282600868502818
:1022B00038D00DDC20284FD005DC90B3102811D188
:1022C0004AE0022070BD302846D040280AD13BE0C9
:1022D00060282FD070280DD0B0F5805F03D0B0F506
:1022E000005F12D0012584F83D60002084F83C0096
:1022F000284670BDCB68D1E90121206801F0D9F9E9
:102300002068816841F0770109E0CB68D1E90121BB
:10231000206801F0CEF92068816841F48041816035
:10232000E1E719E0CA684968206801F077FA5021AE
:10233000206806E0CA684968206801F0ADFA6021AB
:10234000206801F0C0F9CEE7CA684968206801F04A
:1023500065FA40212068F4E7226801461046F0E75C
:102360002DE9F0410D46040003D094F83D0018B16A
:1023700008E00120BDE8F081002084F83C00204600
:1023800000F040F8022084F83D002068816844F2A3
:10239000070291438160211D206801F041F9226804
:1023A00090689169166A2B68AF69034340F2033065
:1023B000814341EA0721A868EF6908434FF6FC41D1
:1023C0008843E96840EA0720014328692F6A000131
:1023D00040EA0730084369686D6926F0220646EA3C
:1023E0000515294393602268906154F8460B0162F9
:1023F000012004F81F09E0752076E0762077A075AB
:102400000020B7E700B585B000210091019102914D
:10241000039100680D49884216D10D48C16941F009
:102420000401C161C16901F004010491816941F0B5
:10243000080181618069694600F008000490C020AD
:1024400000900448FFF7BCF805B000BD000800404C
:1024500000100240000C014070B590F83E60044648
:1024600090F83F5090F8423090F84320022021B17C
:1024700004290ED0012E1BD114E0012E18D1012BFE
:1024800016D184F83E0084F8420001220021206821
:1024900020E0012D0CD1012A0AD184F83F0084F8F4
:1024A000430014E0012D03D1012B01D1012A01D0F9
:1024B000012070BD84F83E0084F83F0084F842009B
:1024C00084F8430001220021206801F0E5F8012290
:1024D0000421206801F0E0F82068016841F0010162
:1024E0000160002070BD0000044A0168914204D1DF
:1024F000007F022801D1FFF703B87047002C01408C
:102500002DE9F041054690F83C0000260C460128D4
:1025100010D0012085F83C0072B1042A1CD0082A92
:102520002CD00C2A50D00126002085F83C003046E3
:10253000BDE8F0810220FBE7D4E90012E3682868D7
:1025400001F07EF92868816921F00C018161286819
:102550008169A26811430FE0D4E90012E36828689A
:1025600001F0ACF92868816921F440618161286833
:102570008169A26841EA02218161D5E72868D4E92E
:10258000002C277B036A016A21F480710162C16912
:1025900023F4007321F0030141EA0C0121F0F00C57
:1025A00039074FF400774CEA116107EA02221A4317
:1025B000C16102622868C16921F00C01C16128680B
:1025C000C169A26811432BE02868D4E90021E768BB
:1025D000036AD0F820C02CF4805CC0F820C0D0F88A
:1025E0001CC023F400532CF4407C4CEA012121F45C
:1025F000704C4FF6FF7101EA07314FF4005741EA82
:102600000C0107EA02321A43C16102622868C169FB
:1026100021F44061C1612868C169A26841EA0221D0
:10262000C16181E710B5040003D094F83D0010B1FA
:1026300007E0012010BD002084F83C00204600F097
:102640001EF8022084F83D00211D206800F0E8FFFC
:10265000012084F8460084F83E0084F83F0084F8A6
:10266000400084F8410084F8420084F8430084F874
:10267000440084F8450084F83D00002010BD7047F8
:1026800010B5044651B104290DD0082910D094F892
:10269000410094F84520012811D10EE094F83E0045
:1026A00094F84220F7E794F83F0094F84320F2E7CB
:1026B00094F8400094F84420EDE7012A01D001206D
:1026C00010BD022019B3042926D0082929D084F886
:1026D000410084F845000122206800F0DDFF134925
:1026E0002068884208D0B0F1804F05D01049884258
:1026F00002D01049884204D1816801F007010629FF
:1027000003D0016841F001010160002010BD84F890
:102710003E0084F84200DEE784F83F0084F843007E
:10272000D9E784F8400084F84400D4E7002C014045
:10273000000400400008004030B50446002551B1B7
:1027400004290DD0082910D094F8410094F84520B0
:10275000012811D10EE094F83E0094F84220F7E7EA
:1027600094F83F0094F84320F2E794F8400094F87E
:102770004420EDE7012A01D0012030BD022059B1EB
:10278000042912D0082919D084F8410084F84500A2
:102790000C2938D0012534E084F83E0084F842004A
:1027A0002068C26842F0020210E084F83F0084F81A
:1027B00043002068C26842F0040207E084F8400049
:1027C00084F844002068C26842F00802C260012216
:1027D000206800F061FF0E492068884208D0B0F1FF
:1027E000804F05D00B49884202D00B49884204D162
:1027F000816801F00701062903D0016841F0010159
:102800000160284630BD2068C26842F01002DDE752
:10281000002C014000040040000800402DE9F04178
:1028200004460068C66805694FF00007A90713D57C
:10283000B10711D5F91E0161012020772068806958
:102840008007204602D0FFF74FFE04E000F0A4F816
:10285000204600F036F92777680716D5700714D59B
:1028600021686FF0040008610220207720688069E9
:1028700010F4407F204602D0FFF736FE04E000F05F
:102880008BF8204600F01DF92777280715D530076B
:1028900013D521686FF008000861042020772068B4
:1028A000C0698007204602D0FFF71EFE04E000F05A
:1028B00073F8204600F005F92777E80616D5F006EC
:1028C00014D521686FF01000086108202077206877
:1028D000C06910F4407F204602D0FFF705FE04E0F7
:1028E00000F05AF8204600F0ECF82777E80708D007
:1028F000F00706D021686FF001000861204600F063
:102900002FF9280608D5300606D521686FF080001B
:1029100008612046FFF7E2FB680608D5700606D579
:1029200021686FF040000861204600F02FF9A806EA
:102930000AD5B00608D521686FF02000086120464E
:10294000BDE8F041FFF7CBBBBDE8F08100B585B035
:102950000021009101910291039100680B49884286
:1029600011D10B48816941F0040181618069694698
:1029700000F0040004904020009002200190039099
:102980000448FEF71DFE05B000BD00000004004035
:102990000010024000080140704770B5044690F8EE
:1029A0003C0000260D4601280FD0012084F83C0091
:1029B0006AB1042A1DD0082A2FD00C2A3FD0012644
:1029C000002084F83C00304670BD022070BD2068B5
:1029D00000F082FE2068816941F008018161206871
:1029E000816921F004018161206881692A691143AC
:1029F00011E0206800F098FE2068816941F40061D0
:102A000081612068816921F4806181612068816928
:102A10002A6941EA02218161D2E7206800F0B0FE14
:102A20002068C16941F00801C1612068C16921F0D5
:102A30000401C1612068C1692A69114311E020685D
:102A400000F0CAFE2068C16941F40061C1612068DC
:102A5000C16921F48061C1612068C1692A6941EAC4
:102A60000221C161ACE710B5040003D094F83D0029
:102A700010B107E0012010BD002084F83C00204682
:102A800000F01EF8022084F83D00211D206800F0AF
:102A9000C7FD012084F8460084F83E0084F83F001A
:102AA00084F8400084F8410084F8420084F8430030
:102AB00084F8440084F8450084F83D00002010BDEF
:102AC0007047704710B50446022249B104290ED060
:102AD000082913D094F84100012816D0012010BD18
:102AE00094F83E000128F9D184F83E200FE094F8D4
:102AF0003F000128F2D184F83F2008E094F840001C
:102B00000128EBD184F8402001E084F84120012223
:102B1000206800F0C1FD0F492068884203D1426C53
:102B200042F4004242642068884208D0B0F1804FED
:102B300005D00949884202D00849884204D18168F9
:102B400001F00701062903D0016841F0010101608D
:102B5000002010BD002C014000040040000800408F
:102B600070470246002041B1042909D008290AD043
:102B70000C2901D11068006C70471068406B7047D9
:102B80001068806B70471068C06B70477047FEE735
:102B900001684A69D24352050FD46FF480624A61DA
:102BA000002140F8301F202242738173026942F0F5
:102BB0000402026101730120704700207047000089
:102BC000F8B50446C06A1E460D461746082807D0C9
:102BD000012805D010F5803F02D0206B122804D1C7
:102BE0002068016841F480710160134600224FF0B3
:102BF00001112046009600F05DF840B120680068A1
:102C0000C00502D54FF4007020640320F8BD206990
:102C1000B0F5804F0ED00620216800EAD51040F0B4
:102C2000F000086133463A460B49204600F08AF826
:102C300078B902E005F0FE0000E0E8B22168086122
:102C4000054933463A46891F204600F07BF80028A4
:102C5000DCD00120F8BD00000800010070B5164668
:102C60000D4604461EE02046FFF792FF08B1012002
:102C700070BD681C16D0FEF799FD801BA84200D8D5
:102C800085B920684069C04340070BD5002044F84F
:102C9000300F20216173A073216941F0200121616F
:102CA0002073E4E720684069C0434007DBD400207C
:102CB00070BD00002DE9F047984617460D460446C2
:102CC000C1F30746DDF820902AE000BFB8F1FF3FCE
:102CD00026D0FEF76BFDA0EB0901414502D8B8F103
:102CE000000F1DD12068012E16D0806925EA000052
:102CF0000004000C12D00020B84211D1002044F88A
:102D0000300F20216173A073216941F020012161FE
:102D100020730120BDE8F0874069E7E70120EBE779
:102D20002068012E0AD0806925EA00000004000C0A
:102D300006D00020B842C9D00020EBE74069F3E795
:102D40000120F7E72DE9F047984616460D46044660
:102D50004FF000094FF0200AC1F3074723E0206835
:102D60004069C043400515D42068016841F40071F2
:102D7000016021686FF480604861C4F8309084F885
:102D80003DA084F83E90216C41F00401216484F858
:102D90003C9021E0701C06D0FEF708FDA0EB080077
:102DA000B04203D816B1012F1FD021E02068012FB7
:102DB00015D0806925EA00000004000C18D000BF7F
:102DC00044F8309F84F80DA084F80E90216941F0FA
:102DD0002001216184F80C900120BDE8F087406952
:102DE00025EA00000004000CEAD12068406901E0F7
:102DF0002068806925EA00000004000CAFD1ECE7F0
:102E000070B516460D4604461EE02046FFF7C0FE8C
:102E100008B1012070BD681C16D0FEF7C7FC801BEE
:102E2000A84200D885B920684069C04300060BD588
:102E3000002044F8300F20216173A073216941F014
:102E4000200121612073E4E720684069C043000647
:102E5000DBD4002070BD000030B585B000241748D9
:102E60000094019402940394816941F020018161EE
:102E7000816901F020010491816941F004018161BF
:102E8000816901F004010491816941F008018161C7
:102E900080690B4D00F008000490002201212846B3
:102EA000FEF77EFC0220012103900091CDE9011480
:102EB00069462846FEF784FB05B030BD001002408D
:102EC000000801400D4810B50B4901600C494160F4
:102ED00000214FF480428160C0E9031241618161A9
:102EE000C1610162FEF768FC002803D0BDE8104014
:102EF000FEF752BB10BD0000005800403800002013
:102F0000A086010010B58AB00024284804940594D6
:102F10000694079408940994009401940294224919
:102F2000039401604721C0E901144FF6FF71C0E925
:102F3000031444618461FFF707F908B1FEF72CFB25
:102F40004FF48050049004A91848FFF79BF908B18A
:102F5000FEF722FB1548FFF765FB08B1FEF71CFBE7
:102F6000089408A911480994FFF7BAF808B1FEF7C8
:102F700013FB0120CDE900400294002269460B4872
:102F80000394FFF7BDFA08B1FEF706FB022000909C
:102F90000190042269460548FFF7B2FA002801D0E3
:102FA000FEF7FAFA0AB010BD002C01408C00002098
:102FB00010B58EB000240794089409940A940B94D9
:102FC0001C2168460C94FDF779FA1F481D490160E1
:102FD00040F2CF21C0E9011440F2CF71C0E90314DF
:102FE0008461FFF7B1F808B1FEF7D6FA4FF48050CC
:102FF000079007A91448FFF745F908B1FEF7CCFA86
:103000001148FFF730FD08B1FEF7C6FA0B940BA983
:103010000D480C94FFF764F808B1FEF7BDFA602084
:10302000CDE9000402940022694607480494FFF7A2
:10303000B4FC08B1FEF7B0FA0348FFF787FC0EB006
:1030400010BD000000040040D400002010B58CB07A
:1030500024216846FDF732FA0024154809941349E3
:103060000A94C0E900144FF6FF71C0E902410461FF
:1030700084610120CDE90004CDE902040494CDE986
:103080000540079469460A480894FFF769F908B1B2
:10309000FEF782FA099409A905480A94FFF720F877
:1030A000002801D0FEF778FA0CB010BD00080040EF
:1030B0001C010020FEE7FEE72DE9F84F0446174605
:1030C0003D481E460D46BC4210D1B5420AD9457056
:1030D0002E461D4606E0294620460A9A00F014FABC
:1030E0006D1CEDB2B542F6D9BDE8F88FB5420FD1EF
:1030F000BC420AD944702746144606E029462046B9
:103100000A9A00F001FA641CE4B2BC42F6D9EBE77B
:10311000381B711B002801DD012300E000234FF064
:10312000FF3202EB43030093002901DD012300E09D
:103130000023A846002502EB430B002800DA40429A
:103140008146002900DA49428A46D14516DC2FE043
:1031500008F0FF01E0B20A9A00F0D6F905EB0A0088
:1031600005B2B9EB450F06DC08EB0B000FFA80F84F
:10317000A5EB090005B20098204404B2BC42E7D197
:10318000B2E700BF08F0FF01E0B20A9A00F0BCF914
:1031900005EB090005B2BAEB450F05DC00982044A9
:1031A00004B2A5EB0A0005B208EB0B000FFA80F899
:1031B000B045E7D198E700003000002010B5AE2000
:1031C00000F0DAF8202000F0D7F8102000F0D4F852
:1031D000B02000F0D1F8C82000F0CEF8002000F0B8
:1031E000CBF8102000F0C8F8402000F0C5F881208E
:1031F00000F0C2F8DF2000F0BFF8A12000F0BCF81A
:10320000A62000F0B9F8A82000F0B6F83F2000F0A2
:10321000B3F8A42000F0B0F8D32000F0ADF80020FF
:1032200000F0AAF8D52000F0A7F8F02000F0A4F8EC
:10323000D92000F0A1F8222000F09EF8DA2000F05A
:103240009BF8122000F098F8DB2000F095F8202081
:1032500000F092F88D2000F08FF8142000F08CF828
:1032600000F008F800F068F9BDE81040AF2000F069
:1032700083B800004FF480610148FDF7FDB80000FD
:10328000E50100203CB51C78059D203ACDE90045BC
:103290005D68E41D5B78E408544303FB045200F0CE
:1032A000CBF83CBD2DE9FF4F18785978C01DC008F8
:1032B00000254843001D83B01C46174600F0FF0A56
:1032C0002AE07819814600F015FB5FEA000826D055
:1032D00000260AE06168484606FB0A1B424659463A
:1032E000FDF759F8F0B1761CF6B2207AB042F1D869
:1032F00010980090E368B8F1010F20D0DDE90301D8
:103300002022FFF7BFFFE068417803980844C0B26D
:10331000039005EB080085B2785D0028D1D107B095
:10332000BDE8F08F10992078CDE900016378DDE9E0
:1033300003010BF1040200F07FF86178E5E77A5DA4
:10334000DDE90301FFF79EFFE0686D1CADB2417837
:1033500003980844C0B20390DEE7000008B54FF0C0
:10336000FF3200920B46024678210248FEF7E8FA47
:1033700008BD0000380000200249487002210148C1
:10338000FFF7ECBF320000202DE9FC41804607200A
:10339000CDE9000301F00704CD08164602FA04F057
:1033A0001F46C2B223464146284600F089F8002C49
:1033B0000CD0601EC0B2CDE90007C4F1080026FAA7
:1033C00000F2681C0023414600F07AF8BDE8FC8159
:1033D0002DE9FC4301F007061446CD0898468146C6
:1033E00001F0070106EB080204FA01F0099F082A20
:1033F00016D90721CDE90017C2B2334649462846FF
:1034000000F05EF808EB06000938C0B2CDE900070D
:10341000C6F1080024FA00F2681C0023494607E0C0
:10342000521ED1B2CDE90017C2B2334649462846F2
:1034300000F046F8BDE8FC832DE9FF4F82B01D4641
:103440000F989346C70800F00700884600260190B1
:1034500018E0029800240BEB060A00EB06090DE0C9
:1034600004FB05F0109B10F80A2008EBC400C1B261
:1034700009F0FF00FFF788FF641CE4B2BC42EFD301
:10348000761CF6B2AE42E4D30198002815D005FBB5
:1034900007F6002408EBC7070DE0109800903119DB
:1034A00002981BF801202044F9B2C0B2019BFFF73B
:1034B0008FFF641CE4B2AC42EFD306B0BDE8F08FDE
:1034C000F0B50828DDE9056419D2802917D20CB1BE
:1034D000D243D2B2FF25761C05FA06F6C3F10803E3
:1034E000084F46EA0204DD4007EBC017044B785C46
:1034F000B2432C43AA4320401A7010437854F0BDC5
:1035000030000020E501002030B580280ED240298F
:103510000CD201F007040123064DA340C90805EBB6
:10352000C111002A0A5C02D09A430A5430BD1A43E2
:10353000FBE70000E501002070B5104D402000249D
:10354000287005F1810600BF04F1B000C0B2FFF79A
:1035500013FF0020FFF710FF1020FFF70DFF06EB11
:10356000C4118022681CFCF742FF81210348FFF749
:10357000F5FE641CE4B2082CE6D370BD64010020A3
:1035800010B500F0FBF900EB8000322101EB4000A8
:10359000024980B20968486310BD0000D4000020D1
:1035A00070477047FEF792BA30B58FB02821684651
:1035B000FCF784FF14210AA8FCF780FF012108040E
:1035C000CDE900100024029402250491CDE90750B2
:1035D0004FF4E01009906846FEF7DCFB08B172B6C4
:1035E000FEE70F20CDE90A054FF48060CDE90C40DD
:1035F00002210AA80E94FEF701FB002801D072B642
:10360000FEE70FB030BD70470148FFF707B9000073
:103610008C0000200148FFF701B900008C00002059
:10362000F0B50268194B1A4C1A4D4FF0804798427A
:1036300005D0B84203D0A04201D0A84203D122F065
:1036400070064A683243984205D0B84203D0A0427F
:1036500001D0A84203D122F44074CA6822434C69C5
:1036600022F08002224302608A68C2620A68826293
:10367000984201D109690163012141610169C907CA
:1036800003D0016921F001010161F0BD002C01406E
:10369000000400400008004010B501F01F030121A4
:1036A000046A99408C430462016A9A4011430162A2
:1036B00010BD10B5846842EA032224F47F440A4313
:1036C0002243826010BD826822F070020A4342F0F9
:1036D000070181607047000030B5036A026A22F07A
:1036E000010202624268846924F073050C682C436D
:1036F00023F002058B682B430A4DA8420BD123F01F
:103700000805CB6822F440722B434D6923F0040373
:1037100015438A692A4342608461496841630362B0
:1037200030BD0000002C014030B5026A036A23F06E
:1037300010030362436884690D6824F4E64444EA94
:1037400005248D6822F0200242EA05120B4DA842A2
:103750000ED1CD6822F0800242EA05124D6923F4B1
:10376000406343EA85038D6922F0400243EA850302
:103770004360846149688163026230BD002C01406E
:1037800030B5036A026A22F4807202624268C46938
:1037900023F4007324F073050C682C438D6843EA0E
:1037A00005230C4DA8420ED1CD6823F4006343EAF3
:1037B00005234D6922F4405242EA05128D6923F433
:1037C000806342EA05124260C4614968C1630362D2
:1037D00030BD0000002C014030B5046A026A22F4BA
:1037E000805202624268C3690D6823F4E64343EAEB
:1037F00005238D6824F4005444EA0534064DA8429C
:1038000004D14D6922F4804242EA85124260C361CC
:1038100049680164046230BD002C014010B5036AA0
:10382000046A24F001040462846924F0F00444EA88
:10383000021423F00A020A438461026210BD0000F0
:1038400070B5056A046A24F00104046284690F4EAD
:10385000B04208D0B0F1804F05D00D4EB04202D03A
:103860000C4EB04203D124F00304144301E044F0B1
:1038700001041A0724F0F00444EA126225F00A0356
:1038800001F00A0119438261016270BD002C014000
:10389000000400400008004010B5036A046A24F0E8
:1038A00010040462846923F0A00324F4704444EA01
:1038B000023243EA01118261016210BD30B5046A2F
:1038C000056A25F010050562856925F4407545EA0D
:1038D000022222F470454FF6FF7202EA033224F00E
:1038E000A0032A43A02404EA011119438261016262
:1038F00030BDFEE70078010601D4012070470621A3
:10390000B1EB501F01D1022070470E21B1EB101F07
:1039100001D1032070471E21B1EBD00F01D104204B
:10392000704700207047490050EAC12018BF0420AA
:103930004A0D18BF40F0010040F2FF72B2EB515F38
:1039400008BF40F00200012808BF052070470907A2
:10395000090E002804DB00F1E02080F80014704715
:1039600000F00F0000F1E02080F8141D704730389F
:103970000A2801D2012070470020704708490868D2
:10398000426AB2F57A7F01D9002203E0426A142A22
:1039900001D9142242620868406A80B27047000070
:1039A0001C01002008B5FEF799F8FFF7FDFDFFF7B1
:1039B00053FAFFF787FAFFF7A5FAFFF747FBFFF780
:1039C000F7FA4FF47A70FDF7E9FD3C212048FEF745
:1039D00043FD00211F48FFF775F8FFF7EFFBFFF7E6
:1039E00049FC002401213223142208460094FFF7E9
:1039F00063FBFFF7A1FDFDF7A7FD174DFDF7B4FD34
:103A0000FFF738FC286800F099F902460B4613A12D
:103A10001548FCF7E9FBFFF7B1FF0246124813A176
:103A20000F38FCF7E1FB104A124B0F3A0521022038
:103A30000094FFF737FC0F4B0B4A1E210220009425
:103A4000FFF730FCFFF778FDFFF79AFDD6E700009F
:103A50001C010020D400002034000020443A20251E
:103A60002E336620636D00000F000020453A2025AC
:103A700064000000D045000810B500290AD008787D
:103A8000002807D005487844FDF728F9002801D020
:103A9000002010BD0248784410BD00000E0C00004C
:103AA000060C000021F00042A2F16052B2F5801F26
:103AB00001F0004328BFD2F17F6C0BD95FEA001CF4
:103AC00043EAC20242EB507018BF704728BF20F093
:103AD00001007047B2F5801FBCBF184670474FEA1F
:103AE000410C1CF5001F02D2084600F098B970B5D1
:103AF00000F0D0F800000089FFF7F6BF4FF000405B
:103B0000A0F580007047000002494FF0000000F06F
:103B10008DB900BF0000F87FB0FA80F310FA03F10E
:103B20000AD0C3F11D0303F580634FEA41504FEA09
:103B3000035202EBD12170474FF0000070470000A4
:103B4000DFF848C170B51CEA111E1EBF1CEA131530
:103B50009EEA0C0F95EA0C0F00F06F8081EA0304D7
:103B600023EA4C134EEAD47E21EA4C1141F4801131
:103B700043F48013AE44A1FB024CA0FB0365AEF1FD
:103B80007F7E361955EB0C05A1FB034C4CF100036D
:103B9000A0FB021C16EB0C06654153F10003094221
:103BA00018BF46F0010613F4007F0BD14FEA033132
:103BB0004FEA0530340341EA155140EA16506FF0E0
:103BC00003020AE04FEAC3214FEAC520F40241EAAA
:103BD000555140EA56506FF0020202EB2E4201EBC3
:103BE000025585EACE710AD05FEA440C18BF24F072
:103BF000004450F1000041F1000120EAD47040F28D
:103C0000FE7C624500D270BDA84214BF4FF08044D4
:103C10004FF04044002E08BF0024BEF1806FA8BFC3
:103C2000A1F1C041BDE8704080F282804FF00000F9
:103C300001F1C04101F0004170479EEA0C0F0CEA0F
:103C4000131518BF95EA0C0F06D04FF0000081EA5B
:103C5000030E0EF0004170BD00F01CF88900013E1B
:103C600000F007B800F009B84FEA430C5FEA5C5C6B
:103C700008D081EA030100F05BB84FEA410C5FEA2B
:103C80005C5CF6D14FF00000014970470000FF076F
:103C90000000F87F0EF1020E2EF0030E5EF8046BAA
:103CA000364205D4012A43EB030515F5001F12D84F
:103CB000012841EB010C1CF5001F0CD80ED14FEA76
:103CC000D17C15F5001F0CEB4C0C0CF1020C08BF5D
:103CD0004CEBD37C04E04FF0080C01E04FEAD37CBE
:103CE0000CEB4C0526FA05F606F00706B6F1040CB7
:103CF00006D20EEB860CBDE870404CF0010C60471C
:103D0000DFE80CF0090B02024FF000414FF0000019
:103D1000A1F5002170BD19461046012851EB0104A0
:103D200018BFD4F5001484BF002001F0004170BD1D
:103D30000808A0F500114FEA3101704743004FEA2F
:103D4000D30C4FEA3C0C43401FBF40070CF16051BD
:103D500013F0FE4F70471CF0006F03D100200CF0F1
:103D6000004170470CF0004343EA507010B540EA40
:103D7000CC0000F00EF800BF000000924FEA0001F6
:103D8000FFF7D6BF4FF000414FF00000A1F5002132
:103D900070470EF1020E2EF0030E5EF8044B244223
:103DA00004D44FEA4102B2F17F4F11D84FEA4003E9
:103DB000B3F17F4F0CD80ED14FEAD07CB2F17F4FD8
:103DC0000CEB4C0C0CF1020C08BF4CEBD17C04E06A
:103DD0004FF0080C01E04FEAD17C0CEB4C0324FAC5
:103DE00003F404F00704B4F1040C06D20EEB840CC7
:103DF000BDE810404CF0010C6047DFE80CF007080C
:103E000002024FF00040A0F5800010BD08464200BD
:103E100018BFD2F1807288BF00F0004010BDFF21B2
:103E200041EAD050C0057047FCF7A4BC0CF00F036A
:103E3000092B08BF082000F059800A2B0BD0082B53
:103E400018BF704708BF1CF0400F0AD04FF00000A9
:103E50004FF0000170471CF0400F18BF4FF00040BA
:103E600070471CF0100F08D020F0704300F07F4224
:103E700042EAD3014FEA4370704700F0604021F0FE
:103E80007F4242EA000201F07F4040EA72707047D0
:103E90004FF0FF0C4CF4E06C1CEA11531CBF9CEA81
:103EA000030C9445C2BFDA4201EB02517047002B6C
:103EB0000DD0BCF1000F0FD0002A01F00041A4BFCB
:103EC00041F0E04141F07F614FF00000704701F0A8
:103ED00000414FF00000704750EA01334FF09B0C57
:103EE00018BF4CF0806C7FF40FAE70471CF4801F3D
:103EF00011D01CF4E02F03D06FEACC314900704799
:103F00004FF04050EFF3008222F0704242EA00028C
:103F100082F3008870474FF00000704701020203EF
:103F20000405060708090A0B0C0D0E0F10100000FF
:103F30000000000000000102030406070809000059
:103F40000000010203040000000000000000000067
:103F5000000000000000000000F800000000000069
:103F600000333000000000100C06100C06000000AA
:103F700000000000000040C07840C0784000043FCE
:103F800004043F040400007088FC0830000000189E
:103F900020FF211E0000F008F000E01800000021C2
:103FA0001C031E211E0000F00888700000001E2166
:103FB00023241927211010160E0000000000000015
:103FC000000000000000000000E0180402000000F3
:103FD00000071820400000020418E0000000004024
:103FE000201807000000404080F08040400002029E
:103FF000010F01020200000000F0000000000101BA
:10400000011F01010100000000000000000080B05D
:10401000700000000000000000000000000000012F
:10402000010101010101000000000000000000305A
:1040300030000000000000000000806018040060F4
:1040400018060100000000E010080810E000000F52
:10405000102020100F00001010F8000000000020B9
:10406000203F202000000070080808887000003001
:1040700028242221300000300888884830000018A9
:10408000202020110E000000C02010F800000007C2
:104090000424243F240000F8088888080800001938
:1040A000212020110E0000E0108888180000000F69
:1040B000112020110E0000380808C8380800000040
:1040C000003F000000000070880808887000001C95
:1040D000222121221C0000E010080810E00000004E
:1040E000312222110F00000000C0C00000000000BB
:1040F00000303000000000000080000000000000E0
:1041000080600000000000008040201008000001D6
:104110000204081020004040404040404000040499
:104120000404040404000008102040800000002063
:10413000100804020100007048080808F0000000A0
:10414000003036010000C030C828E810E000071831
:10415000272423140B000000C038E0000000203C9E
:1041600023020227382008F8888888700000203F42
:10417000202020110E00C030080808083800071859
:1041800020202010080008F808080810E000203F50
:10419000202020100F0008F88888E8081000203F31
:1041A00020202320180008F88888E8081000203F05
:1041B000200003000000C03008080838000007187D
:1041C0002020221E020008F808000008F808203FFE
:1041D000210101213F20000808F808080000002004
:1041E000203F2020000000000808F8080800C080D8
:1041F00080807F00000008F888C028180800203F51
:1042000020012638200008F8080000000000203FA8
:1042100020202020300008F8F800F8F80800203F9F
:10422000003F003F200008F830C00008F808203F99
:10423000200007183F00E01008080810E0000F10E9
:10424000202020100F0008F808080808F000203F80
:10425000210101010000E01008080810E0000F181B
:10426000242438504F0008F8888888887000203F40
:104270002000030C3020007088080808380000383F
:10428000202121221C00180808F808081800000046
:10429000203F2000000008F808000008F808001F70
:1042A000202020201F000878880000C8380800005F
:1042B00007380E010000F80800F80008F800033C79
:1042C0000700073C03000818688080681808203041
:1042D0002C03032C30200838C800C8380800000020
:1042E000203F2000000010080808C83808002038C7
:1042F000262120201800000000FE0202020000001B
:10430000007F40404000000C30C000000000000072
:1043100000010638C00000020202FE00000000405A
:1043200040407F0000000000040202020400000080
:10433000000000000000000000000000000080807D
:104340008080808080800002020400000000000065
:104350000000000000000000808080800000001944
:10436000242222223F2008F8008080000000003F25
:10437000112020110E000000008080800000000E3F
:10438000112020201100000000808088F800000E1D
:10439000112020103F200000808080800000001F3E
:1043A000222222221300008080F0888888180020B2
:1043B000203F202000000000808080808000006B73
:1043C00094949493600008F8008080800000203F5F
:1043D000210000203F20008098980000000000206D
:1043E000203F20200000000000809898000000C0BE
:1043F0008080807F000008F8000080808000203FDF
:1044000024022D302000000808F8000000000020E1
:10441000203F202000008080808080808000203F1E
:1044200020003F20003F8080008080800000203FEF
:10443000210000203F200000808080800000001FBD
:10444000202020201F00808000808000000080FF4E
:10445000A12020110E000000008080808000000E4E
:10446000112020A0FF80808080008080800020209C
:104470003F21200001000000808080808000003308
:10448000242424241900008080E0808000000000A3
:10449000001F202000008080000000808000001F9E
:1044A000202020103F20808080000080808000013C
:1044B0000E300806010080800080008080800F3070
:1044C0000C030C300F0000808000808080000020F2
:1044D000312E0E312000808080000080808080811D
:1044E0008E7018060100008080808080800000218E
:1044F000302C2221300000000000807C02020000ED
:104500000000003F404000000000FF0000000000ED
:104510000000FF0000000002027C8000000000405C
:10452000403F0000000000060101020204040000F8
:10453000000000000000000010080000463F0008D6
:10454000E6B3A2001060020CC000F8888888FF88DB
:1045500088A8180004047C0380601F80432C102866
:1045600046818000E789B900403C10FF10104048A8
:1045700048487F48C8484000020602FF0101000287
:104580000A1242827F020200E5BE8B00001088C43E
:104590003310545454FF54547C101000020100FF97
:1045A0000010121212FF121212100000E58AA80069
:1045B0004044C4444444401010FF101010F0000068
:1045C000103C131014B840300E014080403F0000F2
:1045D00010100000404500080400000038450008A5
:1045E00002400000000000A00000000005400000A4
:1045F000000000C8000000000C4000000000409CCB
:1046000000000000194000000020BCBE00000000B7
:1046100034400000BFC91B8E00000004B5400000FC
:10462000504BCFD06607E2CF010000006C41000084
:104630003E8251AADFEEA73401000000D9420000FB
:10464000DCB5A0E23A301F97FFFFFFFFB445000042
:10465000FD25A0C8E9A3C14FFFFFFFFFFF3F0000FA
:104660000000008000000000FF3F0000000000800C
:1046700000000000B04600080000002038000000E4
:1046800028010008E846000838000020100C00004F
:10469000440100081C00000043000000F8FFFFFF79
:1046A0000C0000000E0000000F0000002E000000B3
:1046B0003100000000000000000000000000003198
:1046C00000000000000000000000000000000000EA
:1046D00001000000100000000000000000127A003D
:0846E0000000000000000000D2
:04000005080000ED02
:00000001FF
