:020000040800F2
:10000000A0070020890100088317000821150008B7
:10001000811700088F020008CB1A000800000000BA
:10002000000000000000000000000000871700082A
:1000300091020008000000008517000889170008D9
:10004000A3010008A3010008A3010008A301000800
:10005000A3010008A3010008A3010008A3010008F0
:10006000A3010008A3010008A3010008A3010008E0
:10007000A3010008A3010008A3010008A3010008D0
:10008000A3010008A3010008A3010008A3010008C0
:10009000A3010008A3010008A3010008A3010008B0
:1000A000A3010008A3010008A3010008ED17000840
:1000B000A3010008A3010008A3010008A301000890
:1000C000A3010008A3010008A3010008A301000880
:1000D000A3010008A3010008A3010008A301000870
:1000E000A3010008A3010008A301000800F002F822
:1000F00000F03AF80AA090E8000C82448344AAF188
:100100000107DA4501D100F02FF8AFF2090EBAE885
:100110000F0013F0010F18BFFB1A43F0010318473B
:10012000441A0000641A0000103A24BF78C878C14D
:10013000FAD8520724BF30C830C144BF04680C60ED
:10014000704700000023002400250026103A28BF35
:1001500078C1FBD8520728BF30C148BF0B60704739
:100160001FB51FBD10B510BD00F058F81146FFF7C0
:10017000F7FF01F0BBFC00F076F803B4FFF7F2FFE5
:1001800003BC00F07DF8000009488047094800479B
:10019000FEE7FEE7FEE7FEE7FEE7FEE7FEE7FEE737
:1001A000FEE7FEE704480549054A064B7047000094
:1001B000EB170008ED000008A0010020A0070020B8
:1001C000A0030020A00300204FF0000200B513465A
:1001D00094469646203922BFA0E80C50A0E80C5067
:1001E000B1F12001BFF4F7AF090728BFA0E80C5018
:1001F00048BF0CC05DF804EB890028BF40F8042B11
:1002000008BF704748BF20F8022B11F0804F18BF7D
:1002100000F8012B7047704770477047754600F033
:100220002BF8AE4605006946534620F00700854688
:1002300018B020B5FFF7B6FFBDE820404FF000062C
:100240004FF000074FF000084FF0000B21F00701BE
:10025000AC46ACE8C009ACE8C009ACE8C009ACE801
:10026000C0098D46704710B50446AFF300802046A4
:10027000BDE81040FFF781BF004870473C010020F7
:1002800001491820ABBEFEE7260002007047FEE7DA
:10029000704772B6FEE7000070B5044600F004F93E
:1002A0000546601C02D004480078044400F0FCF8C5
:1002B000401BA042FAD370BD000000202DE9F84F8A
:1002C000DFF8B8910024A9F1040B23460F2709F1A8
:1002D000040AABF1040EC9E00125A5402A40AA4258
:1002E0007DD1674ED1F804C0ACEB0608B44532D0DE
:1002F00014DCBCF1030F3AD009DCBCF1000F2AD0AA
:10030000BCF1010F1CD0BCF1020F31D11DE0BCF1DA
:10031000110F17D0BCF1120F2AD119E0B8F5881FC0
:1003200019D006DCB8F5803F15D0B8F5801F1FD175
:1003300011E0B8F5001F0ED0B8F5041F18D10AE07F
:10034000CB6815E0CB681B1D12E0CB6808330FE0CB
:10035000CB680C330CE08B682BB1012B4FF00803FA
:1003600003D0456104E0042302E0056100E00023BE
:10037000FF2A01D8064601E000F104064FEA840591
:1003800001D9A5F12005D6F8008007FA05FC28EA76
:100390000C0803FA05F548EA0508C6F800804D6820
:1003A000ED0062D5374DAE6946F00106AE61AD692C
:1003B00024F0030605F001050095334D06EB050C0E
:1003C000DCF80850A607360F07FA06F825EA0805F4
:1003D000DFF8B880404503D14FF0000817E044E053
:1003E000DFF8AC80404502D14FF001080FE0DFF8A4
:1003F000A480404502D14FF0020808E0DFF8988061
:10040000404502D14FF0030801E04FF0040808FA1C
:1004100006F848EA0508CCF808804D68D9F800606D
:10042000ED024D4601D5164300E096432E604D681F
:10043000DAF80060AD02554601D5164300E0964358
:100440002E604D68DBF80060AD035D4601D51643B4
:1004500000E096432E604D68DEF80060ED037546BF
:1004600001D5164300E096432E60641C0D682A46B1
:10047000E5407FF431AFBDE8F88F0000080401408B
:10048000000011100010024000000140000801406F
:10049000000C014000100140001401400AB101614C
:1004A00070470904FBE700000148806870470000BE
:1004B0000000002070B5040025D094F83D00002510
:1004C00020B984F83C50204600F0B8F8242084F885
:1004D0003D002068016821F0010101602068016889
:1004E00041F4004101602068016821F4004101608D
:1004F00000F002FA4D4A6168914201D84C4900E08F
:100500004C49884201D2012070BD4B492368B0FBA1
:10051000F1F15E6826F03F060E435E606368934229
:1005200006D94FF4967359434FF47A73B1FBF3F144
:100530002368491C1E6A26F03F0631431962616830
:10054000914210D84900401EB0FBF1F2521CC2F398
:100550000B02042A01D2042022E0B0FBF1F0401C7F
:10056000C0F30B001CE0A268F2B301EBC10303EB84
:100570000116431EB3FBF6F35B1C43F480431B05DB
:1005800049D092B301EBC10202EB0111401EB0FB56
:10059000F1F0401CC0F30B0040F4804040F40040F8
:1005A0002168CA694CF6FF739A431043C861D4E9C5
:1005B000071001432068026822F0C0021143016065
:1005C000D4E9030101432068826848F2FF339A436B
:1005D00011438160D4E9050108432168CA6822F00B
:1005E000FF021043C86001E00EE016E020680168D9
:1005F00041F0010101602564202084F83D0025635D
:1006000084F83E50002070BD01EB4106431EB3FB51
:10061000F6F35B1CB3E70120C2E701EB4101401E8A
:10062000B0FBF1F0401CC0F30B00B7E7A08601005F
:1006300080841E0000093D0040420F0010B586B0C6
:1006400000210091019102910391006810498842B4
:100650001BD1104CA06940F00800A061A069694658
:1006600000F0080004904FF44060009012200190C8
:10067000032003900848FFF721FEE06940F4800062
:10068000E061E06900F48000049006B010BD000055
:100690000058004000100240000C014002488168F0
:1006A000027811448160704700000020074810B5AF
:1006B000016841F010010160032000F075F80F207F
:1006C00000F006F800F024F8002010BD00200240E1
:1006D00070B50D4D04464FF47A712878B1FBF0F0F7
:1006E0000A490968B1FBF0F000F0CCFA48B9102CC7
:1006F00007D200222146501E00F036F800206C6020
:1007000070BD012070BD0000000000200C00002022
:100710000C4808B5816941F001018161816901F0EE
:1007200001010091C16941F08051C161C06900F0CF
:10073000805000900448416821F0E06141F0007170
:10074000416008BD0010024000000140002809DBA4
:1007500000F01F02012191404009800000F1E020DB
:10076000C0F8001170470000F0B40E4B1B680C4637
:10077000C3F30223C3F10705042D00D90425191D75
:10078000072901D2002300E0DB1E012606FA05F14D
:10079000491E214099409E40761E16403143F0BCD0
:1007A00001F094B90CED00E0064900F0070208687A
:1007B0004FF6FF03184040EA0220034A1043086046
:1007C000704700000CED00E00000FA052DE9F0474D
:1007D0000F46050061D0434E306800F00700B84274
:1007E00009D2306820F0070038433060306800F0EC
:1007F0000700B84251D128683B4C810712D5400709
:1008000003D5606840F4E06060602878000703D595
:10081000606840F4605060606068A96820F0F00093
:10082000084360602878C00728D06868012810D085
:100830002168022810D0890700292EDA616821F08A
:10084000030101436160FFF72FFE804641F28839C2
:100850000DE021688903EFE78901EDE7FFF724FE4A
:10086000A0EB0801494502D90320BDE8F087606884
:10087000696800F00C00B0EB810FEFD1306800F038
:100880000700B8420BD9306820F0070038433060C9
:10089000306800F00700B84201D00120E5E7287871
:1008A000400705D56068E96820F4E06008436060AF
:1008B0002878000706D56068296920F4605040EA6E
:1008C000C100606000F028F86168084AC1F30311B4
:1008D000515CC8400649086006480068FFF7F8FE0A
:1008E0000020C2E700200240001002404A1B00081E
:1008F0000C000020040000200448054900684968F5
:10090000044AC1F30221515CC84070470C0000202A
:10091000001002405A1B00080E4A51680E4801F0B0
:100920000C03042B11D0082B0FD10C48C1F38343C7
:10093000C903C05C0AD55168084AC1F34041921E00
:10094000515C054A5043B0FBF1F0704704494843FD
:10095000704700000010024000127A003A1B0008A5
:1009600000093D002DE9F84F040070D02078C04DFB
:10097000C00749D06868C0F38100012807D06868C3
:10098000C0F38100022809D16868C00306D5286831
:10099000800339D560680028E7D035E06068B0F59D
:1009A000803F0BD010B1B0F5A02F11D0286820F4F3
:1009B00080302860286820F4802002E0286840F415
:1009C00080302860606890B1FFF76EFD06460AE04F
:1009D000286840F480202860F0E700BFFFF764FD3E
:1009E000801B642873D828688003F7D50CE0FFF7D4
:1009F0005BFD064605E000BFFFF756FD801B64283F
:100A0000F0D828688003F7D420789A4E80074FF0FA
:100A100001094FF0000839D5686810F00C0F07D0B5
:100A20006868C0F38100022809D16868C00306D451
:100A30002868800714D52069012808D110E02069B2
:100A4000B0B1C6F80090FFF72FFD074605E00AE1B8
:100A5000FFF72AFDC01B0228C4D828688007F7D5F5
:100A60002868616920F0F80040EAC10028600DE0C4
:100A7000C6F80080FFF718FD074604E0FFF714FDF5
:100A8000C01B022823D828688007F7D420780007E5
:100A90002CD57948A169D9B1C0F80090FFF704FDC1
:100AA000074604E0FFF700FDC01B02280FD8686A64
:100AB0008007F7D571484FF4FA510068B0FBF1F0A8
:100AC000009000BF0098411E0091FAD20EE080E035
:100AD000C0F80080FFF7E8FC074604E0FFF7E4FCFD
:100AE000C01B022875D8686A8007F7D420784007B1
:100AF00060D5E8690027C00008D4E86940F080505C
:100B0000E861E869012700F0805000905C480168C6
:100B1000C90513D40168834641F480710160FFF771
:100B2000C3FC824606E000BFFFF7BEFCA0EB0A0054
:100B300064284ED8DBF80000C005F5D5E068012830
:100B40000AD008B1052813D0286A20F001002862D5
:100B5000286A20F0040002E0286A40F001002862C0
:100B6000E06841F2883B98B1FFF79EFC82460BE0BB
:100B7000286A40F004002862EEE700BFFFF794FC0B
:100B8000A0EB0A0159455AD8286A8007F6D50CE02F
:100B9000FFF78AFC824605E0FFF786FCA0EB0A011E
:100BA00059454CD8286A8007F6D41FB1E86920F06F
:100BB0008050E861E06988B36968C1F38101022966
:100BC00044D00228C6F8608004D0FFF76DFC0446CC
:100BD00038E034E0FFF768FC074604E0FFF764FC08
:100BE000C01B02282BD828688001F7D4206AB0F5F2
:100BF000803F05D16868A16820F400300843686030
:100C0000D4E908010843696821F474110843686055
:100C1000C6F86090FFF748FC044606E025E000BFF8
:100C2000FFF742FC001B022809D828688001F7D58D
:100C30001BE000BFFFF738FC001B022802D903208D
:100C4000BDE8F88F28688001F4D40EE00128F7D0C1
:100C50006868226A00F48031914204D1616A00F42C
:100C60007010884201D00120EAE70020E8E7000088
:100C70000010024000004242800442420C0000206A
:100C80000070004010B5401EB0F1807F01D30120FC
:100C900010BD4FF0E02460610F21601700F016FFD7
:100CA0000020A06107202061002010BD7047704720
:100CB00070B590F83C20012A26D0012480F83C40F1
:100CC000022280F83D2003685A689D6822F0700671
:100CD0000A6832435A600D4B02689A4208D0B2F15A
:100CE000804F05D00A4B9A4202D00A4B9A4204D157
:100CF000496825F080031943916080F83D40002148
:100D000080F83C10084670BD022070BD002C0140E8
:100D1000000400400008004010B5040003D094F81F
:100D20003D0010B107E0012010BD002084F83C0018
:100D3000204600F01FF8022084F83D00211D2068A5
:100D400000F05AFD012084F8460084F83E0084F843
:100D50003F0084F8400084F8410084F8420084F8A1
:100D6000430084F8440084F8450084F83D000020E6
:100D700010BD000000B585B00021009101910291E5
:100D80000391184A0168184891421FD1816941F4C2
:100D900000618161816901F400610491816941F020
:100DA000040181618069694600F004000490901597
:100DB00000900E48FFF782FA002211461B20FFF731
:100DC000D3FC1B20FFF7C2FC05B000BD084A9142CE
:100DD000FAD1C16941F00201C161C06900F00200AD
:100DE0000490F1E7002C014000100240000801408F
:100DF0000004004070B5044690F83C00002501282E
:100E000017D0012684F83C60022084F83D00206859
:100E1000826822F0770222F47F42826008685028BC
:100E200038D00DDC20284FD005DC90B3102811D12C
:100E30004AE0022070BD302846D040280AD13BE06D
:100E400060282FD070280DD0B0F5805F03D0B0F5AA
:100E5000005F12D0012584F83D60002084F83C003A
:100E6000284670BDCB68D1E90121206800F00DFD56
:100E70002068816841F0770109E0CB68D1E9012160
:100E8000206800F002FD2068816841F480418160A3
:100E9000E1E719E0CA684968206800F0ABFD50211D
:100EA000206806E0CA684968206800F0E1FD60211A
:100EB000206800F0F4FCCEE7CA684968206800F0BA
:100EC00099FD40212068F4E7226801461046F0E7CA
:100ED0002DE9F0410D46040003D094F83D0018B10F
:100EE00008E00120BDE8F081002084F83C002046A5
:100EF00000F040F8022084F83D002068816844F248
:100F0000070291438160211D206800F075FC226872
:100F100090689169166A2B68AF69034340F2033009
:100F2000814341EA0721A868EF6908434FF6FC4175
:100F30008843E96840EA0720014328692F6A0001D5
:100F400040EA0730084369686D6926F0220646EAE0
:100F50000515294393602268906154F8460B01629D
:100F6000012004F81F09E0752076E0762077A0754F
:100F70000020B7E700B585B00021009101910291F2
:100F8000039100680D49884216D10D48C16941F0AE
:100F90000401C161C16901F004010491816941F05A
:100FA000080181618069694600F008000490C02052
:100FB00000900448FFF782F905B000BD000800402A
:100FC00000100240000C014070B590F83E600446ED
:100FD00090F83F5090F8423090F84320022021B121
:100FE00004290ED0012E1BD114E0012E18D1012BA3
:100FF00016D184F83E0084F84200012200212068C6
:1010000020E0012D0CD1012A0AD184F83F0084F898
:10101000430014E0012D03D1012B01D1012A01D09D
:10102000012070BD84F83E0084F83F0084F842003F
:1010300084F8430001220021206800F019FC0122FD
:101040000421206800F014FC2068016841F00101CF
:101050000160002070BD70472DE9F041054690F811
:101060003C0000260C46012810D0012085F83C00E9
:1010700072B1042A1CD0082A2CD00C2A50D0012688
:10108000002085F83C003046BDE8F0810220FBE7F7
:10109000D4E90012E368286800F0BEFC2868816982
:1010A00021F00C01816128688169A26811430FE079
:1010B000D4E90012E368286800F0ECFC2868816934
:1010C00021F44061816128688169A26841EA0221B6
:1010D0008161D5E72868D4E9002C277B036A016A7F
:1010E00021F480710162C16923F4007321F00301CE
:1010F00041EA0C0121F0F00C39074FF400774CEA7B
:10110000116107EA02221A43C16102622868C169BB
:1011100021F00C01C1612868C169A26811432BE06C
:101120002868D4E90021E768036AD0F820C02CF4CD
:10113000805CC0F820C0D0F81CC023F400532CF40D
:10114000407C4CEA012121F4704C4FF6FF7101EA1A
:1011500007314FF4005741EA0C0107EA02321A4303
:10116000C16102622868C16921F44061C1612868D7
:10117000C169A26841EA0221C16181E710B504009A
:1011800003D094F83D0010B107E0012010BD00200D
:1011900084F83C00204600F01EF8022084F83D0050
:1011A000211D206800F028FB012084F8460084F807
:1011B0003E0084F83F0084F8400084F8410084F841
:1011C000420084F8430084F8440084F8450084F821
:1011D0003D00002010BD70472DE9F0410446006835
:1011E000C66805694FF00007A90713D5B10711D5E7
:1011F000F91E016101202077206880698007204660
:1012000002D0FFF728FF04E000F0A4F8204600F029
:1012100036F92777680716D5700714D521686FF05F
:1012200004000861022020772068806910F4407F64
:10123000204602D0FFF70FFF04E000F08BF82046B5
:1012400000F01DF92777280715D5300713D5216839
:101250006FF008000861042020772068C0698007CB
:10126000204602D0FFF7F7FE04E000F073F82046B6
:1012700000F005F92777E80616D5F00614D52168A1
:101280006FF010000861082020772068C06910F412
:10129000407F204602D0FFF7DEFE04E000F05AF85F
:1012A000204600F0ECF82777E80708D0F00706D0D2
:1012B00021686FF001000861204600F02FF9280630
:1012C00008D5300606D521686FF0800008612046F9
:1012D000FFF7ECFC680608D5700606D521686FF0AC
:1012E00040000861204600F01AF9A8060AD5B006A9
:1012F00008D521686FF0200008612046BDE8F04164
:10130000FFF7D5BCBDE8F08100B585B000210091A4
:1013100001910291039100680B49884211D10B4859
:10132000816941F0040181618069694600F004002F
:101330000490402000900220019003900448FEF7A2
:10134000BDFF05B000BD00000004004000100240D9
:1013500000080140704770B5044690F83C00002634
:101360000D4601280FD0012084F83C006AB1042A00
:101370001DD0082A2FD00C2A3FD00126002084F847
:101380003C00304670BD022070BD206800F090FA2D
:101390002068816941F0080181612068816921F03C
:1013A00004018161206881692A69114311E0206884
:1013B00000F0A6FA2068816941F40061816120682B
:1013C000816921F480618161206881692A6941EA2B
:1013D00002218161D2E7206800F0BEFA2068C1696D
:1013E00041F00801C1612068C16921F00401C161B7
:1013F0002068C1692A69114311E0206800F0D8FA19
:101400002068C16941F40061C1612068C16921F4AB
:101410008061C1612068C1692A6941EA0221C16114
:10142000ACE710B5040003D094F83D0010B107E01C
:10143000012010BD002084F83C00204600F01EF87A
:10144000022084F83D00211D206800F0D5F901201C
:1014500084F8460084F83E0084F83F0084F8400099
:1014600084F8410084F8420084F8430084F8440082
:1014700084F8450084F83D00002010BD7047704797
:1014800010B50446022249B104290ED0082913D010
:1014900094F84100012816D0012010BD94F83E00B8
:1014A0000128F9D184F83E200FE094F83F0001288C
:1014B000F2D184F83F2008E094F840000128EBD1F5
:1014C00084F8402001E084F841200122206800F0E7
:1014D000CFF90F492068884203D1426C42F40042A0
:1014E00042642068884208D0B0F1804F05D0094995
:1014F000884202D00849884204D1816801F007017E
:10150000062903D0016841F001010160002010BDEF
:10151000002C014000040040000800407047704764
:10152000FEE7000030B585B0002417480094019410
:1015300002940394816941F020018161816901F085
:1015400020010491816941F004018161816901F008
:1015500004010491816941F00801816180690B4DAA
:1015600000F008000490002201212846FEF796FFB3
:101570000220012103900091CDE90114694628461B
:10158000FEF79CFE05B030BD00100240000801408F
:101590000D4810B50B4901600C49416000214FF422
:1015A00080428160C0E9031241618161C1610162D1
:1015B000FEF780FF002803D0BDE81040FEF769BEAB
:1015C00010BD00000058004010000020A08601005F
:1015D00010B58AB000242848049405940694079412
:1015E00008940994009401940294224903940160A0
:1015F0004721C0E901144FF6FF71C0E903144461AB
:101600008461FFF789FB08B1FEF743FE4FF4805079
:10161000049004A91848FFF7EDFB08B1FEF739FE66
:101620001548FFF7ABFD08B1FEF733FE089408A993
:1016300011480994FFF73CFB08B1FEF72AFE012090
:10164000CDE900400294002269460B480394FFF75D
:1016500003FD08B1FEF71DFE022000900190042258
:1016600069460548FFF7F8FC002801D0FEF711FE97
:101670000AB010BD002C01406400002010B58EB0EF
:1016800000240794089409940A940B941C2168463A
:101690000C94FEF799FD1F481D49016040F2CF21CF
:1016A000C0E9011440F2CF71C0E903148461FFF76F
:1016B00033FB08B1FEF7EDFD4FF48050079007A90A
:1016C0001448FFF797FB08B1FEF7E3FD1148FFF759
:1016D000A8FE08B1FEF7DDFD0B940BA90D480C9494
:1016E000FFF7E6FA08B1FEF7D4FD6020CDE900046B
:1016F00002940022694607480494FFF72CFE08B1C3
:10170000FEF7C7FD0348FFF7FFFD0EB010BD000058
:1017100000040040AC00002010B58CB024216846C5
:10172000FEF752FD00241548099413490A94C0E9B4
:1017300000144FF6FF71C0E9024104618461012089
:10174000CDE90004CDE902040494CDE905400794F5
:1017500069460A480894FFF7BBFB08B1FEF799FDFC
:10176000099409A905480A94FFF7A2FA002801D0B4
:10177000FEF78FFD0CB010BD00080040F400002003
:10178000FEE7FEE770477047FEF788BF30B58FB0C1
:1017900028216846FEF718FD14210AA8FEF714FD5B
:1017A00001210804CDE900100024029402250491CF
:1017B000CDE907504FF4E01009906846FFF7D2F8E2
:1017C00008B172B6FEE70F20CDE90A054FF480603C
:1017D000CDE90C4002210AA80E94FEF7F7FF00287D
:1017E00001D072B6FEE70FB030BD70470148FFF779
:1017F000F3BC000064000020F0B50268194B1A4CDD
:101800001A4D4FF08047984205D0B84203D0A0420D
:1018100001D0A84203D122F070064A6832439842B0
:1018200005D0B84203D0A04201D0A84203D122F48F
:101830004074CA6822434C6922F08002224302604D
:101840008A68C2620A688262984201D109690163AA
:10185000012141610169C90703D0016921F001013A
:101860000161F0BD002C0140000400400008004070
:1018700010B501F01F030121046A99408C430462F2
:10188000016A9A401143016210BD10B5846842EAB2
:10189000032224F47F440A432243826010BD8268FD
:1018A00022F070020A4342F0070181607047000095
:1018B00030B5036A026A22F001020262426884695A
:1018C00024F073050C682C4323F002058B682B432E
:1018D0000A4DA8420BD123F00805CB6822F44072D0
:1018E0002B434D6923F0040315438A692A43426060
:1018F000846149684163036230BD0000002C0140EF
:1019000030B5026A036A23F01003036243688469F6
:101910000D6824F4E64444EA05248D6822F0200290
:1019200042EA05120B4DA8420ED1CD6822F080028A
:1019300042EA05124D6923F4406343EA85038D6949
:1019400022F0400243EA8503436084614968816371
:10195000026230BD002C014030B5036A026A22F4F5
:10196000807202624268C46923F4007324F0730534
:101970000C682C438D6843EA05230C4DA8420ED118
:10198000CD6823F4006343EA05234D6922F44052F5
:1019900042EA05128D6923F4806342EA051242602F
:1019A000C4614968C163036230BD0000002C01407E
:1019B00030B5046A026A22F4805202624268C36946
:1019C0000D6823F4E64343EA05238D6824F40054AC
:1019D00044EA0534064DA84204D14D6922F4804200
:1019E00042EA85124260C36149680164046230BD05
:1019F000002C014010B5036A046A24F0010404625B
:101A0000846924F0F00444EA021423F00A020A4331
:101A10008461026210BD000070B5056A046A24F09A
:101A20000104046284690F4EB04208D0B0F1804FC7
:101A300005D00D4EB04202D00C4EB04203D124F07E
:101A40000304144301E044F001041A0724F0F004F5
:101A500044EA126225F00A0301F00A011943826187
:101A6000016270BD002C01400004004000080040ED
:101A700010B5036A046A24F010040462846923F038
:101A8000A00324F4704444EA023243EA0111826163
:101A9000016210BD30B5046A056A25F010050562C3
:101AA000856925F4407545EA022222F470454FF617
:101AB000FF7202EA033224F0A0032A43A02404EABE
:101AC000011119438261016230BDFEE70907090E69
:101AD000002804DB00F1E02080F80014704700F0DB
:101AE0000F0000F1E02080F8141D7047FEF7DEFDC6
:101AF000FFF74CFEFFF716FDFFF74AFDFFF768FD05
:101B0000FFF70AFEFFF7BAFD3C210948FFF75CFA30
:101B100000210848FFF7B4FC064D322428684463CE
:101B20006420FEF7B9FB0A34FA2CF7DBF5E7000076
:101B3000F4000020640000200102020304050607EF
:101B400008090A0B0C0D0E0F101000000000000019
:101B5000000001020304060708090000000001025A
:101B600003040000841B0008000000201000000097
:101B700028010008941B00081000002090070000B6
:101B800044010008010000001000000000000000F7
:041B900000127A00C5
:04000005080000ED02
:00000001FF
